{
  "contractName": "Logistics",
  "abi": [
    {
      "inputs": [],
      "payable": false,
      "stateMutability": "nonpayable",
      "type": "constructor"
    },
    {
      "anonymous": false,
      "inputs": [
        {
          "indexed": false,
          "internalType": "address",
          "name": "CreatorOrSigner",
          "type": "address"
        },
        {
          "indexed": false,
          "internalType": "string",
          "name": "ipfsHash",
          "type": "string"
        },
        {
          "indexed": false,
          "internalType": "string",
          "name": "role",
          "type": "string"
        }
      ],
      "name": "UpdateDocStatus",
      "type": "event"
    },
    {
      "anonymous": false,
      "inputs": [
        {
          "indexed": true,
          "internalType": "bytes32",
          "name": "orderID",
          "type": "bytes32"
        },
        {
          "indexed": false,
          "internalType": "string",
          "name": "orderStatus",
          "type": "string"
        },
        {
          "indexed": false,
          "internalType": "uint256",
          "name": "ts",
          "type": "uint256"
        }
      ],
      "name": "UpdateorderStatus",
      "type": "event"
    },
    {
      "anonymous": false,
      "inputs": [
        {
          "indexed": false,
          "internalType": "string",
          "name": "shipID",
          "type": "string"
        },
        {
          "indexed": false,
          "internalType": "string",
          "name": "shipStatus",
          "type": "string"
        },
        {
          "indexed": false,
          "internalType": "uint256",
          "name": "ts",
          "type": "uint256"
        }
      ],
      "name": "UpdateshipStatus",
      "type": "event"
    },
    {
      "anonymous": false,
      "inputs": [
        {
          "indexed": false,
          "internalType": "string",
          "name": "role",
          "type": "string"
        }
      ],
      "name": "accessDenied",
      "type": "event"
    },
    {
      "anonymous": false,
      "inputs": [
        {
          "indexed": false,
          "internalType": "address",
          "name": "add",
          "type": "address"
        },
        {
          "indexed": false,
          "internalType": "string",
          "name": "str",
          "type": "string"
        }
      ],
      "name": "bidByOthers",
      "type": "event"
    },
    {
      "anonymous": false,
      "inputs": [
        {
          "indexed": false,
          "internalType": "string",
          "name": "role",
          "type": "string"
        }
      ],
      "name": "roleSet",
      "type": "event"
    },
    {
      "anonymous": false,
      "inputs": [
        {
          "indexed": true,
          "internalType": "address",
          "name": "shipowner",
          "type": "address"
        },
        {
          "indexed": true,
          "internalType": "bytes32",
          "name": "uuid",
          "type": "bytes32"
        }
      ],
      "name": "sendUUID",
      "type": "event"
    },
    {
      "constant": true,
      "inputs": [
        {
          "internalType": "uint256",
          "name": "",
          "type": "uint256"
        }
      ],
      "name": "clearanceRequests",
      "outputs": [
        {
          "internalType": "string",
          "name": "shipID",
          "type": "string"
        },
        {
          "internalType": "address",
          "name": "requestor",
          "type": "address"
        }
      ],
      "payable": false,
      "stateMutability": "view",
      "type": "function"
    },
    {
      "constant": true,
      "inputs": [
        {
          "internalType": "string",
          "name": "",
          "type": "string"
        }
      ],
      "name": "confirmations",
      "outputs": [
        {
          "internalType": "bool",
          "name": "startMeasured",
          "type": "bool"
        },
        {
          "internalType": "bool",
          "name": "signedByShipOwnerStart",
          "type": "bool"
        },
        {
          "internalType": "bool",
          "name": "signedByShipperStart",
          "type": "bool"
        },
        {
          "internalType": "bool",
          "name": "endMeasured",
          "type": "bool"
        },
        {
          "internalType": "bool",
          "name": "signedByShipOwnerEnd",
          "type": "bool"
        },
        {
          "internalType": "bool",
          "name": "signedByShipperEnd",
          "type": "bool"
        }
      ],
      "payable": false,
      "stateMutability": "view",
      "type": "function"
    },
    {
      "constant": true,
      "inputs": [
        {
          "internalType": "bytes32",
          "name": "",
          "type": "bytes32"
        }
      ],
      "name": "ordermapping",
      "outputs": [
        {
          "internalType": "bytes32",
          "name": "orderID",
          "type": "bytes32"
        },
        {
          "internalType": "string",
          "name": "from",
          "type": "string"
        },
        {
          "internalType": "string",
          "name": "to",
          "type": "string"
        },
        {
          "internalType": "uint256",
          "name": "freightClass",
          "type": "uint256"
        },
        {
          "internalType": "uint256",
          "name": "estimate_arrival_time",
          "type": "uint256"
        },
        {
          "internalType": "uint256",
          "name": "orderStatus",
          "type": "uint256"
        },
        {
          "internalType": "address",
          "name": "orderOwner",
          "type": "address"
        },
        {
          "internalType": "address",
          "name": "shipper",
          "type": "address"
        },
        {
          "internalType": "address",
          "name": "shipOwner",
          "type": "address"
        },
        {
          "internalType": "bool",
          "name": "bidByShipper",
          "type": "bool"
        },
        {
          "internalType": "bool",
          "name": "bidByShipOwner",
          "type": "bool"
        }
      ],
      "payable": false,
      "stateMutability": "view",
      "type": "function"
    },
    {
      "constant": true,
      "inputs": [
        {
          "internalType": "uint256",
          "name": "",
          "type": "uint256"
        }
      ],
      "name": "orders",
      "outputs": [
        {
          "internalType": "bytes32",
          "name": "orderID",
          "type": "bytes32"
        },
        {
          "internalType": "string",
          "name": "from",
          "type": "string"
        },
        {
          "internalType": "string",
          "name": "to",
          "type": "string"
        },
        {
          "internalType": "uint256",
          "name": "freightClass",
          "type": "uint256"
        },
        {
          "internalType": "uint256",
          "name": "estimate_arrival_time",
          "type": "uint256"
        },
        {
          "internalType": "uint256",
          "name": "orderStatus",
          "type": "uint256"
        },
        {
          "internalType": "address",
          "name": "orderOwner",
          "type": "address"
        },
        {
          "internalType": "address",
          "name": "shipper",
          "type": "address"
        },
        {
          "internalType": "address",
          "name": "shipOwner",
          "type": "address"
        },
        {
          "internalType": "bool",
          "name": "bidByShipper",
          "type": "bool"
        },
        {
          "internalType": "bool",
          "name": "bidByShipOwner",
          "type": "bool"
        }
      ],
      "payable": false,
      "stateMutability": "view",
      "type": "function"
    },
    {
      "constant": true,
      "inputs": [],
      "name": "owner",
      "outputs": [
        {
          "internalType": "address",
          "name": "",
          "type": "address"
        }
      ],
      "payable": false,
      "stateMutability": "view",
      "type": "function"
    },
    {
      "constant": true,
      "inputs": [],
      "name": "pubkeyHash",
      "outputs": [
        {
          "internalType": "string",
          "name": "",
          "type": "string"
        }
      ],
      "payable": false,
      "stateMutability": "view",
      "type": "function"
    },
    {
      "constant": true,
      "inputs": [
        {
          "internalType": "uint256",
          "name": "",
          "type": "uint256"
        }
      ],
      "name": "reqCred",
      "outputs": [
        {
          "internalType": "string",
          "name": "",
          "type": "string"
        }
      ],
      "payable": false,
      "stateMutability": "view",
      "type": "function"
    },
    {
      "constant": true,
      "inputs": [
        {
          "internalType": "address",
          "name": "",
          "type": "address"
        }
      ],
      "name": "roles",
      "outputs": [
        {
          "internalType": "string",
          "name": "",
          "type": "string"
        }
      ],
      "payable": false,
      "stateMutability": "view",
      "type": "function"
    },
    {
      "constant": true,
      "inputs": [
        {
          "internalType": "string",
          "name": "",
          "type": "string"
        }
      ],
      "name": "shipClearanceReport",
      "outputs": [
        {
          "internalType": "string",
          "name": "ipfsHash",
          "type": "string"
        },
        {
          "internalType": "bool",
          "name": "signedByShipOwner",
          "type": "bool"
        }
      ],
      "payable": false,
      "stateMutability": "view",
      "type": "function"
    },
    {
      "constant": true,
      "inputs": [
        {
          "internalType": "address",
          "name": "",
          "type": "address"
        }
      ],
      "name": "shipOwnership",
      "outputs": [
        {
          "internalType": "string",
          "name": "",
          "type": "string"
        }
      ],
      "payable": false,
      "stateMutability": "view",
      "type": "function"
    },
    {
      "constant": true,
      "inputs": [
        {
          "internalType": "string",
          "name": "",
          "type": "string"
        }
      ],
      "name": "shipmapping",
      "outputs": [
        {
          "internalType": "string",
          "name": "shipID",
          "type": "string"
        },
        {
          "internalType": "address",
          "name": "shipOwner",
          "type": "address"
        },
        {
          "internalType": "uint256",
          "name": "shipStatus",
          "type": "uint256"
        },
        {
          "internalType": "uint256",
          "name": "startWaterDisplacement",
          "type": "uint256"
        },
        {
          "internalType": "uint256",
          "name": "endWaterDisplacement",
          "type": "uint256"
        }
      ],
      "payable": false,
      "stateMutability": "view",
      "type": "function"
    },
    {
      "constant": true,
      "inputs": [
        {
          "internalType": "address",
          "name": "",
          "type": "address"
        }
      ],
      "name": "shipowneruuid",
      "outputs": [
        {
          "internalType": "bytes32",
          "name": "uuid",
          "type": "bytes32"
        },
        {
          "internalType": "bool",
          "name": "confirmed",
          "type": "bool"
        }
      ],
      "payable": false,
      "stateMutability": "view",
      "type": "function"
    },
    {
      "constant": true,
      "inputs": [
        {
          "internalType": "uint256",
          "name": "",
          "type": "uint256"
        }
      ],
      "name": "ships",
      "outputs": [
        {
          "internalType": "string",
          "name": "shipID",
          "type": "string"
        },
        {
          "internalType": "address",
          "name": "shipOwner",
          "type": "address"
        },
        {
          "internalType": "uint256",
          "name": "shipStatus",
          "type": "uint256"
        },
        {
          "internalType": "uint256",
          "name": "startWaterDisplacement",
          "type": "uint256"
        },
        {
          "internalType": "uint256",
          "name": "endWaterDisplacement",
          "type": "uint256"
        }
      ],
      "payable": false,
      "stateMutability": "view",
      "type": "function"
    },
    {
      "constant": false,
      "inputs": [
        {
          "internalType": "address",
          "name": "addr",
          "type": "address"
        },
        {
          "internalType": "string",
          "name": "role",
          "type": "string"
        }
      ],
      "name": "setRole",
      "outputs": [],
      "payable": false,
      "stateMutability": "nonpayable",
      "type": "function"
    },
    {
      "constant": true,
      "inputs": [
        {
          "internalType": "address",
          "name": "addr",
          "type": "address"
        }
      ],
      "name": "getRole",
      "outputs": [
        {
          "internalType": "string",
          "name": "",
          "type": "string"
        }
      ],
      "payable": false,
      "stateMutability": "view",
      "type": "function"
    },
    {
      "constant": false,
      "inputs": [
        {
          "internalType": "string",
          "name": "from",
          "type": "string"
        },
        {
          "internalType": "string",
          "name": "to",
          "type": "string"
        },
        {
          "internalType": "uint256",
          "name": "freightClass",
          "type": "uint256"
        },
        {
          "internalType": "uint256",
          "name": "estimate_arrival_time",
          "type": "uint256"
        }
      ],
      "name": "createOrder",
      "outputs": [
        {
          "internalType": "bytes32",
          "name": "",
          "type": "bytes32"
        }
      ],
      "payable": false,
      "stateMutability": "nonpayable",
      "type": "function"
    },
    {
      "constant": false,
      "inputs": [
        {
          "internalType": "string",
          "name": "_pubkeyHash",
          "type": "string"
        }
      ],
      "name": "setpubkeyHash",
      "outputs": [
        {
          "internalType": "string",
          "name": "",
          "type": "string"
        }
      ],
      "payable": false,
      "stateMutability": "nonpayable",
      "type": "function"
    },
    {
      "constant": true,
      "inputs": [],
      "name": "getpubkeyHash",
      "outputs": [
        {
          "internalType": "string",
          "name": "",
          "type": "string"
        }
      ],
      "payable": false,
      "stateMutability": "view",
      "type": "function"
    },
    {
      "constant": true,
      "inputs": [],
      "name": "getReqCredCount",
      "outputs": [
        {
          "internalType": "uint256",
          "name": "",
          "type": "uint256"
        }
      ],
      "payable": false,
      "stateMutability": "view",
      "type": "function"
    },
    {
      "constant": true,
      "inputs": [
        {
          "internalType": "uint256",
          "name": "i",
          "type": "uint256"
        }
      ],
      "name": "getReqCred",
      "outputs": [
        {
          "internalType": "string",
          "name": "",
          "type": "string"
        }
      ],
      "payable": false,
      "stateMutability": "view",
      "type": "function"
    },
    {
      "constant": false,
      "inputs": [
        {
          "internalType": "bytes32",
          "name": "orderID",
          "type": "bytes32"
        },
        {
          "internalType": "uint256",
          "name": "price",
          "type": "uint256"
        }
      ],
      "name": "bidOrderByShipper",
      "outputs": [],
      "payable": false,
      "stateMutability": "nonpayable",
      "type": "function"
    },
    {
      "constant": false,
      "inputs": [
        {
          "internalType": "bytes32",
          "name": "orderID",
          "type": "bytes32"
        },
        {
          "internalType": "uint256",
          "name": "price",
          "type": "uint256"
        }
      ],
      "name": "bidOrderByShipOwner",
      "outputs": [],
      "payable": false,
      "stateMutability": "nonpayable",
      "type": "function"
    },
    {
      "constant": false,
      "inputs": [
        {
          "internalType": "bytes32",
          "name": "uuid",
          "type": "bytes32"
        }
      ],
      "name": "confirmOrder",
      "outputs": [],
      "payable": false,
      "stateMutability": "nonpayable",
      "type": "function"
    },
    {
      "constant": false,
      "inputs": [
        {
          "internalType": "bytes32",
          "name": "orderID",
          "type": "bytes32"
        },
        {
          "internalType": "address",
          "name": "shipOwner",
          "type": "address"
        }
      ],
      "name": "confirmAssignment",
      "outputs": [],
      "payable": false,
      "stateMutability": "nonpayable",
      "type": "function"
    },
    {
      "constant": false,
      "inputs": [
        {
          "internalType": "bytes32",
          "name": "orderID",
          "type": "bytes32"
        }
      ],
      "name": "adminOrder",
      "outputs": [],
      "payable": false,
      "stateMutability": "nonpayable",
      "type": "function"
    },
    {
      "constant": true,
      "inputs": [],
      "name": "getOrderCount",
      "outputs": [
        {
          "internalType": "uint256",
          "name": "",
          "type": "uint256"
        }
      ],
      "payable": false,
      "stateMutability": "view",
      "type": "function"
    },
    {
      "constant": true,
      "inputs": [],
      "name": "getShipCount",
      "outputs": [
        {
          "internalType": "uint256",
          "name": "",
          "type": "uint256"
        }
      ],
      "payable": false,
      "stateMutability": "view",
      "type": "function"
    },
    {
      "constant": true,
      "inputs": [],
      "name": "getClearanceRequestsCount",
      "outputs": [
        {
          "internalType": "uint256",
          "name": "",
          "type": "uint256"
        }
      ],
      "payable": false,
      "stateMutability": "view",
      "type": "function"
    },
    {
      "constant": false,
      "inputs": [
        {
          "internalType": "string",
          "name": "shipID",
          "type": "string"
        }
      ],
      "name": "AskForClearance",
      "outputs": [],
      "payable": false,
      "stateMutability": "nonpayable",
      "type": "function"
    },
    {
      "constant": false,
      "inputs": [
        {
          "internalType": "string",
          "name": "shipID",
          "type": "string"
        },
        {
          "internalType": "string",
          "name": "ipfsHash",
          "type": "string"
        }
      ],
      "name": "UploadClearanceReport",
      "outputs": [],
      "payable": false,
      "stateMutability": "nonpayable",
      "type": "function"
    },
    {
      "constant": false,
      "inputs": [
        {
          "internalType": "string",
          "name": "shipID",
          "type": "string"
        },
        {
          "internalType": "string",
          "name": "ipfsHash",
          "type": "string"
        }
      ],
      "name": "SignClearanceReport",
      "outputs": [],
      "payable": false,
      "stateMutability": "nonpayable",
      "type": "function"
    },
    {
      "constant": false,
      "inputs": [
        {
          "internalType": "string",
          "name": "shipID",
          "type": "string"
        },
        {
          "internalType": "uint256",
          "name": "measure",
          "type": "uint256"
        }
      ],
      "name": "StartWaterDisplacement",
      "outputs": [],
      "payable": false,
      "stateMutability": "nonpayable",
      "type": "function"
    },
    {
      "constant": false,
      "inputs": [
        {
          "internalType": "string",
          "name": "shipID",
          "type": "string"
        }
      ],
      "name": "EnableLoad",
      "outputs": [],
      "payable": false,
      "stateMutability": "nonpayable",
      "type": "function"
    },
    {
      "constant": false,
      "inputs": [
        {
          "internalType": "string",
          "name": "shipID",
          "type": "string"
        },
        {
          "internalType": "uint256",
          "name": "measure",
          "type": "uint256"
        }
      ],
      "name": "EndWaterDisplacement",
      "outputs": [],
      "payable": false,
      "stateMutability": "nonpayable",
      "type": "function"
    },
    {
      "constant": false,
      "inputs": [
        {
          "internalType": "string",
          "name": "shipID",
          "type": "string"
        },
        {
          "internalType": "string",
          "name": "role",
          "type": "string"
        }
      ],
      "name": "SignConfirmation",
      "outputs": [],
      "payable": false,
      "stateMutability": "nonpayable",
      "type": "function"
    },
    {
      "constant": false,
      "inputs": [
        {
          "internalType": "string",
          "name": "shipID",
          "type": "string"
        }
      ],
      "name": "LoadGoods",
      "outputs": [],
      "payable": false,
      "stateMutability": "nonpayable",
      "type": "function"
    }
  ],
  "bytecode": "0x608060405234801561001057600080fd5b5033600360006101000a81548173ffffffffffffffffffffffffffffffffffffffff021916908373ffffffffffffffffffffffffffffffffffffffff160217905550615ae680620000626000396000f3fe608060405234801561001057600080fd5b506004361061021b5760003560e01c806393148a6511610125578063ce181eea116100ad578063ec86d28d1161007c578063ec86d28d1461189f578063ece5dd6314611902578063f3638fb4146119c7578063f697e72514611b41578063f832309b14611c935761021b565b8063ce181eea146114dc578063cf1c96b41461152a578063dad16f331461167c578063dfb158ed146117f85761021b565b8063a85c38ef116100f4578063a85c38ef14610e74578063bc8794b314611052578063c02ee8e014611186578063c0c88f7b14611364578063cd135da1146114215761021b565b806393148a6514610b725780639937464214610baa5780639fa71b3714610c67578063a835843914610d225761021b565b806344276733116101a85780637592df20116101775780637592df20146109b25780637654b9b014610a355780637f3c475714610a635780638d0a5fbb14610b0a5780638da5cb5b14610b285761021b565b806344276733146106ce5780634d4e8dfa1461078b57806350d18b701461087a5780636227924d146108a85761021b565b80632a12c91f116101ef5780632a12c91f146103a457806338d121921461045f5780633cb56c831461059e5780633f6080a3146106785780633fd8327b146106965761021b565b8062f8644f1461022057806307408ea9146102e55780631704c27114610368578063225cc97414610386575b600080fd5b6102e36004803603604081101561023657600080fd5b810190808035906020019064010000000081111561025357600080fd5b82018360208201111561026557600080fd5b8035906020019184600183028401116401000000008311171561028757600080fd5b91908080601f016020809104026020016040519081016040528093929190818152602001838380828437600081840152601f19601f82011690508083019250505050505050919291929080359060200190929190505050611d6e565b005b6102ed611fef565b6040518080602001828103825283818151815260200191508051906020019080838360005b8381101561032d578082015181840152602081019050610312565b50505050905090810190601f16801561035a5780820380516001836020036101000a031916815260200191505b509250505060405180910390f35b610370612091565b6040518082815260200191505060405180910390f35b61038e61209e565b6040518082815260200191505060405180910390f35b61045d600480360360208110156103ba57600080fd5b81019080803590602001906401000000008111156103d757600080fd5b8201836020820111156103e957600080fd5b8035906020019184600183028401116401000000008311171561040b57600080fd5b91908080601f016020809104026020016040519081016040528093929190818152602001838380828437600081840152601f19601f8201169050808301925050505050505091929192905050506120ab565b005b6105186004803603602081101561047557600080fd5b810190808035906020019064010000000081111561049257600080fd5b8201836020820111156104a457600080fd5b803590602001918460018302840111640100000000831117156104c657600080fd5b91908080601f016020809104026020016040519081016040528093929190818152602001838380828437600081840152601f19601f82011690508083019250505050505050919291929050505061247e565b604051808060200183151515158152602001828103825284818151815260200191508051906020019080838360005b83811015610562578082015181840152602081019050610547565b50505050905090810190601f16801561058f5780820380516001836020036101000a031916815260200191505b50935050505060405180910390f35b6105ca600480360360208110156105b457600080fd5b810190808035906020019092919050505061255d565b60405180806020018373ffffffffffffffffffffffffffffffffffffffff1673ffffffffffffffffffffffffffffffffffffffff168152602001828103825284818151815260200191508051906020019080838360005b8381101561063c578082015181840152602081019050610621565b50505050905090810190601f1680156106695780820380516001836020036101000a031916815260200191505b50935050505060405180910390f35b610680612646565b6040518082815260200191505060405180910390f35b6106cc600480360360408110156106ac57600080fd5b810190808035906020019092919080359060200190929190505050612653565b005b610710600480360360208110156106e457600080fd5b81019080803573ffffffffffffffffffffffffffffffffffffffff169060200190929190505050612840565b6040518080602001828103825283818151815260200191508051906020019080838360005b83811015610750578082015181840152602081019050610735565b50505050905090810190601f16801561077d5780820380516001836020036101000a031916815260200191505b509250505060405180910390f35b6107b7600480360360208110156107a157600080fd5b8101908080359060200190929190505050612921565b60405180806020018673ffffffffffffffffffffffffffffffffffffffff1673ffffffffffffffffffffffffffffffffffffffff168152602001858152602001848152602001838152602001828103825287818151815260200191508051906020019080838360005b8381101561083b578082015181840152602081019050610820565b50505050905090810190601f1680156108685780820380516001836020036101000a031916815260200191505b50965050505050505060405180910390f35b6108a66004803603602081101561089057600080fd5b8101908080359060200190929190505050612a1c565b005b610961600480360360208110156108be57600080fd5b81019080803590602001906401000000008111156108db57600080fd5b8201836020820111156108ed57600080fd5b8035906020019184600183028401116401000000008311171561090f57600080fd5b91908080601f016020809104026020016040519081016040528093929190818152602001838380828437600081840152601f19601f820116905080830192505050505050509192919290505050612b05565b60405180871515151581526020018615151515815260200185151515158152602001841515151581526020018315151515815260200182151515158152602001965050505050505060405180910390f35b6109ba612ba5565b6040518080602001828103825283818151815260200191508051906020019080838360005b838110156109fa5780820151818401526020810190506109df565b50505050905090810190601f168015610a275780820380516001836020036101000a031916815260200191505b509250505060405180910390f35b610a6160048036036020811015610a4b57600080fd5b8101908080359060200190929190505050612c43565b005b610a8f60048036036020811015610a7957600080fd5b8101908080359060200190929190505050612f71565b6040518080602001828103825283818151815260200191508051906020019080838360005b83811015610acf578082015181840152602081019050610ab4565b50505050905090810190601f168015610afc5780820380516001836020036101000a031916815260200191505b509250505060405180910390f35b610b1261302a565b6040518082815260200191505060405180910390f35b610b30613036565b604051808273ffffffffffffffffffffffffffffffffffffffff1673ffffffffffffffffffffffffffffffffffffffff16815260200191505060405180910390f35b610ba860048036036040811015610b8857600080fd5b81019080803590602001909291908035906020019092919050505061305c565b005b610bec60048036036020811015610bc057600080fd5b81019080803573ffffffffffffffffffffffffffffffffffffffff169060200190929190505050613249565b6040518080602001828103825283818151815260200191508051906020019080838360005b83811015610c2c578082015181840152602081019050610c11565b50505050905090810190601f168015610c595780820380516001836020036101000a031916815260200191505b509250505060405180910390f35b610d2060048036036020811015610c7d57600080fd5b8101908080359060200190640100000000811115610c9a57600080fd5b820183602082011115610cac57600080fd5b80359060200191846001830284011164010000000083111715610cce57600080fd5b91908080601f016020809104026020016040519081016040528093929190818152602001838380828437600081840152601f19601f8201169050808301925050505050505091929192905050506132f9565b005b610e7260048036036040811015610d3857600080fd5b8101908080359060200190640100000000811115610d5557600080fd5b820183602082011115610d6757600080fd5b80359060200191846001830284011164010000000083111715610d8957600080fd5b91908080601f016020809104026020016040519081016040528093929190818152602001838380828437600081840152601f19601f82011690508083019250505050505050919291929080359060200190640100000000811115610dec57600080fd5b820183602082011115610dfe57600080fd5b80359060200191846001830284011164010000000083111715610e2057600080fd5b91908080601f016020809104026020016040519081016040528093929190818152602001838380828437600081840152601f19601f820116905080830192505050505050509192919290505050613793565b005b610ea060048036036020811015610e8a57600080fd5b8101908080359060200190929190505050613a93565b604051808c815260200180602001806020018b81526020018a81526020018981526020018873ffffffffffffffffffffffffffffffffffffffff1673ffffffffffffffffffffffffffffffffffffffff1681526020018773ffffffffffffffffffffffffffffffffffffffff1673ffffffffffffffffffffffffffffffffffffffff1681526020018673ffffffffffffffffffffffffffffffffffffffff1673ffffffffffffffffffffffffffffffffffffffff168152602001851515151581526020018415151515815260200183810383528d818151815260200191508051906020019080838360005b83811015610fa6578082015181840152602081019050610f8b565b50505050905090810190601f168015610fd35780820380516001836020036101000a031916815260200191505b5083810382528c818151815260200191508051906020019080838360005b8381101561100c578082015181840152602081019050610ff1565b50505050905090810190601f1680156110395780820380516001836020036101000a031916815260200191505b509d505050505050505050505050505060405180910390f35b61110b6004803603602081101561106857600080fd5b810190808035906020019064010000000081111561108557600080fd5b82018360208201111561109757600080fd5b803590602001918460018302840111640100000000831117156110b957600080fd5b91908080601f016020809104026020016040519081016040528093929190818152602001838380828437600081840152601f19601f820116905080830192505050505050509192919290505050613ca4565b6040518080602001828103825283818151815260200191508051906020019080838360005b8381101561114b578082015181840152602081019050611130565b50505050905090810190601f1680156111785780820380516001836020036101000a031916815260200191505b509250505060405180910390f35b6111b26004803603602081101561119c57600080fd5b8101908080359060200190929190505050613d5f565b604051808c815260200180602001806020018b81526020018a81526020018981526020018873ffffffffffffffffffffffffffffffffffffffff1673ffffffffffffffffffffffffffffffffffffffff1681526020018773ffffffffffffffffffffffffffffffffffffffff1673ffffffffffffffffffffffffffffffffffffffff1681526020018673ffffffffffffffffffffffffffffffffffffffff1673ffffffffffffffffffffffffffffffffffffffff168152602001851515151581526020018415151515815260200183810383528d818151815260200191508051906020019080838360005b838110156112b857808201518184015260208101905061129d565b50505050905090810190601f1680156112e55780820380516001836020036101000a031916815260200191505b5083810382528c818151815260200191508051906020019080838360005b8381101561131e578082015181840152602081019050611303565b50505050905090810190601f16801561134b5780820380516001836020036101000a031916815260200191505b509d505050505050505050505050505060405180910390f35b6113a66004803603602081101561137a57600080fd5b81019080803573ffffffffffffffffffffffffffffffffffffffff169060200190929190505050613f63565b6040518080602001828103825283818151815260200191508051906020019080838360005b838110156113e65780820151818401526020810190506113cb565b50505050905090810190601f1680156114135780820380516001836020036101000a031916815260200191505b509250505060405180910390f35b6114da6004803603602081101561143757600080fd5b810190808035906020019064010000000081111561145457600080fd5b82018360208201111561146657600080fd5b8035906020019184600183028401116401000000008311171561148857600080fd5b91908080601f016020809104026020016040519081016040528093929190818152602001838380828437600081840152601f19601f820116905080830192505050505050509192919290505050614013565b005b611528600480360360408110156114f257600080fd5b8101908080359060200190929190803573ffffffffffffffffffffffffffffffffffffffff169060200190929190505050614267565b005b61167a6004803603604081101561154057600080fd5b810190808035906020019064010000000081111561155d57600080fd5b82018360208201111561156f57600080fd5b8035906020019184600183028401116401000000008311171561159157600080fd5b91908080601f016020809104026020016040519081016040528093929190818152602001838380828437600081840152601f19601f820116905080830192505050505050509192919290803590602001906401000000008111156115f457600080fd5b82018360208201111561160657600080fd5b8035906020019184600183028401116401000000008311171561162857600080fd5b91908080601f016020809104026020016040519081016040528093929190818152602001838380828437600081840152601f19601f82011690508083019250505050505050919291929050505061444c565b005b6117356004803603602081101561169257600080fd5b81019080803590602001906401000000008111156116af57600080fd5b8201836020820111156116c157600080fd5b803590602001918460018302840111640100000000831117156116e357600080fd5b91908080601f016020809104026020016040519081016040528093929190818152602001838380828437600081840152601f19601f8201169050808301925050505050505091929192905050506145de565b60405180806020018673ffffffffffffffffffffffffffffffffffffffff1673ffffffffffffffffffffffffffffffffffffffff168152602001858152602001848152602001838152602001828103825287818151815260200191508051906020019080838360005b838110156117b957808201518184015260208101905061179e565b50505050905090810190601f1680156117e65780820380516001836020036101000a031916815260200191505b50965050505050505060405180910390f35b6118246004803603602081101561180e57600080fd5b81019080803590602001909291905050506146e2565b6040518080602001828103825283818151815260200191508051906020019080838360005b83811015611864578082015181840152602081019050611849565b50505050905090810190601f1680156118915780820380516001836020036101000a031916815260200191505b509250505060405180910390f35b6118e1600480360360208110156118b557600080fd5b81019080803573ffffffffffffffffffffffffffffffffffffffff16906020019092919050505061479b565b60405180838152602001821515151581526020019250505060405180910390f35b6119c56004803603604081101561191857600080fd5b810190808035906020019064010000000081111561193557600080fd5b82018360208201111561194757600080fd5b8035906020019184600183028401116401000000008311171561196957600080fd5b91908080601f016020809104026020016040519081016040528093929190818152602001838380828437600081840152601f19601f820116905080830192505050505050509192919290803590602001909291905050506147cc565b005b611b2b600480360360808110156119dd57600080fd5b81019080803590602001906401000000008111156119fa57600080fd5b820183602082011115611a0c57600080fd5b80359060200191846001830284011164010000000083111715611a2e57600080fd5b91908080601f016020809104026020016040519081016040528093929190818152602001838380828437600081840152601f19601f82011690508083019250505050505050919291929080359060200190640100000000811115611a9157600080fd5b820183602082011115611aa357600080fd5b80359060200191846001830284011164010000000083111715611ac557600080fd5b91908080601f016020809104026020016040519081016040528093929190818152602001838380828437600081840152601f19601f8201169050808301925050505050505091929192908035906020019092919080359060200190929190505050614a2f565b6040518082815260200191505060405180910390f35b611c9160048036036040811015611b5757600080fd5b8101908080359060200190640100000000811115611b7457600080fd5b820183602082011115611b8657600080fd5b80359060200191846001830284011164010000000083111715611ba857600080fd5b91908080601f016020809104026020016040519081016040528093929190818152602001838380828437600081840152601f19601f82011690508083019250505050505050919291929080359060200190640100000000811115611c0b57600080fd5b820183602082011115611c1d57600080fd5b80359060200191846001830284011164010000000083111715611c3f57600080fd5b91908080601f016020809104026020016040519081016040528093929190818152602001838380828437600081840152601f19601f82011690508083019250505050505050919291929050505061505b565b005b611d6c60048036036040811015611ca957600080fd5b81019080803573ffffffffffffffffffffffffffffffffffffffff16906020019092919080359060200190640100000000811115611ce657600080fd5b820183602082011115611cf857600080fd5b80359060200191846001830284011164010000000083111715611d1a57600080fd5b91908080601f016020809104026020016040519081016040528093929190818152602001838380828437600081840152601f19601f82011690508083019250505050505050919291929050505061570e565b005b600e826040518082805190602001908083835b60208310611da45780518252602082019150602081019050602083039250611d81565b6001836020036101000a038019825116818451168082178552505050505050905001915050908152602001604051809103902060000160009054906101000a900460ff168015611e6a5750600e826040518082805190602001908083835b60208310611e255780518252602082019150602081019050602083039250611e02565b6001836020036101000a038019825116818451168082178552505050505050905001915050908152602001604051809103902060000160029054906101000a900460ff165b8015611eec5750600e826040518082805190602001908083835b60208310611ea75780518252602082019150602081019050602083039250611e84565b6001836020036101000a038019825116818451168082178552505050505050905001915050908152602001604051809103902060000160029054906101000a900460ff165b611ef557600080fd5b806008836040518082805190602001908083835b60208310611f2c5780518252602082019150602081019050602083039250611f09565b6001836020036101000a0380198251168184511680821785525050505050509050019150509081526020016040518091039020600401819055506001600e836040518082805190602001908083835b60208310611f9e5780518252602082019150602081019050602083039250611f7b565b6001836020036101000a038019825116818451168082178552505050505050905001915050908152602001604051809103902060000160036101000a81548160ff0219169083151502179055505050565b606060048054600181600116156101000203166002900480601f0160208091040260200160405190810160405280929190818152602001828054600181600116156101000203166002900480156120875780601f1061205c57610100808354040283529160200191612087565b820191906000526020600020905b81548152906001019060200180831161206a57829003601f168201915b5050505050905090565b6000600180549050905090565b6000600580549050905090565b6040518060400160405280600781526020017f5368697070657200000000000000000000000000000000000000000000000000815250806040516020018082805190602001908083835b6020831061211857805182526020820191506020810190506020830392506120f5565b6001836020036101000a03801982511681845116808217855250505050505090500191505060405160208183030381529060405280519060200120600660003373ffffffffffffffffffffffffffffffffffffffff1673ffffffffffffffffffffffffffffffffffffffff16815260200190815260200160002060405160200180828054600181600116156101000203166002900480156121f05780601f106121ce5761010080835404028352918201916121f0565b820191906000526020600020905b8154815290600101906020018083116121dc575b505091505060405160208183030381529060405280519060200120146122b1577f5312dd75a9e6f37671bad29eb304dc8e362eae39c59e984fed296a410eccc22d816040518080602001828103825283818151815260200191508051906020019080838360005b83811015612272578082015181840152602081019050612257565b50505050905090810190601f16801561229f5780820380516001836020036101000a031916815260200191505b509250505060405180910390a161247a565b60046008836040518082805190602001908083835b602083106122e957805182526020820191506020810190506020830392506122c6565b6001836020036101000a0380198251168184511680821785525050505050509050019150509081526020016040518091039020600201541461232a57600080fd5b60056008836040518082805190602001908083835b60208310612362578051825260208201915060208101905060208303925061233f565b6001836020036101000a0380198251168184511680821785525050505050509050019150509081526020016040518091039020600201819055507ff00e826221cd8f6852113a33f7ead28331697e008f033017d83b0f48e74606118242604051808060200180602001848152602001838103835285818151815260200191508051906020019080838360005b838110156124095780820151818401526020810190506123ee565b50505050905090810190601f1680156124365780820380516001836020036101000a031916815260200191505b50838103825260198152602001807f416c6c20676f6f647320686173206265656e206c6f616465640000000000000081525060200194505050505060405180910390a15b5050565b600d81805160208101820180518482526020830160208501208183528095505050505050600091509050806000018054600181600116156101000203166002900480601f0160208091040260200160405190810160405280929190818152602001828054600181600116156101000203166002900480156125405780601f1061251557610100808354040283529160200191612540565b820191906000526020600020905b81548152906001019060200180831161252357829003601f168201915b5050505050908060010160009054906101000a900460ff16905082565b6002818154811061256a57fe5b9060005260206000209060020201600091509050806000018054600181600116156101000203166002900480601f0160208091040260200160405190810160405280929190818152602001828054600181600116156101000203166002900480156126165780601f106125eb57610100808354040283529160200191612616565b820191906000526020600020905b8154815290600101906020018083116125f957829003601f168201915b5050505050908060010160009054906101000a900473ffffffffffffffffffffffffffffffffffffffff16905082565b6000600280549050905090565b600160076000848152602001908152602001600020600501541461267657600080fd5b60096000838152602001908152602001600020600101548111612701576040517f08c379a000000000000000000000000000000000000000000000000000000000815260040180806020018281038252600d8152602001807f707269636520746f6f206c6f770000000000000000000000000000000000000081525060200191505060405180910390fd5b336009600084815260200190815260200160002060000160006101000a81548173ffffffffffffffffffffffffffffffffffffffff021916908373ffffffffffffffffffffffffffffffffffffffff16021790555080600960008481526020019081526020016000206001018190555060016007600084815260200190815260200160002060080160146101000a81548160ff0219169083151502179055507ff872dc57f1ee2e967380ced673fd18523f38f1fde7f9af78af5f92585eca950133604051808273ffffffffffffffffffffffffffffffffffffffff1673ffffffffffffffffffffffffffffffffffffffff168152602001806020018281038252600e8152602001807f62696420627920736869707065720000000000000000000000000000000000008152506020019250505060405180910390a15050565b6060600660008373ffffffffffffffffffffffffffffffffffffffff1673ffffffffffffffffffffffffffffffffffffffff1681526020019081526020016000208054600181600116156101000203166002900480601f0160208091040260200160405190810160405280929190818152602001828054600181600116156101000203166002900480156129155780601f106128ea57610100808354040283529160200191612915565b820191906000526020600020905b8154815290600101906020018083116128f857829003601f168201915b50505050509050919050565b6001818154811061292e57fe5b9060005260206000209060050201600091509050806000018054600181600116156101000203166002900480601f0160208091040260200160405190810160405280929190818152602001828054600181600116156101000203166002900480156129da5780601f106129af576101008083540402835291602001916129da565b820191906000526020600020905b8154815290600101906020018083116129bd57829003601f168201915b5050505050908060010160009054906101000a900473ffffffffffffffffffffffffffffffffffffffff16908060020154908060030154908060040154905085565b80600f60003373ffffffffffffffffffffffffffffffffffffffff1673ffffffffffffffffffffffffffffffffffffffff168152602001908152602001600020600001819055506000600f60003373ffffffffffffffffffffffffffffffffffffffff1673ffffffffffffffffffffffffffffffffffffffff16815260200190815260200160002060010160006101000a81548160ff021916908315150217905550803373ffffffffffffffffffffffffffffffffffffffff167f83f612764a76afd4d4428bff5ea4fa015bcf976e0cbb7fa76ba721a5f62b917760405160405180910390a350565b600e818051602081018201805184825260208301602085012081835280955050505050506000915090508060000160009054906101000a900460ff16908060000160019054906101000a900460ff16908060000160029054906101000a900460ff16908060000160039054906101000a900460ff16908060000160049054906101000a900460ff16908060000160059054906101000a900460ff16905086565b60048054600181600116156101000203166002900480601f016020809104026020016040519081016040528092919081815260200182805460018160011615610100020316600290048015612c3b5780601f10612c1057610100808354040283529160200191612c3b565b820191906000526020600020905b815481529060010190602001808311612c1e57829003601f168201915b505050505081565b3373ffffffffffffffffffffffffffffffffffffffff166007600083815260200190815260200160002060060160009054906101000a900473ffffffffffffffffffffffffffffffffffffffff1673ffffffffffffffffffffffffffffffffffffffff1614612d1a576040517f08c379a000000000000000000000000000000000000000000000000000000000815260040180806020018281038252600b8152602001807f6e6f742063726561746f7200000000000000000000000000000000000000000081525060200191505060405180910390fd5b6007600082815260200190815260200160002060080160149054906101000a900460ff168015612d6a57506007600082815260200190815260200160002060080160159054906101000a900460ff165b612ddc576040517f08c379a000000000000000000000000000000000000000000000000000000000815260040180806020018281038252600e8152602001807f4e6f206f6e65206269642079657400000000000000000000000000000000000081525060200191505060405180910390fd5b60008090505b600080549050811015612f6d578160008281548110612dfd57fe5b9060005260206000209060090201600001541415612f60576009600083815260200190815260200160002060000160009054906101000a900473ffffffffffffffffffffffffffffffffffffffff1660008281548110612e5957fe5b906000526020600020906009020160070160006101000a81548173ffffffffffffffffffffffffffffffffffffffff021916908373ffffffffffffffffffffffffffffffffffffffff160217905550600a600083815260200190815260200160002060000160009054906101000a900473ffffffffffffffffffffffffffffffffffffffff1660008281548110612eec57fe5b906000526020600020906009020160080160006101000a81548173ffffffffffffffffffffffffffffffffffffffff021916908373ffffffffffffffffffffffffffffffffffffffff160217905550600260008281548110612f4a57fe5b9060005260206000209060090201600501819055505b8080600101915050612de2565b5050565b606060058281548110612f8057fe5b906000526020600020018054600181600116156101000203166002900480601f01602080910402602001604051908101604052809291908181526020018280546001816001161561010002031660029004801561301e5780601f10612ff35761010080835404028352916020019161301e565b820191906000526020600020905b81548152906001019060200180831161300157829003601f168201915b50505050509050919050565b60008080549050905090565b600360009054906101000a900473ffffffffffffffffffffffffffffffffffffffff1681565b600160076000848152602001908152602001600020600501541461307f57600080fd5b600a600083815260200190815260200160002060010154811161310a576040517f08c379a000000000000000000000000000000000000000000000000000000000815260040180806020018281038252600d8152602001807f707269636520746f6f206c6f770000000000000000000000000000000000000081525060200191505060405180910390fd5b33600a600084815260200190815260200160002060000160006101000a81548173ffffffffffffffffffffffffffffffffffffffff021916908373ffffffffffffffffffffffffffffffffffffffff16021790555080600a60008481526020019081526020016000206001018190555060016007600084815260200190815260200160002060080160156101000a81548160ff0219169083151502179055507ff872dc57f1ee2e967380ced673fd18523f38f1fde7f9af78af5f92585eca950133604051808273ffffffffffffffffffffffffffffffffffffffff1673ffffffffffffffffffffffffffffffffffffffff168152602001806020018281038252600b8152602001807f62696420627920736869700000000000000000000000000000000000000000008152506020019250505060405180910390a15050565b60066020528060005260406000206000915090508054600181600116156101000203166002900480601f0160208091040260200160405190810160405280929190818152602001828054600181600116156101000203166002900480156132f15780601f106132c6576101008083540402835291602001916132f1565b820191906000526020600020905b8154815290600101906020018083116132d457829003601f168201915b505050505081565b3373ffffffffffffffffffffffffffffffffffffffff166008826040518082805190602001908083835b602083106133465780518252602082019150602081019050602083039250613323565b6001836020036101000a038019825116818451168082178552505050505050905001915050908152602001604051809103902060010160009054906101000a900473ffffffffffffffffffffffffffffffffffffffff1673ffffffffffffffffffffffffffffffffffffffff1614801561342c575060016008826040518082805190602001908083835b602083106133f357805182526020820191506020810190506020830392506133d0565b6001836020036101000a038019825116818451168082178552505050505050905001915050908152602001604051809103902060020154145b156137905760008090505b60018054905081101561358557816040516020018082805190602001908083835b6020831061347b5780518252602082019150602081019050602083039250613458565b6001836020036101000a03801982511681845116808217855250505050505090500191505060405160208183030381529060405280519060200120600182815481106134c357fe5b906000526020600020906005020160000160405160200180828054600181600116156101000203166002900480156135325780601f10613510576101008083540402835291820191613532565b820191906000526020600020905b81548152906001019060200180831161351e575b50509150506040516020818303038152906040528051906020012014156135785760026001828154811061356257fe5b9060005260206000209060050201600201819055505b8080600101915050613437565b5060026008826040518082805190602001908083835b602083106135be578051825260208201915060208101905060208303925061359b565b6001836020036101000a03801982511681845116808217855250505050505090500191505090815260200160405180910390205050600260405180604001604052808381526020013373ffffffffffffffffffffffffffffffffffffffff16815250908060018154018082558091505090600182039060005260206000209060020201600090919290919091506000820151816000019080519060200190613667929190615802565b5060208201518160010160006101000a81548173ffffffffffffffffffffffffffffffffffffffff021916908373ffffffffffffffffffffffffffffffffffffffff1602179055505050507ff00e826221cd8f6852113a33f7ead28331697e008f033017d83b0f48e74606118142604051808060200180602001848152602001838103835285818151815260200191508051906020019080838360005b8381101561371f578082015181840152602081019050613704565b50505050905090810190601f16801561374c5780820380516001836020036101000a031916815260200191505b50838103825260208152602001807f57616974696e6720666f7220636c656172616e636520696e7370656374696f6e81525060200194505050505060405180910390a15b50565b604051806040016040528082815260200160001515815250600d836040518082805190602001908083835b602083106137e157805182526020820191506020810190506020830392506137be565b6001836020036101000a03801982511681845116808217855250505050505090500191505090815260200160405180910390206000820151816000019080519060200190613830929190615802565b5060208201518160010160006101000a81548160ff02191690831515021790555090505060036008836040518082805190602001908083835b6020831061388c5780518252602082019150602081019050602083039250613869565b6001836020036101000a0380198251168184511680821785525050505050509050019150509081526020016040518091039020600201819055507ff00e826221cd8f6852113a33f7ead28331697e008f033017d83b0f48e74606118242604051808060200180602001848152602001838103835285818151815260200191508051906020019080838360005b83811015613933578082015181840152602081019050613918565b50505050905090810190601f1680156139605780820380516001836020036101000a031916815260200191505b508381038252602f815260200180615a83602f913960400194505050505060405180910390a17fbb8bdb4915f8d167e1842d9d98aa93bda6850c4aa676fdd74f05c73bcd2ecc3d3382604051808373ffffffffffffffffffffffffffffffffffffffff1673ffffffffffffffffffffffffffffffffffffffff1681526020018060200180602001838103835284818151815260200191508051906020019080838360005b83811015613a1f578082015181840152602081019050613a04565b50505050905090810190601f168015613a4c5780820380516001836020036101000a031916815260200191505b508381038252601e8152602001807f496e73706563746f7220686173206265656e2075706c6f616420646f632e000081525060200194505050505060405180910390a15050565b60008181548110613aa057fe5b9060005260206000209060090201600091509050806000015490806001018054600181600116156101000203166002900480601f016020809104026020016040519081016040528092919081815260200182805460018160011615610100020316600290048015613b525780601f10613b2757610100808354040283529160200191613b52565b820191906000526020600020905b815481529060010190602001808311613b3557829003601f168201915b505050505090806002018054600181600116156101000203166002900480601f016020809104026020016040519081016040528092919081815260200182805460018160011615610100020316600290048015613bf05780601f10613bc557610100808354040283529160200191613bf0565b820191906000526020600020905b815481529060010190602001808311613bd357829003601f168201915b5050505050908060030154908060040154908060050154908060060160009054906101000a900473ffffffffffffffffffffffffffffffffffffffff16908060070160009054906101000a900473ffffffffffffffffffffffffffffffffffffffff16908060080160009054906101000a900473ffffffffffffffffffffffffffffffffffffffff16908060080160149054906101000a900460ff16908060080160159054906101000a900460ff1690508b565b60608160049080519060200190613cbc929190615882565b5060048054600181600116156101000203166002900480601f016020809104026020016040519081016040528092919081815260200182805460018160011615610100020316600290048015613d535780601f10613d2857610100808354040283529160200191613d53565b820191906000526020600020905b815481529060010190602001808311613d3657829003601f168201915b50505050509050919050565b6007602052806000526040600020600091509050806000015490806001018054600181600116156101000203166002900480601f016020809104026020016040519081016040528092919081815260200182805460018160011615610100020316600290048015613e115780601f10613de657610100808354040283529160200191613e11565b820191906000526020600020905b815481529060010190602001808311613df457829003601f168201915b505050505090806002018054600181600116156101000203166002900480601f016020809104026020016040519081016040528092919081815260200182805460018160011615610100020316600290048015613eaf5780601f10613e8457610100808354040283529160200191613eaf565b820191906000526020600020905b815481529060010190602001808311613e9257829003601f168201915b5050505050908060030154908060040154908060050154908060060160009054906101000a900473ffffffffffffffffffffffffffffffffffffffff16908060070160009054906101000a900473ffffffffffffffffffffffffffffffffffffffff16908060080160009054906101000a900473ffffffffffffffffffffffffffffffffffffffff16908060080160149054906101000a900460ff16908060080160159054906101000a900460ff1690508b565b600b6020528060005260406000206000915090508054600181600116156101000203166002900480601f01602080910402602001604051908101604052809291908181526020018280546001816001161561010002031660029004801561400b5780601f10613fe05761010080835404028352916020019161400b565b820191906000526020600020905b815481529060010190602001808311613fee57829003601f168201915b505050505081565b600e816040518082805190602001908083835b602083106140495780518252602082019150602081019050602083039250614026565b6001836020036101000a038019825116818451168082178552505050505050905001915050908152602001604051809103902060000160029054906101000a900460ff16801561410f5750600e816040518082805190602001908083835b602083106140ca57805182526020820191506020810190506020830392506140a7565b6001836020036101000a038019825116818451168082178552505050505050905001915050908152602001604051809103902060000160019054906101000a900460ff165b156142645760046008826040518082805190602001908083835b6020831061414c5780518252602082019150602081019050602083039250614129565b6001836020036101000a0380198251168184511680821785525050505050509050019150509081526020016040518091039020600201819055507ff00e826221cd8f6852113a33f7ead28331697e008f033017d83b0f48e74606118142604051808060200180602001848152602001838103835285818151815260200191508051906020019080838360005b838110156141f35780820151818401526020810190506141d8565b50505050905090810190601f1680156142205780820380516001836020036101000a031916815260200191505b50838103825260148152602001807f43616e207374617274206c6f6164696e672e2e2e00000000000000000000000081525060200194505050505060405180910390a15b50565b3373ffffffffffffffffffffffffffffffffffffffff16600360009054906101000a900473ffffffffffffffffffffffffffffffffffffffff1673ffffffffffffffffffffffffffffffffffffffff161461432a576040517f08c379a00000000000000000000000000000000000000000000000000000000081526004018080602001828103825260208152602001807f4f776e61626c653a2063616c6c6572206973206e6f7420746865206f776e657281525060200191505060405180910390fd5b60011515600f60008373ffffffffffffffffffffffffffffffffffffffff1673ffffffffffffffffffffffffffffffffffffffff16815260200190815260200160002060010160009054906101000a900460ff161515146143f3576040517f08c379a00000000000000000000000000000000000000000000000000000000081526004018080602001828103825260108152602001807f496e76616c6964206964656e746974790000000000000000000000000000000081525060200191505060405180910390fd5b806007600084815260200190815260200160002060080160006101000a81548173ffffffffffffffffffffffffffffffffffffffff021916908373ffffffffffffffffffffffffffffffffffffffff1602179055505050565b6001600d836040518082805190602001908083835b602083106144845780518252602082019150602081019050602083039250614461565b6001836020036101000a038019825116818451168082178552505050505050905001915050908152602001604051809103902060010160006101000a81548160ff0219169083151502179055507fbb8bdb4915f8d167e1842d9d98aa93bda6850c4aa676fdd74f05c73bcd2ecc3d3382604051808373ffffffffffffffffffffffffffffffffffffffff1673ffffffffffffffffffffffffffffffffffffffff1681526020018060200180602001838103835284818151815260200191508051906020019080838360005b8381101561456a57808201518184015260208101905061454f565b50505050905090810190601f1680156145975780820380516001836020036101000a031916815260200191505b50838103825260168152602001807f53686970206f776e6572207369676e656420646f632e0000000000000000000081525060200194505050505060405180910390a15050565b600881805160208101820180518482526020830160208501208183528095505050505050600091509050806000018054600181600116156101000203166002900480601f0160208091040260200160405190810160405280929190818152602001828054600181600116156101000203166002900480156146a05780601f10614675576101008083540402835291602001916146a0565b820191906000526020600020905b81548152906001019060200180831161468357829003601f168201915b5050505050908060010160009054906101000a900473ffffffffffffffffffffffffffffffffffffffff16908060020154908060030154908060040154905085565b600581815481106146ef57fe5b906000526020600020016000915090508054600181600116156101000203166002900480601f0160208091040260200160405190810160405280929190818152602001828054600181600116156101000203166002900480156147935780601f1061476857610100808354040283529160200191614793565b820191906000526020600020905b81548152906001019060200180831161477657829003601f168201915b505050505081565b600f6020528060005260406000206000915090508060000154908060010160009054906101000a900460ff16905082565b600d826040518082805190602001908083835b6020831061480257805182526020820191506020810190506020830392506147df565b6001836020036101000a038019825116818451168082178552505050505050905001915050908152602001604051809103902060010160009054906101000a900460ff1661484f57600080fd5b806008836040518082805190602001908083835b602083106148865780518252602082019150602081019050602083039250614863565b6001836020036101000a0380198251168184511680821785525050505050509050019150509081526020016040518091039020600301819055506040518060c0016040528060011515815260200160001515815260200160001515815260200160001515815260200160001515815260200160001515815250600e836040518082805190602001908083835b602083106149355780518252602082019150602081019050602083039250614912565b6001836020036101000a038019825116818451168082178552505050505050905001915050908152602001604051809103902060008201518160000160006101000a81548160ff02191690831515021790555060208201518160000160016101000a81548160ff02191690831515021790555060408201518160000160026101000a81548160ff02191690831515021790555060608201518160000160036101000a81548160ff02191690831515021790555060808201518160000160046101000a81548160ff02191690831515021790555060a08201518160000160056101000a81548160ff0219169083151502179055509050505050565b60003373ffffffffffffffffffffffffffffffffffffffff16600360009054906101000a900473ffffffffffffffffffffffffffffffffffffffff1673ffffffffffffffffffffffffffffffffffffffff1614614af4576040517f08c379a00000000000000000000000000000000000000000000000000000000081526004018080602001828103825260208152602001807f4f776e61626c653a2063616c6c6572206973206e6f7420746865206f776e657281525060200191505060405180910390fd5b60003342604051602001808373ffffffffffffffffffffffffffffffffffffffff1673ffffffffffffffffffffffffffffffffffffffff1660601b81526014018281526020019250505060405160208183030381529060405280519060200120905080600760008381526020019081526020016000206000018190555085600760008381526020019081526020016000206001019080519060200190614b9b929190615882565b5084600760008381526020019081526020016000206002019080519060200190614bc6929190615882565b5083600760008381526020019081526020016000206003018190555082600760008381526020019081526020016000206004018190555060016007600083815260200190815260200160002060050181905550336007600083815260200190815260200160002060060160006101000a81548173ffffffffffffffffffffffffffffffffffffffff021916908373ffffffffffffffffffffffffffffffffffffffff16021790555060006007600083815260200190815260200160002060080160146101000a81548160ff02191690831515021790555060006007600083815260200190815260200160002060080160156101000a81548160ff021916908315150217905550600060076000838152602001908152602001600020908060018154018082558091505090600182039060005260206000209060090201600090919290919091506000820154816000015560018201816001019080546001816001161561010002031660029004614d3d929190615902565b5060028201816002019080546001816001161561010002031660029004614d65929190615902565b506003820154816003015560048201548160040155600582015481600501556006820160009054906101000a900473ffffffffffffffffffffffffffffffffffffffff168160060160006101000a81548173ffffffffffffffffffffffffffffffffffffffff021916908373ffffffffffffffffffffffffffffffffffffffff1602179055506007820160009054906101000a900473ffffffffffffffffffffffffffffffffffffffff168160070160006101000a81548173ffffffffffffffffffffffffffffffffffffffff021916908373ffffffffffffffffffffffffffffffffffffffff1602179055506008820160009054906101000a900473ffffffffffffffffffffffffffffffffffffffff168160080160006101000a81548173ffffffffffffffffffffffffffffffffffffffff021916908373ffffffffffffffffffffffffffffffffffffffff1602179055506008820160149054906101000a900460ff168160080160146101000a81548160ff0219169083151502179055506008820160159054906101000a900460ff168160080160156101000a81548160ff021916908315150217905550505050600060096000838152602001908152602001600020600101819055506000600a600083815260200190815260200160002060010181905550807f84da1dfa878cde3958dc262481e78ce41b053b31922de36a7b469d8905fb3299426040518080602001838152602001828103825260078152602001807f43726561746564000000000000000000000000000000000000000000000000008152506020019250505060405180910390a260405180604001604052806040518060400160405280601081526020017f496e737572616e636520706f6c6963790000000000000000000000000000000081525081526020016040518060400160405280600e81526020017f447269766572206c6963656e7365000000000000000000000000000000000000815250815250600590600261504e929190615989565b5080915050949350505050565b600e826040518082805190602001908083835b60208310615091578051825260208201915060208101905060208303925061506e565b6001836020036101000a038019825116818451168082178552505050505050905001915050908152602001604051809103902060000160009054906101000a900460ff1680156151585750600e826040518082805190602001908083835b6020831061511257805182526020820191506020810190506020830392506150ef565b6001836020036101000a038019825116818451168082178552505050505050905001915050908152602001604051809103902060000160039054906101000a900460ff16155b156153f15760405160200180807f5368697070657200000000000000000000000000000000000000000000000000815250600701905060405160208183030381529060405280519060200120816040516020018082805190602001908083835b602083106151db57805182526020820191506020810190506020830392506151b8565b6001836020036101000a0380198251168184511680821785525050505050509050019150506040516020818303038152906040528051906020012014156152a6576001600e836040518082805190602001908083835b602083106152545780518252602082019150602081019050602083039250615231565b6001836020036101000a038019825116818451168082178552505050505050905001915050908152602001604051809103902060000160026101000a81548160ff0219169083151502179055506153ec565b60405160200180807f536869704f776e65720000000000000000000000000000000000000000000000815250600901905060405160208183030381529060405280519060200120816040516020018082805190602001908083835b602083106153245780518252602082019150602081019050602083039250615301565b6001836020036101000a0380198251168184511680821785525050505050509050019150506040516020818303038152906040528051906020012014156153eb576001600e836040518082805190602001908083835b6020831061539d578051825260208201915060208101905060208303925061537a565b6001836020036101000a038019825116818451168082178552505050505050905001915050908152602001604051809103902060000160016101000a81548160ff0219169083151502179055505b5b61570a565b600e826040518082805190602001908083835b602083106154275780518252602082019150602081019050602083039250615404565b6001836020036101000a038019825116818451168082178552505050505050905001915050908152602001604051809103902060000160039054906101000a900460ff16156157095760405160200180807f5368697070657200000000000000000000000000000000000000000000000000815250600701905060405160208183030381529060405280519060200120816040516020018082805190602001908083835b602083106154ee57805182526020820191506020810190506020830392506154cb565b6001836020036101000a0380198251168184511680821785525050505050509050019150506040516020818303038152906040528051906020012014156155b9576001600e836040518082805190602001908083835b602083106155675780518252602082019150602081019050602083039250615544565b6001836020036101000a038019825116818451168082178552505050505050905001915050908152602001604051809103902060000160056101000a81548160ff021916908315150217905550615708565b60405160200180807f536869704f776e65720000000000000000000000000000000000000000000000815250600901905060405160208183030381529060405280519060200120816040516020018082805190602001908083835b602083106156375780518252602082019150602081019050602083039250615614565b6001836020036101000a038019825116818451168082178552505050505050905001915050604051602081830303815290604052805190602001201415615702576001600e836040518082805190602001908083835b602083106156b0578051825260208201915060208101905060208303925061568d565b6001836020036101000a038019825116818451168082178552505050505050905001915050908152602001604051809103902060000160046101000a81548160ff021916908315150217905550615707565b600080fd5b5b5b5b5050565b80600660008473ffffffffffffffffffffffffffffffffffffffff1673ffffffffffffffffffffffffffffffffffffffff1681526020019081526020016000209080519060200190615761929190615882565b507f8f80a056e17841cc864870412509e01a65d8443e595e6e118e03f09b42ee6830816040518080602001828103825283818151815260200191508051906020019080838360005b838110156157c45780820151818401526020810190506157a9565b50505050905090810190601f1680156157f15780820380516001836020036101000a031916815260200191505b509250505060405180910390a15050565b828054600181600116156101000203166002900490600052602060002090601f016020900481019282601f1061584357805160ff1916838001178555615871565b82800160010185558215615871579182015b82811115615870578251825591602001919060010190615855565b5b50905061587e91906159e9565b5090565b828054600181600116156101000203166002900490600052602060002090601f016020900481019282601f106158c357805160ff19168380011785556158f1565b828001600101855582156158f1579182015b828111156158f05782518255916020019190600101906158d5565b5b5090506158fe91906159e9565b5090565b828054600181600116156101000203166002900490600052602060002090601f016020900481019282601f1061593b5780548555615978565b8280016001018555821561597857600052602060002091601f016020900482015b8281111561597757825482559160010191906001019061595c565b5b50905061598591906159e9565b5090565b8280548282559060005260206000209081019282156159d8579160200282015b828111156159d75782518290805190602001906159c7929190615802565b50916020019190600101906159a9565b5b5090506159e59190615a0e565b5090565b615a0b91905b80821115615a075760008160009055506001016159ef565b5090565b90565b615a3791905b80821115615a335760008181615a2a9190615a3a565b50600101615a14565b5090565b90565b50805460018160011615610100020316600290046000825580601f10615a605750615a7f565b601f016020900490600052602060002090810190615a7e91906159e9565b5b5056fe436c65616e65642c2077616974696e6720666f722073686970206f776e6572277320636f6e6669726d6174696f6e73a265627a7a72315820e82820b0c37675ed54fdf5cbcd6cbe934aaa28a3822b0f2a6afc1521053cedfa64736f6c63430005100032",
  "source": "pragma solidity ^0.5.16;\n//pragma experimental ABIEncoderV2;\n\ncontract Logistics {\n\tstruct Order {\n        bytes32 orderID;\n        string from;\n        string to;\n        uint freightClass;  //1normal, 2fluid, 3dangerous \n        uint estimate_arrival_time;\n        uint orderStatus; //1Created, 2Comfirmed, 3Processing, 4ended, 5canceled. ShippingStatus similar.\n        address orderOwner;\n        address shipper;\n        address shipOwner;\n        bool bidByShipper;\n        bool bidByShipOwner;\n    }\n\n    struct Ship {\n        string shipID;\n        address shipOwner; \n        uint shipStatus; //AtPort, WaitingCleaning, Cleaned, Loading, Loaded, Unloading, Unloaded\n        uint startWaterDisplacement;\n        uint endWaterDisplacement;\n        //stateHistory[] shipStateHistory;\n    }\n    \n    struct ClearanceRequest {\n        string shipID;\n        address requestor;\n    }\n\n    struct Document {\n        string ipfsHash;\n        bool signedByShipOwner;\n    }\n\n    struct Confirmation {\n        bool startMeasured;\n        bool signedByShipOwnerStart;\n        bool signedByShipperStart;\n        bool endMeasured;\n        bool signedByShipOwnerEnd;\n        bool signedByShipperEnd;\n    }\n    \n    struct Bid {\n        address bidder;\n        uint currentPrice;\n    }\n    \n    struct OrderOwnership {\n        address shipper;\n        address shipOwner;\n    }\n\n    struct Identity {\n        bytes32 uuid;\n        bool confirmed;\n    }\n\n\tOrder[] public orders;\n    Ship[] public ships;\n    ClearanceRequest[] public clearanceRequests;\n    address public owner;\n    string public pubkeyHash;\n    string[] public reqCred;\n\n    mapping(address => string) public roles; //Client, Shipper, Inspector, Gauger, hipOwner\n    mapping(bytes32 => Order) public ordermapping; //orderID to a order struct\n    mapping(string => Ship) public shipmapping;  //shipID to a ship struct\n    mapping(bytes32 => Bid) private shipperBidder; \n    mapping(bytes32 => Bid) private shipOwnerBidder; \n    //mapping(bytes32 => address) public orderToShipOwner;  //place a order to ship company\n    //mapping(bytes32 => address) orderOwnership; //who would take order to ship line\n    mapping(address => string) public shipOwnership; //owner to ship\n    mapping(bytes32 => OrderOwnership) private orderAssignment;\n    mapping(string => Document) public shipClearanceReport;\n    mapping(string => Confirmation) public confirmations;\n    mapping(address => Identity) public shipowneruuid;\n\n    event roleSet(string role);\n    event accessDenied(string role);\n    event UpdateorderStatus(bytes32 indexed orderID, string orderStatus, uint ts);\n    event UpdateshipStatus(string shipID, string shipStatus, uint ts);\n    event UpdateDocStatus(address CreatorOrSigner, string ipfsHash, string role);\n    event bidByOthers(address add, string str);\n    event sendUUID(address indexed shipowner, bytes32 indexed uuid);    //address would be used for assignment \n    //event DocSigned(address from, uint256 docId, uint8 singId, bytes16 signType, bytes sign);\n\n    \n    modifier hasRole(string memory role) {\n    if (keccak256(abi.encodePacked(roles[msg.sender])) != keccak256(abi.encodePacked(role))) {\n      emit accessDenied(role);\n      return;\n    }\n    _;\n  }\n  \n    modifier onlyOwner() {\n        require(owner == msg.sender, \"Ownable: caller is not the owner\");\n        _;\n    }\n\n    constructor () public {\n        owner = msg.sender;\n    }\n\n    function setRole(address addr, string memory role) public {\n        roles[addr] = role;\n        //shipOwners.push(msg.sender);\n        emit roleSet(role);\n    }\n\n    function getRole(address addr) public view returns (string memory) {\n        return roles[addr];\n    }\n    \n    function createOrder (string memory from, string memory to, uint freightClass, uint estimate_arrival_time) public onlyOwner() returns(bytes32) {\n        bytes32 uniqueId = keccak256(abi.encodePacked(msg.sender, now));\n        ordermapping[uniqueId].orderID = uniqueId;\n        ordermapping[uniqueId].from = from;\n        ordermapping[uniqueId].to = to;\n        ordermapping[uniqueId].freightClass = freightClass;\n        ordermapping[uniqueId].estimate_arrival_time = estimate_arrival_time;\n        ordermapping[uniqueId].orderStatus = 1;\n        ordermapping[uniqueId].orderOwner = msg.sender;\n        ordermapping[uniqueId].bidByShipper = false;\n        ordermapping[uniqueId].bidByShipOwner = false;\n        orders.push(ordermapping[uniqueId]);\n        shipperBidder[uniqueId].currentPrice = 0;\n        shipOwnerBidder[uniqueId].currentPrice = 0;\n        emit UpdateorderStatus(uniqueId, 'Created', now);\n        reqCred =['Insurance policy', 'Driver license']; //dangerous goods to be done\n        return uniqueId;\n    }\n    \n    function setpubkeyHash (string memory _pubkeyHash) public returns(string memory){\n        pubkeyHash = _pubkeyHash;\n        return pubkeyHash;\n    }\n    \n    function getpubkeyHash() public view returns(string memory) {\n        return pubkeyHash;\n    }\n    \n    function getReqCredCount() public view returns(uint) {\n        return reqCred.length;\n    }\n\n    function getReqCred(uint i) public view returns(string memory) {\n        //for (uint i=0; i<reqCred.length; i++) {\n            return reqCred[i];\n        //}\n    }\n\n    function bidOrderByShipper(bytes32 orderID, uint price) public {\n        require(ordermapping[orderID].orderStatus == 1);\n        require(price > shipperBidder[orderID].currentPrice, 'price too low');\n        shipperBidder[orderID].bidder = msg.sender;\n        shipperBidder[orderID].currentPrice = price;\n        ordermapping[orderID].bidByShipper = true;\n        emit bidByOthers(msg.sender, 'bid by shipper');\n    }\n\n    function bidOrderByShipOwner(bytes32 orderID, uint price) public {\n        require(ordermapping[orderID].orderStatus == 1);\n        require(price > shipOwnerBidder[orderID].currentPrice, 'price too low');\n        shipOwnerBidder[orderID].bidder = msg.sender;\n        shipOwnerBidder[orderID].currentPrice = price;\n        ordermapping[orderID].bidByShipOwner = true;\n        emit bidByOthers(msg.sender, 'bid by ship');\n    }\n    \n    function confirmOrder(bytes32 uuid) public {\n        shipowneruuid[msg.sender].uuid = uuid;\n        shipowneruuid[msg.sender].confirmed = false;\n        emit sendUUID(msg.sender, uuid);\n    }\n    \n    function confirmAssignment(bytes32 orderID, address shipOwner) public onlyOwner() {\n        require(shipowneruuid[shipOwner].confirmed == true, 'Invalid identity');\n        ordermapping[orderID].shipOwner = shipOwner;\n    }\n\n    function adminOrder(bytes32 orderID) public {\n        require(ordermapping[orderID].orderOwner == msg.sender, 'not creator');\n        require(ordermapping[orderID].bidByShipper && ordermapping[orderID].bidByShipOwner, 'No one bid yet');\n        for(uint i=0; i<orders.length; i++){\n            if (orders[i].orderID == orderID){\n                orders[i].shipper = shipperBidder[orderID].bidder;\n                orders[i].shipOwner = shipOwnerBidder[orderID].bidder;\n                orders[i].orderStatus = 2;    //to processing part\n            }\n        }\n        \n        /*\n        ordermapping[orderID].shipper = shipperBidder[orderID].bidder;\n        ordermapping[orderID].shipOwner = shipOwnerBidder[orderID].bidder;\n        ordermapping[orderID].orderStatus = 2;*/\n    }\n/*\n    function getOrderAssignment(bytes32 orderID) public view returns(address shipper, address shipOwner) {\n        require(ordermapping[orderID].orderOwner == msg.sender);\n        return (orderAssignment[orderID].shipper, orderAssignment[orderID].shipOwner);\n    }*/\n    \n\tfunction getOrderCount() public view returns(uint) {\n\t\treturn orders.length;\n\t}\n\n    function getShipCount() public view returns(uint) {\n\t\treturn ships.length;\n\t}\n\n    function getClearanceRequestsCount() public view returns(uint) {\n        return clearanceRequests.length;\n    }\n/*\n    function AddShip(string memory shipID) public {\n        shipmapping[shipID].shipID = shipID;\n        shipmapping[shipID].shipOwner = msg.sender;\n        shipmapping[shipID].shipStatus = 1;\n        //ships[ships.length].shipStateHistory[0].currentState ='At Port';\n        //ships[ships.length].shipStateHistory[0].currentTs = now;\n        shipOwnership[msg.sender] = shipID;\n        ships.push(shipmapping[shipID]);\n        emit UpdateshipStatus(shipID, 'At port', now);\n    }*/\n/*\n    function ChooseShipOwner(string memory shipID, bytes32 orderID) hasRole('Shipper') public {\n        //orderToShip[orderID] = shipID;\n        // work with a packlist\n        ordermapping[orderID].orderStatus = 3;  //processing\n        \n        for(uint i=0; i<orders.length; i++){\n            if (orders[i].orderID == orderID){\n                orders[i].orderStatus = 3;\n            }\n        }\n        //ordermapping[orderID].orderStateHistory[2].currentState ='Processing in dispatch port';\n        //ordermapping[orderID].orderStateHistory[2].currentTs = now;\n    }*/\n/*\n    function ChooseShipOwner(address shipOwner, bytes32 orderID) hasRole('Shipper') public {\n        orderToShipOwner[orderID] = shipOwner;\n        //generally work with a packlist but now seen as single order\n        ordermapping[orderID].orderStatus = 3;  //processing\n        for(uint i=0; i<orders.length; i++){\n            if (orders[i].orderID == orderID){\n                orders[i].orderStatus = 3;\n            }\n        }\n    }*/\n\n\n\n    function AskForClearance(string memory shipID) public {\n        if (shipmapping[shipID].shipOwner == msg.sender && shipmapping[shipID].shipStatus == 1) {\n            for(uint i=0; i<ships.length; i++){\n                if (keccak256(abi.encodePacked(ships[i].shipID)) == keccak256(abi.encodePacked(shipID))) {\n                    ships[i].shipStatus = 2;    //to processing part\n                }\n            }\n            shipmapping[shipID].shipStatus == 2;\n            clearanceRequests.push(ClearanceRequest(shipID, msg.sender));\n            emit UpdateshipStatus(shipID, 'Waiting for clearance inspection', now);\n        } \n    }\n\n    function UploadClearanceReport(string memory shipID, string memory ipfsHash) public {\n        //bytes32 uniqueId = keccak256(abi.encodePacked(msg.sender, now));\n        //signedDocs[msg.sender].push(ipfsHash); //Add document to users's \"signed\" list\n        //docmapping[uniqueId] = Document(ipfsHash, msg.sender, shipID, now);\n        shipClearanceReport[shipID] = Document(ipfsHash, false);\n        shipmapping[shipID].shipStatus = 3; //cleaned\n        emit UpdateshipStatus(shipID, 'Cleaned, waiting for ship owner\\'s confirmations', now);\n        emit UpdateDocStatus(msg.sender, ipfsHash, 'Inspector has been upload doc.');\n    }\n\n    function SignClearanceReport(string memory shipID, string memory ipfsHash) public { //shipper and shipOwner would sign Report\n        shipClearanceReport[shipID].signedByShipOwner = true;\n        emit UpdateDocStatus(msg.sender, ipfsHash, 'Ship owner signed doc.');\n    }\n    \n    function StartWaterDisplacement(string memory shipID, uint measure) public {\n        require(shipClearanceReport[shipID].signedByShipOwner);\n        shipmapping[shipID].startWaterDisplacement = measure;\n        confirmations[shipID] = Confirmation(true, false, false, false, false, false);\n    }\n    \n    function EnableLoad(string memory shipID) public {\n        if (confirmations[shipID].signedByShipperStart && confirmations[shipID].signedByShipOwnerStart) {\n            shipmapping[shipID].shipStatus = 4; //enable Loading\n            emit UpdateshipStatus(shipID, 'Can start loading...', now);\n        }\n    }\n    \n    function EndWaterDisplacement(string memory shipID, uint measure) public {\n        require(confirmations[shipID].startMeasured && confirmations[shipID].signedByShipperStart && confirmations[shipID].signedByShipperStart);\n        shipmapping[shipID].endWaterDisplacement = measure;\n        confirmations[shipID].endMeasured = true;\n    }\n    \n    function SignConfirmation(string memory shipID, string memory role) public {\n        if (confirmations[shipID].startMeasured && !confirmations[shipID].endMeasured) {\n            if (keccak256(abi.encodePacked(role)) == keccak256(abi.encodePacked('Shipper'))) {\n                confirmations[shipID].signedByShipperStart = true;\n            }\n            else if (keccak256(abi.encodePacked(role)) == keccak256(abi.encodePacked('ShipOwner'))) {\n                confirmations[shipID].signedByShipOwnerStart = true;\n            }\n        } \n        else if (confirmations[shipID].endMeasured) {\n            if (keccak256(abi.encodePacked(role)) == keccak256(abi.encodePacked('Shipper'))) {\n                confirmations[shipID].signedByShipperEnd = true;\n            }\n            else if (keccak256(abi.encodePacked(role)) == keccak256(abi.encodePacked('ShipOwner'))) {\n                confirmations[shipID].signedByShipOwnerEnd = true;\n            }\n        else revert();\n        }\n    }\n\n    function LoadGoods(string memory shipID) hasRole('Shipper') public {\n        require(shipmapping[shipID].shipStatus == 4);\n        shipmapping[shipID].shipStatus = 5; //Finish loading\n        emit UpdateshipStatus(shipID, 'All goods has been loaded', now);\n    }\n    \n}\n\n\n/*\n    function ApproveClearanceReport(bytes32 orderID, bytes memory docID, bytes memory signature) hasRole('ShipOwner') public\n    {\n        bytes32 message = keccak256(abi.encodePacked(msg.sender, docID, this));\n        require(recoverSigner(message, signature) == msg.sender);\n        emit UpdateshipStatus(orderID, 'Approve Clearance Report');\n    }\n    \n    function recoverSigner(bytes32 message, bytes memory sig)\n    internal\n    pure\n    returns (address)\n    {\n        (uint8 v, bytes32 r, bytes32 s) = splitSignature(sig);\n\n        return ecrecover(message, v, r, s);\n    }\n\n    /// signature methods.\n    function splitSignature(bytes memory sig)\n    internal\n    pure\n        returns (uint8 v, bytes32 r, bytes32 s)\n    {\n        require(sig.length == 65);\n\n        assembly {\n            // first 32 bytes, after the length prefix.\n            r := mload(add(sig, 32))\n            // second 32 bytes.\n            s := mload(add(sig, 64))\n            // final byte (first byte of the next 32 bytes).\n            v := byte(0, mload(add(sig, 96)))\n        }\n        return (v, r, s);\n    }\n*/\n\n",
  "sourcePath": "/Users/yangqingqing/Documents/ReactDemo/IdM/contracts/Logistics.sol",
  "compiler": {
    "name": "solc",
    "version": "0.5.16+commit.9c3226ce.Emscripten.clang"
  },
  "schemaVersion": "3.3.4",
  "updatedAt": "2021-05-04T13:02:05.718Z",
  "networkType": "ethereum",
  "devdoc": {
    "methods": {}
  },
  "userdoc": {
    "methods": {}
  }
}