{
  "contractName": "Logistics",
  "abi": [
    {
      "anonymous": false,
      "inputs": [
        {
          "indexed": false,
          "internalType": "address",
          "name": "docCreator",
          "type": "address"
        },
        {
          "indexed": false,
          "internalType": "uint256",
          "name": "docID",
          "type": "uint256"
        }
      ],
      "name": "DocCreated",
      "type": "event"
    },
    {
      "anonymous": false,
      "inputs": [
        {
          "indexed": false,
          "internalType": "address",
          "name": "from",
          "type": "address"
        },
        {
          "indexed": false,
          "internalType": "uint256",
          "name": "docId",
          "type": "uint256"
        },
        {
          "indexed": false,
          "internalType": "uint8",
          "name": "singId",
          "type": "uint8"
        },
        {
          "indexed": false,
          "internalType": "bytes16",
          "name": "signType",
          "type": "bytes16"
        },
        {
          "indexed": false,
          "internalType": "bytes",
          "name": "sign",
          "type": "bytes"
        }
      ],
      "name": "DocSigned",
      "type": "event"
    },
    {
      "anonymous": false,
      "inputs": [
        {
          "indexed": false,
          "internalType": "bytes32",
          "name": "orderID",
          "type": "bytes32"
        },
        {
          "indexed": false,
          "internalType": "string",
          "name": "orderStatus",
          "type": "string"
        },
        {
          "indexed": false,
          "internalType": "uint256",
          "name": "ts",
          "type": "uint256"
        }
      ],
      "name": "UpdateorderStatus",
      "type": "event"
    },
    {
      "anonymous": false,
      "inputs": [
        {
          "indexed": false,
          "internalType": "bytes32",
          "name": "shipID",
          "type": "bytes32"
        },
        {
          "indexed": false,
          "internalType": "string",
          "name": "shipStatus",
          "type": "string"
        },
        {
          "indexed": false,
          "internalType": "uint256",
          "name": "ts",
          "type": "uint256"
        }
      ],
      "name": "UpdateshipStatus",
      "type": "event"
    },
    {
      "anonymous": false,
      "inputs": [
        {
          "indexed": false,
          "internalType": "string",
          "name": "role",
          "type": "string"
        }
      ],
      "name": "accessDenied",
      "type": "event"
    },
    {
      "anonymous": false,
      "inputs": [
        {
          "indexed": false,
          "internalType": "string",
          "name": "role",
          "type": "string"
        }
      ],
      "name": "roleSet",
      "type": "event"
    },
    {
      "constant": true,
      "inputs": [
        {
          "internalType": "bytes32",
          "name": "",
          "type": "bytes32"
        }
      ],
      "name": "docmapping",
      "outputs": [
        {
          "internalType": "bytes",
          "name": "ipfsHash",
          "type": "bytes"
        },
        {
          "internalType": "address",
          "name": "signature",
          "type": "address"
        },
        {
          "internalType": "bytes32",
          "name": "shipID",
          "type": "bytes32"
        },
        {
          "internalType": "uint256",
          "name": "timestamp",
          "type": "uint256"
        }
      ],
      "payable": false,
      "stateMutability": "view",
      "type": "function"
    },
    {
      "constant": true,
      "inputs": [
        {
          "internalType": "bytes32",
          "name": "",
          "type": "bytes32"
        }
      ],
      "name": "ordermapping",
      "outputs": [
        {
          "internalType": "bytes32",
          "name": "orderID",
          "type": "bytes32"
        },
        {
          "internalType": "string",
          "name": "from",
          "type": "string"
        },
        {
          "internalType": "string",
          "name": "to",
          "type": "string"
        },
        {
          "internalType": "uint256",
          "name": "freightClass",
          "type": "uint256"
        },
        {
          "internalType": "uint256",
          "name": "estimate_arrival_time",
          "type": "uint256"
        },
        {
          "internalType": "address",
          "name": "orderOwner",
          "type": "address"
        },
        {
          "internalType": "uint256",
          "name": "orderStatus",
          "type": "uint256"
        },
        {
          "internalType": "address",
          "name": "shipper",
          "type": "address"
        },
        {
          "internalType": "uint256",
          "name": "EvaluateCost",
          "type": "uint256"
        },
        {
          "internalType": "uint256",
          "name": "FinalCost",
          "type": "uint256"
        }
      ],
      "payable": false,
      "stateMutability": "view",
      "type": "function"
    },
    {
      "constant": true,
      "inputs": [
        {
          "internalType": "uint256",
          "name": "",
          "type": "uint256"
        }
      ],
      "name": "orders",
      "outputs": [
        {
          "internalType": "bytes32",
          "name": "orderID",
          "type": "bytes32"
        },
        {
          "internalType": "string",
          "name": "from",
          "type": "string"
        },
        {
          "internalType": "string",
          "name": "to",
          "type": "string"
        },
        {
          "internalType": "uint256",
          "name": "freightClass",
          "type": "uint256"
        },
        {
          "internalType": "uint256",
          "name": "estimate_arrival_time",
          "type": "uint256"
        },
        {
          "internalType": "address",
          "name": "orderOwner",
          "type": "address"
        },
        {
          "internalType": "uint256",
          "name": "orderStatus",
          "type": "uint256"
        },
        {
          "internalType": "address",
          "name": "shipper",
          "type": "address"
        },
        {
          "internalType": "uint256",
          "name": "EvaluateCost",
          "type": "uint256"
        },
        {
          "internalType": "uint256",
          "name": "FinalCost",
          "type": "uint256"
        }
      ],
      "payable": false,
      "stateMutability": "view",
      "type": "function"
    },
    {
      "constant": true,
      "inputs": [
        {
          "internalType": "bytes32",
          "name": "",
          "type": "bytes32"
        }
      ],
      "name": "shipmapping",
      "outputs": [
        {
          "internalType": "bytes32",
          "name": "shipID",
          "type": "bytes32"
        },
        {
          "internalType": "address",
          "name": "shipOwner",
          "type": "address"
        },
        {
          "internalType": "uint256",
          "name": "shipStatus",
          "type": "uint256"
        },
        {
          "internalType": "uint256",
          "name": "startWaterDisplacement",
          "type": "uint256"
        },
        {
          "internalType": "uint256",
          "name": "endWaterDisplacement",
          "type": "uint256"
        }
      ],
      "payable": false,
      "stateMutability": "view",
      "type": "function"
    },
    {
      "constant": true,
      "inputs": [
        {
          "internalType": "uint256",
          "name": "",
          "type": "uint256"
        }
      ],
      "name": "ships",
      "outputs": [
        {
          "internalType": "bytes32",
          "name": "shipID",
          "type": "bytes32"
        },
        {
          "internalType": "address",
          "name": "shipOwner",
          "type": "address"
        },
        {
          "internalType": "uint256",
          "name": "shipStatus",
          "type": "uint256"
        },
        {
          "internalType": "uint256",
          "name": "startWaterDisplacement",
          "type": "uint256"
        },
        {
          "internalType": "uint256",
          "name": "endWaterDisplacement",
          "type": "uint256"
        }
      ],
      "payable": false,
      "stateMutability": "view",
      "type": "function"
    },
    {
      "constant": true,
      "inputs": [
        {
          "internalType": "address",
          "name": "",
          "type": "address"
        },
        {
          "internalType": "uint256",
          "name": "",
          "type": "uint256"
        }
      ],
      "name": "signedDocs",
      "outputs": [
        {
          "internalType": "bytes",
          "name": "",
          "type": "bytes"
        }
      ],
      "payable": false,
      "stateMutability": "view",
      "type": "function"
    },
    {
      "constant": false,
      "inputs": [
        {
          "internalType": "address",
          "name": "addr",
          "type": "address"
        },
        {
          "internalType": "string",
          "name": "role",
          "type": "string"
        }
      ],
      "name": "setRole",
      "outputs": [],
      "payable": false,
      "stateMutability": "nonpayable",
      "type": "function"
    },
    {
      "constant": true,
      "inputs": [
        {
          "internalType": "address",
          "name": "addr",
          "type": "address"
        }
      ],
      "name": "getRole",
      "outputs": [
        {
          "internalType": "string",
          "name": "",
          "type": "string"
        }
      ],
      "payable": false,
      "stateMutability": "view",
      "type": "function"
    },
    {
      "constant": false,
      "inputs": [
        {
          "internalType": "string",
          "name": "from",
          "type": "string"
        },
        {
          "internalType": "string",
          "name": "to",
          "type": "string"
        },
        {
          "internalType": "uint256",
          "name": "freightClass",
          "type": "uint256"
        },
        {
          "internalType": "uint256",
          "name": "estimate_arrival_time",
          "type": "uint256"
        }
      ],
      "name": "createOrder",
      "outputs": [
        {
          "internalType": "bytes32",
          "name": "",
          "type": "bytes32"
        }
      ],
      "payable": false,
      "stateMutability": "nonpayable",
      "type": "function"
    },
    {
      "constant": false,
      "inputs": [
        {
          "internalType": "bytes32",
          "name": "orderID",
          "type": "bytes32"
        }
      ],
      "name": "confirmOrder",
      "outputs": [],
      "payable": false,
      "stateMutability": "nonpayable",
      "type": "function"
    },
    {
      "constant": true,
      "inputs": [],
      "name": "getOrderCount",
      "outputs": [
        {
          "internalType": "uint256",
          "name": "",
          "type": "uint256"
        }
      ],
      "payable": false,
      "stateMutability": "view",
      "type": "function"
    },
    {
      "constant": false,
      "inputs": [
        {
          "internalType": "address",
          "name": "addr",
          "type": "address"
        }
      ],
      "name": "AddShip",
      "outputs": [],
      "payable": false,
      "stateMutability": "nonpayable",
      "type": "function"
    },
    {
      "constant": false,
      "inputs": [
        {
          "internalType": "bytes32",
          "name": "shipID",
          "type": "bytes32"
        },
        {
          "internalType": "bytes32",
          "name": "orderID",
          "type": "bytes32"
        }
      ],
      "name": "AddOrderToShip",
      "outputs": [],
      "payable": false,
      "stateMutability": "nonpayable",
      "type": "function"
    },
    {
      "constant": false,
      "inputs": [
        {
          "internalType": "bytes32",
          "name": "shipID",
          "type": "bytes32"
        }
      ],
      "name": "AskForClearance",
      "outputs": [],
      "payable": false,
      "stateMutability": "nonpayable",
      "type": "function"
    },
    {
      "constant": false,
      "inputs": [
        {
          "internalType": "bytes32",
          "name": "shipID",
          "type": "bytes32"
        },
        {
          "internalType": "bytes",
          "name": "ipfsHash",
          "type": "bytes"
        }
      ],
      "name": "ShipClearance",
      "outputs": [],
      "payable": false,
      "stateMutability": "nonpayable",
      "type": "function"
    },
    {
      "constant": false,
      "inputs": [
        {
          "internalType": "bytes32",
          "name": "shipID",
          "type": "bytes32"
        },
        {
          "internalType": "bytes",
          "name": "ipfsHash",
          "type": "bytes"
        }
      ],
      "name": "UploadClearanceReport",
      "outputs": [
        {
          "internalType": "bool",
          "name": "",
          "type": "bool"
        }
      ],
      "payable": false,
      "stateMutability": "nonpayable",
      "type": "function"
    },
    {
      "constant": false,
      "inputs": [
        {
          "internalType": "bytes",
          "name": "ipfsHash",
          "type": "bytes"
        }
      ],
      "name": "SignClearanceReport",
      "outputs": [],
      "payable": false,
      "stateMutability": "nonpayable",
      "type": "function"
    }
  ],
  "bytecode": "0x60806040526000600255600060035534801561001a57600080fd5b506132a18061002a6000396000f3fe608060405234801561001057600080fd5b506004361061010b5760003560e01c8063579f95fc116100a2578063a85c38ef11610071578063a85c38ef146107ab578063c02ee8e01461094e578063c9c7854114610af1578063f3638fb414610b29578063f832309b14610ca35761010b565b8063579f95fc1461060e57806362bf368f146106d5578063787f6872146107035780638d0a5fbb1461078d5761010b565b80633eb2b889116100de5780633eb2b889146103de57806344276733146104995780634d4e8dfa1461055657806350d18b70146105e05761010b565b806308c15054146101105780630d4b3b21146101d55780631e5feef3146102bd5780633c54b3be1461039a575b600080fd5b6101d36004803603604081101561012657600080fd5b81019080803590602001909291908035906020019064010000000081111561014d57600080fd5b82018360208201111561015f57600080fd5b8035906020019184600183028401116401000000008311171561018157600080fd5b91908080601f016020809104026020016040519081016040528093929190818152602001838380828437600081840152601f19601f820116905080830192505050505050509192919290505050610d7e565b005b610201600480360360208110156101eb57600080fd5b81019080803590602001909291905050506110b6565b60405180806020018573ffffffffffffffffffffffffffffffffffffffff1673ffffffffffffffffffffffffffffffffffffffff168152602001848152602001838152602001828103825286818151815260200191508051906020019080838360005b8381101561027f578082015181840152602081019050610264565b50505050905090810190601f1680156102ac5780820380516001836020036101000a031916815260200191505b509550505050505060405180910390f35b610380600480360360408110156102d357600080fd5b8101908080359060200190929190803590602001906401000000008111156102fa57600080fd5b82018360208201111561030c57600080fd5b8035906020019184600183028401116401000000008311171561032e57600080fd5b91908080601f016020809104026020016040519081016040528093929190818152602001838380828437600081840152601f19601f82011690508083019250505050505050919291929050505061119e565b604051808215151515815260200191505060405180910390f35b6103dc600480360360208110156103b057600080fd5b81019080803573ffffffffffffffffffffffffffffffffffffffff169060200190929190505050611556565b005b610497600480360360208110156103f457600080fd5b810190808035906020019064010000000081111561041157600080fd5b82018360208201111561042357600080fd5b8035906020019184600183028401116401000000008311171561044557600080fd5b91908080601f016020809104026020016040519081016040528093929190818152602001838380828437600081840152601f19601f82011690508083019250505050505050919291929050505061196f565b005b6104db600480360360208110156104af57600080fd5b81019080803573ffffffffffffffffffffffffffffffffffffffff1690602001909291905050506119ee565b6040518080602001828103825283818151815260200191508051906020019080838360005b8381101561051b578082015181840152602081019050610500565b50505050905090810190601f1680156105485780820380516001836020036101000a031916815260200191505b509250505060405180910390f35b6105826004803603602081101561056c57600080fd5b8101908080359060200190929190505050611acf565b604051808681526020018573ffffffffffffffffffffffffffffffffffffffff1673ffffffffffffffffffffffffffffffffffffffff1681526020018481526020018381526020018281526020019550505050505060405180910390f35b61060c600480360360208110156105f657600080fd5b8101908080359060200190929190505050611b32565b005b61065a6004803603604081101561062457600080fd5b81019080803573ffffffffffffffffffffffffffffffffffffffff16906020019092919080359060200190929190505050611f12565b6040518080602001828103825283818151815260200191508051906020019080838360005b8381101561069a57808201518184015260208101905061067f565b50505050905090810190601f1680156106c75780820380516001836020036101000a031916815260200191505b509250505060405180910390f35b610701600480360360208110156106eb57600080fd5b8101908080359060200190929190505050611fd8565b005b61072f6004803603602081101561071957600080fd5b8101908080359060200190929190505050612304565b604051808681526020018573ffffffffffffffffffffffffffffffffffffffff1673ffffffffffffffffffffffffffffffffffffffff1681526020018481526020018381526020018281526020019550505050505060405180910390f35b61079561235a565b6040518082815260200191505060405180910390f35b6107d7600480360360208110156107c157600080fd5b8101908080359060200190929190505050612366565b604051808b815260200180602001806020018a81526020018981526020018873ffffffffffffffffffffffffffffffffffffffff1673ffffffffffffffffffffffffffffffffffffffff1681526020018781526020018673ffffffffffffffffffffffffffffffffffffffff1673ffffffffffffffffffffffffffffffffffffffff16815260200185815260200184815260200183810383528c818151815260200191508051906020019080838360005b838110156108a3578082015181840152602081019050610888565b50505050905090810190601f1680156108d05780820380516001836020036101000a031916815260200191505b5083810382528b818151815260200191508051906020019080838360005b838110156109095780820151818401526020810190506108ee565b50505050905090810190601f1680156109365780820380516001836020036101000a031916815260200191505b509c5050505050505050505050505060405180910390f35b61097a6004803603602081101561096457600080fd5b8101908080359060200190929190505050612537565b604051808b815260200180602001806020018a81526020018981526020018873ffffffffffffffffffffffffffffffffffffffff1673ffffffffffffffffffffffffffffffffffffffff1681526020018781526020018673ffffffffffffffffffffffffffffffffffffffff1673ffffffffffffffffffffffffffffffffffffffff16815260200185815260200184815260200183810383528c818151815260200191508051906020019080838360005b83811015610a46578082015181840152602081019050610a2b565b50505050905090810190601f168015610a735780820380516001836020036101000a031916815260200191505b5083810382528b818151815260200191508051906020019080838360005b83811015610aac578082015181840152602081019050610a91565b50505050905090810190601f168015610ad95780820380516001836020036101000a031916815260200191505b509c5050505050505050505050505060405180910390f35b610b2760048036036040811015610b0757600080fd5b8101908080359060200190929190803590602001909291905050506126fb565b005b610c8d60048036036080811015610b3f57600080fd5b8101908080359060200190640100000000811115610b5c57600080fd5b820183602082011115610b6e57600080fd5b80359060200191846001830284011164010000000083111715610b9057600080fd5b91908080601f016020809104026020016040519081016040528093929190818152602001838380828437600081840152601f19601f82011690508083019250505050505050919291929080359060200190640100000000811115610bf357600080fd5b820183602082011115610c0557600080fd5b80359060200191846001830284011164010000000083111715610c2757600080fd5b91908080601f016020809104026020016040519081016040528093929190818152602001838380828437600081840152601f19601f82011690508083019250505050505050919291929080359060200190929190803590602001909291905050506129a7565b6040518082815260200191505060405180910390f35b610d7c60048036036040811015610cb957600080fd5b81019080803573ffffffffffffffffffffffffffffffffffffffff16906020019092919080359060200190640100000000811115610cf657600080fd5b820183602082011115610d0857600080fd5b80359060200191846001830284011164010000000083111715610d2a57600080fd5b91908080601f016020809104026020016040519081016040528093929190818152602001838380828437600081840152601f19601f820116905080830192505050505050509192919290505050612f4c565b005b6040518060400160405280600981526020017f496e73706563746f720000000000000000000000000000000000000000000000815250806040516020018082805190602001908083835b60208310610deb5780518252602082019150602081019050602083039250610dc8565b6001836020036101000a03801982511681845116808217855250505050505090500191505060405160208183030381529060405280519060200120600460003373ffffffffffffffffffffffffffffffffffffffff1673ffffffffffffffffffffffffffffffffffffffff1681526020019081526020016000206040516020018082805460018160011615610100020316600290048015610ec35780601f10610ea1576101008083540402835291820191610ec3565b820191906000526020600020905b815481529060010190602001808311610eaf575b50509150506040516020818303038152906040528051906020012014610f84577f5312dd75a9e6f37671bad29eb304dc8e362eae39c59e984fed296a410eccc22d816040518080602001828103825283818151815260200191508051906020019080838360005b83811015610f45578082015181840152602081019050610f2a565b50505050905090810190601f168015610f725780820380516001836020036101000a031916815260200191505b509250505060405180910390a16110b1565b3373ffffffffffffffffffffffffffffffffffffffff166006600085815260200190815260200160002060010160009054906101000a900473ffffffffffffffffffffffffffffffffffffffff1673ffffffffffffffffffffffffffffffffffffffff1614801561100b575060026006600085815260200190815260200160002060020154145b156110b05761101a838361119e565b50600360066000858152602001908152602001600020600201819055507f6a9904b6794e89263f223fe2b15afbf17e605131e1e343c9e695eee91929b33e83426040518083815260200180602001838152602001828103825260098152602001807f496e737065637465640000000000000000000000000000000000000000000000815250602001935050505060405180910390a15b5b505050565b600c602052806000526040600020600091509050806000018054600181600116156101000203166002900480601f0160208091040260200160405190810160405280929190818152602001828054600181600116156101000203166002900480156111625780601f1061113757610100808354040283529160200191611162565b820191906000526020600020905b81548152906001019060200180831161114557829003601f168201915b5050505050908060010160009054906101000a900473ffffffffffffffffffffffffffffffffffffffff16908060020154908060030154905084565b60006040518060400160405280600981526020017f496e73706563746f720000000000000000000000000000000000000000000000815250806040516020018082805190602001908083835b6020831061120d57805182526020820191506020810190506020830392506111ea565b6001836020036101000a03801982511681845116808217855250505050505090500191505060405160208183030381529060405280519060200120600460003373ffffffffffffffffffffffffffffffffffffffff1673ffffffffffffffffffffffffffffffffffffffff16815260200190815260200160002060405160200180828054600181600116156101000203166002900480156112e55780601f106112c35761010080835404028352918201916112e5565b820191906000526020600020905b8154815290600101906020018083116112d1575b505091505060405160208183030381529060405280519060200120146113a6577f5312dd75a9e6f37671bad29eb304dc8e362eae39c59e984fed296a410eccc22d816040518080602001828103825283818151815260200191508051906020019080838360005b8381101561136757808201518184015260208101905061134c565b50505050905090810190601f1680156113945780820380516001836020036101000a031916815260200191505b509250505060405180910390a161154f565b60003342604051602001808373ffffffffffffffffffffffffffffffffffffffff1673ffffffffffffffffffffffffffffffffffffffff1660601b815260140182815260200192505050604051602081830303815290604052805190602001209050600b60003373ffffffffffffffffffffffffffffffffffffffff1673ffffffffffffffffffffffffffffffffffffffff168152602001908152602001600020849080600181540180825580915050906001820390600052602060002001600090919290919091509080519060200190611482929190613040565b505060405180608001604052808581526020013373ffffffffffffffffffffffffffffffffffffffff16815260200186815260200142815250600c600083815260200190815260200160002060008201518160000190805190602001906114ea9291906130c0565b5060208201518160010160006101000a81548173ffffffffffffffffffffffffffffffffffffffff021916908373ffffffffffffffffffffffffffffffffffffffff160217905550604082015181600201556060820151816003015590505060019250505b5092915050565b6040518060400160405280600781526020017f5368697070657200000000000000000000000000000000000000000000000000815250806040516020018082805190602001908083835b602083106115c357805182526020820191506020810190506020830392506115a0565b6001836020036101000a03801982511681845116808217855250505050505090500191505060405160208183030381529060405280519060200120600460003373ffffffffffffffffffffffffffffffffffffffff1673ffffffffffffffffffffffffffffffffffffffff168152602001908152602001600020604051602001808280546001816001161561010002031660029004801561169b5780601f1061167957610100808354040283529182019161169b565b820191906000526020600020905b815481529060010190602001808311611687575b5050915050604051602081830303815290604052805190602001201461175c577f5312dd75a9e6f37671bad29eb304dc8e362eae39c59e984fed296a410eccc22d816040518080602001828103825283818151815260200191508051906020019080838360005b8381101561171d578082015181840152602081019050611702565b50505050905090810190601f16801561174a5780820380516001836020036101000a031916815260200191505b509250505060405180910390a161196b565b3373ffffffffffffffffffffffffffffffffffffffff168273ffffffffffffffffffffffffffffffffffffffff161461179457600080fd5b60003342604051602001808373ffffffffffffffffffffffffffffffffffffffff1673ffffffffffffffffffffffffffffffffffffffff1660601b815260140182815260200192505050604051602081830303815290604052805190602001209050600060019050816006600084815260200190815260200160002060000181905550336006600084815260200190815260200160002060010160006101000a81548173ffffffffffffffffffffffffffffffffffffffff021916908373ffffffffffffffffffffffffffffffffffffffff160217905550806006600084815260200190815260200160002060020181905550600a60003373ffffffffffffffffffffffffffffffffffffffff1673ffffffffffffffffffffffffffffffffffffffff1681526020019081526020016000208290806001815401808255809150509060018203906000526020600020016000909192909190915055507f6a9904b6794e89263f223fe2b15afbf17e605131e1e343c9e695eee91929b33e82426040518083815260200180602001838152602001828103825260078152602001807f417420706f727400000000000000000000000000000000000000000000000000815250602001935050505060405180910390a150505b5050565b600b60003373ffffffffffffffffffffffffffffffffffffffff1673ffffffffffffffffffffffffffffffffffffffff1681526020019081526020016000208190806001815401808255809150509060018203906000526020600020016000909192909190915090805190602001906119e9929190613040565b505050565b6060600460008373ffffffffffffffffffffffffffffffffffffffff1673ffffffffffffffffffffffffffffffffffffffff1681526020019081526020016000208054600181600116156101000203166002900480601f016020809104026020016040519081016040528092919081815260200182805460018160011615610100020316600290048015611ac35780601f10611a9857610100808354040283529160200191611ac3565b820191906000526020600020905b815481529060010190602001808311611aa657829003601f168201915b50505050509050919050565b60018181548110611adc57fe5b90600052602060002090600502016000915090508060000154908060010160009054906101000a900473ffffffffffffffffffffffffffffffffffffffff16908060020154908060030154908060040154905085565b6040518060400160405280600781526020017f5368697070657200000000000000000000000000000000000000000000000000815250806040516020018082805190602001908083835b60208310611b9f5780518252602082019150602081019050602083039250611b7c565b6001836020036101000a03801982511681845116808217855250505050505090500191505060405160208183030381529060405280519060200120600460003373ffffffffffffffffffffffffffffffffffffffff1673ffffffffffffffffffffffffffffffffffffffff1681526020019081526020016000206040516020018082805460018160011615610100020316600290048015611c775780601f10611c55576101008083540402835291820191611c77565b820191906000526020600020905b815481529060010190602001808311611c63575b50509150506040516020818303038152906040528051906020012014611d38577f5312dd75a9e6f37671bad29eb304dc8e362eae39c59e984fed296a410eccc22d816040518080602001828103825283818151815260200191508051906020019080838360005b83811015611cf9578082015181840152602081019050611cde565b50505050905090810190601f168015611d265780820380516001836020036101000a031916815260200191505b509250505060405180910390a1611f0e565b6001600560008481526020019081526020016000206006015414611d5b57600080fd5b336005600084815260200190815260200160002060070160006101000a81548173ffffffffffffffffffffffffffffffffffffffff021916908373ffffffffffffffffffffffffffffffffffffffff1602179055506002600560008481526020019081526020016000206006018190555060008090505b600080549050811015611e94578260008281548110611ded57fe5b90600052602060002090600a0201600001541415611e87573360008281548110611e1357fe5b90600052602060002090600a020160070160006101000a81548173ffffffffffffffffffffffffffffffffffffffff021916908373ffffffffffffffffffffffffffffffffffffffff160217905550600260008281548110611e7157fe5b90600052602060002090600a0201600601819055505b8080600101915050611dd2565b507f84da1dfa878cde3958dc262481e78ce41b053b31922de36a7b469d8905fb329982426040518083815260200180602001838152602001828103825260098152602001807f436f6e6669726d65640000000000000000000000000000000000000000000000815250602001935050505060405180910390a15b5050565b600b6020528160005260406000208181548110611f2b57fe5b90600052602060002001600091509150508054600181600116156101000203166002900480601f016020809104026020016040519081016040528092919081815260200182805460018160011615610100020316600290048015611fd05780601f10611fa557610100808354040283529160200191611fd0565b820191906000526020600020905b815481529060010190602001808311611fb357829003601f168201915b505050505081565b6040518060400160405280600781526020017f5368697070657200000000000000000000000000000000000000000000000000815250806040516020018082805190602001908083835b602083106120455780518252602082019150602081019050602083039250612022565b6001836020036101000a03801982511681845116808217855250505050505090500191505060405160208183030381529060405280519060200120600460003373ffffffffffffffffffffffffffffffffffffffff1673ffffffffffffffffffffffffffffffffffffffff168152602001908152602001600020604051602001808280546001816001161561010002031660029004801561211d5780601f106120fb57610100808354040283529182019161211d565b820191906000526020600020905b815481529060010190602001808311612109575b505091505060405160208183030381529060405280519060200120146121de577f5312dd75a9e6f37671bad29eb304dc8e362eae39c59e984fed296a410eccc22d816040518080602001828103825283818151815260200191508051906020019080838360005b8381101561219f578082015181840152602081019050612184565b50505050905090810190601f1680156121cc5780820380516001836020036101000a031916815260200191505b509250505060405180910390a1612300565b3373ffffffffffffffffffffffffffffffffffffffff166006600084815260200190815260200160002060010160009054906101000a900473ffffffffffffffffffffffffffffffffffffffff1673ffffffffffffffffffffffffffffffffffffffff16148015612265575060016006600084815260200190815260200160002060020154145b156122ff57600260066000848152602001908152602001600020600201819055507f6a9904b6794e89263f223fe2b15afbf17e605131e1e343c9e695eee91929b33e82426040518083815260200180602001838152602001828103825260208152602001807f57616974696e6720666f7220636c656172616e636520696e7370656374696f6e815250602001935050505060405180910390a15b5b5050565b60066020528060005260406000206000915090508060000154908060010160009054906101000a900473ffffffffffffffffffffffffffffffffffffffff16908060020154908060030154908060040154905085565b60008080549050905090565b6000818154811061237357fe5b90600052602060002090600a0201600091509050806000015490806001018054600181600116156101000203166002900480601f0160208091040260200160405190810160405280929190818152602001828054600181600116156101000203166002900480156124255780601f106123fa57610100808354040283529160200191612425565b820191906000526020600020905b81548152906001019060200180831161240857829003601f168201915b505050505090806002018054600181600116156101000203166002900480601f0160208091040260200160405190810160405280929190818152602001828054600181600116156101000203166002900480156124c35780601f10612498576101008083540402835291602001916124c3565b820191906000526020600020905b8154815290600101906020018083116124a657829003601f168201915b5050505050908060030154908060040154908060050160009054906101000a900473ffffffffffffffffffffffffffffffffffffffff16908060060154908060070160009054906101000a900473ffffffffffffffffffffffffffffffffffffffff1690806008015490806009015490508a565b6005602052806000526040600020600091509050806000015490806001018054600181600116156101000203166002900480601f0160208091040260200160405190810160405280929190818152602001828054600181600116156101000203166002900480156125e95780601f106125be576101008083540402835291602001916125e9565b820191906000526020600020905b8154815290600101906020018083116125cc57829003601f168201915b505050505090806002018054600181600116156101000203166002900480601f0160208091040260200160405190810160405280929190818152602001828054600181600116156101000203166002900480156126875780601f1061265c57610100808354040283529160200191612687565b820191906000526020600020905b81548152906001019060200180831161266a57829003601f168201915b5050505050908060030154908060040154908060050160009054906101000a900473ffffffffffffffffffffffffffffffffffffffff16908060060154908060070160009054906101000a900473ffffffffffffffffffffffffffffffffffffffff1690806008015490806009015490508a565b6040518060400160405280600781526020017f5368697070657200000000000000000000000000000000000000000000000000815250806040516020018082805190602001908083835b602083106127685780518252602082019150602081019050602083039250612745565b6001836020036101000a03801982511681845116808217855250505050505090500191505060405160208183030381529060405280519060200120600460003373ffffffffffffffffffffffffffffffffffffffff1673ffffffffffffffffffffffffffffffffffffffff16815260200190815260200160002060405160200180828054600181600116156101000203166002900480156128405780601f1061281e576101008083540402835291820191612840565b820191906000526020600020905b81548152906001019060200180831161282c575b50509150506040516020818303038152906040528051906020012014612901577f5312dd75a9e6f37671bad29eb304dc8e362eae39c59e984fed296a410eccc22d816040518080602001828103825283818151815260200191508051906020019080838360005b838110156128c25780820151818401526020810190506128a7565b50505050905090810190601f1680156128ef5780820380516001836020036101000a031916815260200191505b509250505060405180910390a16129a2565b8260076000848152602001908152602001600020819055506003600560008481526020019081526020016000206006018190555060008090505b6000805490508110156129a057826000828154811061295657fe5b90600052602060002090600a02016000015414156129935760036000828154811061297d57fe5b90600052602060002090600a0201600601819055505b808060010191505061293b565b505b505050565b60006040518060400160405280600681526020017f436c69656e740000000000000000000000000000000000000000000000000000815250806040516020018082805190602001908083835b60208310612a1657805182526020820191506020810190506020830392506129f3565b6001836020036101000a03801982511681845116808217855250505050505090500191505060405160208183030381529060405280519060200120600460003373ffffffffffffffffffffffffffffffffffffffff1673ffffffffffffffffffffffffffffffffffffffff1681526020019081526020016000206040516020018082805460018160011615610100020316600290048015612aee5780601f10612acc576101008083540402835291820191612aee565b820191906000526020600020905b815481529060010190602001808311612ada575b50509150506040516020818303038152906040528051906020012014612baf577f5312dd75a9e6f37671bad29eb304dc8e362eae39c59e984fed296a410eccc22d816040518080602001828103825283818151815260200191508051906020019080838360005b83811015612b70578082015181840152602081019050612b55565b50505050905090810190601f168015612b9d5780820380516001836020036101000a031916815260200191505b509250505060405180910390a1612f43565b60003342604051602001808373ffffffffffffffffffffffffffffffffffffffff1673ffffffffffffffffffffffffffffffffffffffff1660601b81526014018281526020019250505060405160208183030381529060405280519060200120905080600560008381526020019081526020016000206000018190555086600560008381526020019081526020016000206001019080519060200190612c56929190613140565b5085600560008381526020019081526020016000206002019080519060200190612c81929190613140565b50846005600083815260200190815260200160002060030181905550836005600083815260200190815260200160002060040181905550336005600083815260200190815260200160002060050160006101000a81548173ffffffffffffffffffffffffffffffffffffffff021916908373ffffffffffffffffffffffffffffffffffffffff160217905550600160056000838152602001908152602001600020600601819055506000600560008381526020019081526020016000209080600181540180825580915050906001820390600052602060002090600a0201600090919290919091506000820154816000015560018201816001019080546001816001161561010002031660029004612d9a9291906131c0565b5060028201816002019080546001816001161561010002031660029004612dc29291906131c0565b5060038201548160030155600482015481600401556005820160009054906101000a900473ffffffffffffffffffffffffffffffffffffffff168160050160006101000a81548173ffffffffffffffffffffffffffffffffffffffff021916908373ffffffffffffffffffffffffffffffffffffffff160217905550600682015481600601556007820160009054906101000a900473ffffffffffffffffffffffffffffffffffffffff168160070160006101000a81548173ffffffffffffffffffffffffffffffffffffffff021916908373ffffffffffffffffffffffffffffffffffffffff16021790555060088201548160080155600982015481600901555050507f84da1dfa878cde3958dc262481e78ce41b053b31922de36a7b469d8905fb329981426040518083815260200180602001838152602001828103825260078152602001807f4372656174656400000000000000000000000000000000000000000000000000815250602001935050505060405180910390a1809250505b50949350505050565b80600460008473ffffffffffffffffffffffffffffffffffffffff1673ffffffffffffffffffffffffffffffffffffffff1681526020019081526020016000209080519060200190612f9f929190613140565b507f8f80a056e17841cc864870412509e01a65d8443e595e6e118e03f09b42ee6830816040518080602001828103825283818151815260200191508051906020019080838360005b83811015613002578082015181840152602081019050612fe7565b50505050905090810190601f16801561302f5780820380516001836020036101000a031916815260200191505b509250505060405180910390a15050565b828054600181600116156101000203166002900490600052602060002090601f016020900481019282601f1061308157805160ff19168380011785556130af565b828001600101855582156130af579182015b828111156130ae578251825591602001919060010190613093565b5b5090506130bc9190613247565b5090565b828054600181600116156101000203166002900490600052602060002090601f016020900481019282601f1061310157805160ff191683800117855561312f565b8280016001018555821561312f579182015b8281111561312e578251825591602001919060010190613113565b5b50905061313c9190613247565b5090565b828054600181600116156101000203166002900490600052602060002090601f016020900481019282601f1061318157805160ff19168380011785556131af565b828001600101855582156131af579182015b828111156131ae578251825591602001919060010190613193565b5b5090506131bc9190613247565b5090565b828054600181600116156101000203166002900490600052602060002090601f016020900481019282601f106131f95780548555613236565b8280016001018555821561323657600052602060002091601f016020900482015b8281111561323557825482559160010191906001019061321a565b5b5090506132439190613247565b5090565b61326991905b8082111561326557600081600090555060010161324d565b5090565b9056fea265627a7a72315820f4dfc6df7c0e9a1a0c022910ef9e1c2f2ae383737fc74b024ff6692299b0d7ef64736f6c63430005100032",
  "source": "pragma solidity ^0.5.16;\n\ncontract Logistics {\n\n    /*struct stateHistory {\n        string currentState;\n        uint currentTs;\n    }*/\n\n\tstruct Order {\n        bytes32 orderID;\n        string from;\n        string to;\n        uint freightClass;  //1normal, 2fluid, 3dangerous \n        uint estimate_arrival_time;\n\n        address orderOwner;  \n        uint orderStatus; //1Created, 2Comfirmed, 3Processing, 4ended, 5canceled. ShippingStatus similar.\n        //stateHistory[] orderStateHistory;\n\n        address shipper;  //which operator for shipping            \n        uint EvaluateCost;\n        uint FinalCost;\n    }\n\n    struct Ship {\n        bytes32 shipID;\n        address shipOwner; //default shipper address\n        uint shipStatus; //AtPort, WaitingCleaning, Cleaned, Loading, Loaded, Unloading, Unloaded\n        uint startWaterDisplacement;\n        uint endWaterDisplacement;\n        //stateHistory[] shipStateHistory;\n    }\n\n    struct Document {\n        bytes ipfsHash;\n        address signature;\n        bytes32 shipID;\n        uint timestamp;\n    }\n\n\tOrder[] public orders;\n    Ship[] public ships;\n    uint orderNum = 0;\n    uint shipNum = 0;\n\n    mapping(address => string) roles; //client, shipper, inspector, gauger, carrier\n    mapping (bytes32=> Order) public ordermapping; //orderID to a order struct\n    mapping (bytes32=> Ship) public shipmapping;  //shipID to a ship struct\n    mapping(bytes32 => bytes32) orderToShip;\n    mapping(bytes32 => bytes32) shipToOrder;\n    mapping(bytes32 => address) orderOwnership;\n    mapping(address => bytes32[]) shipOwnership; //owner to ship\n\n    mapping(address => bytes[]) public signedDocs; \n    mapping (bytes32 => Document) public docmapping;\n\n    event roleSet(string role);\n    event accessDenied(string role);\n    event UpdateorderStatus(bytes32 orderID, string orderStatus, uint ts);\n    event UpdateshipStatus(bytes32 shipID, string shipStatus, uint ts);\n    event DocCreated(address docCreator, uint256 docID);\n    event DocSigned(address from, uint256 docId, uint8 singId, bytes16 signType, bytes sign);\n\n    \n    modifier hasRole(string memory role) {\n    if (keccak256(abi.encodePacked(roles[msg.sender])) != keccak256(abi.encodePacked(role))) {\n      emit accessDenied(role);\n      return;\n    }\n    _;\n  }\n\n    function setRole(address addr, string memory role) public {\n        roles[addr] = role;\n        emit roleSet(role);\n    }\n\n    function getRole(address addr) public view returns (string memory) {\n        return roles[addr];\n    }\n    \n    function createOrder (string memory from, string memory to, uint freightClass, uint estimate_arrival_time) hasRole('Client') public returns(bytes32) {\n        bytes32 uniqueId = keccak256(abi.encodePacked(msg.sender, now));\n        ordermapping[uniqueId].orderID = uniqueId;\n        ordermapping[uniqueId].from = from;\n        ordermapping[uniqueId].to = to;\n        ordermapping[uniqueId].freightClass = freightClass;\n        ordermapping[uniqueId].estimate_arrival_time = estimate_arrival_time;\n        ordermapping[uniqueId].orderOwner = msg.sender;\n        ordermapping[uniqueId].orderStatus = 1;\n        //ordermapping[uniqueId].timestamp = now;\n        //ordermapping[uniqueId].orderStateHistory[0].currentState ='Created';\n        //ordermapping[uniqueId].orderStateHistory[0].currentTs = now;\n        orders.push(ordermapping[uniqueId]);\n        emit UpdateorderStatus(uniqueId, 'Created', now);\n        return uniqueId;\n    }\n\n    function confirmOrder(bytes32 orderID) hasRole('Shipper') public {\n        require(ordermapping[orderID].orderStatus == 1);\n        ordermapping[orderID].shipper = msg.sender;\n        ordermapping[orderID].orderStatus = 2;\n            //ordermapping[orderID].orderStateHistory[1].currentState ='Confirmed';\n            //ordermapping[orderID].orderStateHistory[1].currentTs = now;\n            //orders[orders.length].orderStateHistory.push('Confirmed', now);\n        for(uint i=0; i<orders.length; i++){\n            if (orders[i].orderID == orderID){\n                orders[i].shipper = msg.sender;\n                orders[i].orderStatus = 2;\n            }\n        }\n        emit UpdateorderStatus(orderID, 'Confirmed', now);\n        \n    }\n\n\tfunction getOrderCount() public view returns(uint) {\n\t\treturn orders.length;\n\t}\n\n    function AddShip(address addr) hasRole('Shipper') public {\n        require(addr == msg.sender);\n        bytes32 uniqueId = keccak256(abi.encodePacked(msg.sender, now));\n        uint shipStatus = 1;\n        shipmapping[uniqueId].shipID = uniqueId;\n        shipmapping[uniqueId].shipOwner = msg.sender;\n        shipmapping[uniqueId].shipStatus = shipStatus;\n        //ships[ships.length].shipStateHistory[0].currentState ='At Port';\n        //ships[ships.length].shipStateHistory[0].currentTs = now;\n        shipOwnership[msg.sender].push(uniqueId);\n        emit UpdateshipStatus(uniqueId, 'At port', now);\n    }\n\n    function AddOrderToShip(bytes32 shipID, bytes32 orderID) hasRole('Shipper') public {\n        orderToShip[orderID] = shipID;\n        ordermapping[orderID].orderStatus = 3;  //processing\n        \n        for(uint i=0; i<orders.length; i++){\n            if (orders[i].orderID == orderID){\n                orders[i].orderStatus = 3;\n            }\n        }\n        //ordermapping[orderID].orderStateHistory[2].currentState ='Processing in dispatch port';\n        //ordermapping[orderID].orderStateHistory[2].currentTs = now;\n    }\n\n    function AskForClearance(bytes32 shipID) hasRole('Shipper') public {\n        if (shipmapping[shipID].shipOwner == msg.sender && shipmapping[shipID].shipStatus == 1) {\n            shipmapping[shipID].shipStatus = 2; \n            //shipmapping[shipID].shipStateHistory[1].currentState ='Waiting for cleaning';\n            //shipmapping[shipID].shipStateHistory[1].currentTs = now;\n            emit UpdateshipStatus(shipID, 'Waiting for clearance inspection', now);\n        }   \n    }\n\n    function ShipClearance(bytes32 shipID, bytes memory ipfsHash) hasRole('Inspector') public {\n        if (shipmapping[shipID].shipOwner == msg.sender && shipmapping[shipID].shipStatus == 2) {\n            UploadClearanceReport(shipID, ipfsHash);\n            shipmapping[shipID].shipStatus = 3;\n            //shipmapping[shipID].shipStateHistory[2].currentState ='Inspected, waiting for confirmation from ship owner';\n            //shipmapping[shipID].shipStateHistory[2].currentTs = now;\n            emit UpdateshipStatus(shipID, 'Inspected', now);\n        }\n    }\n\n    function UploadClearanceReport(bytes32 shipID, bytes memory ipfsHash) hasRole('Inspector') public returns (bool) {\n        bytes32 uniqueId = keccak256(abi.encodePacked(msg.sender, now));\n        signedDocs[msg.sender].push(ipfsHash); //Add document to users's \"signed\" list\n        docmapping[uniqueId] = Document(ipfsHash, msg.sender, shipID, now);\n        return true;\n    }\n\n    function SignClearanceReport(bytes memory ipfsHash) public {\n        signedDocs[msg.sender].push(ipfsHash);\n        //docmapping[].signatures.push(msg.sender);\n    }\n}\n\n\n\n\n\n\n\n/*\n    function ApproveClearanceReport(bytes32 orderID, bytes memory docID, bytes memory signature) hasRole('ShipOwner') public\n    {\n        bytes32 message = keccak256(abi.encodePacked(msg.sender, docID, this));\n        require(recoverSigner(message, signature) == msg.sender);\n        emit UpdateshipStatus(orderID, 'Approve Clearance Report');\n    }\n    \n    function recoverSigner(bytes32 message, bytes memory sig)\n    internal\n    pure\n    returns (address)\n    {\n        (uint8 v, bytes32 r, bytes32 s) = splitSignature(sig);\n\n        return ecrecover(message, v, r, s);\n    }\n\n    /// signature methods.\n    function splitSignature(bytes memory sig)\n    internal\n    pure\n        returns (uint8 v, bytes32 r, bytes32 s)\n    {\n        require(sig.length == 65);\n\n        assembly {\n            // first 32 bytes, after the length prefix.\n            r := mload(add(sig, 32))\n            // second 32 bytes.\n            s := mload(add(sig, 64))\n            // final byte (first byte of the next 32 bytes).\n            v := byte(0, mload(add(sig, 96)))\n        }\n        return (v, r, s);\n    }\n*/\n\n",
  "sourcePath": "/Users/yangqingqing/Documents/ReactDemo/IdM/contracts/Logistics.sol",
  "compiler": {
    "name": "solc",
    "version": "0.5.16+commit.9c3226ce.Emscripten.clang"
  },
  "schemaVersion": "3.3.4",
  "updatedAt": "2021-03-16T18:23:37.129Z",
  "networkType": "ethereum",
  "devdoc": {
    "methods": {}
  },
  "userdoc": {
    "methods": {}
  }
}