{
  "contractName": "Logistics",
  "abi": [
    {
      "inputs": [],
      "payable": false,
      "stateMutability": "nonpayable",
      "type": "constructor"
    },
    {
      "anonymous": false,
      "inputs": [
        {
          "indexed": false,
          "internalType": "address",
          "name": "CreatorOrSigner",
          "type": "address"
        },
        {
          "indexed": false,
          "internalType": "string",
          "name": "ipfsHash",
          "type": "string"
        },
        {
          "indexed": false,
          "internalType": "string",
          "name": "role",
          "type": "string"
        }
      ],
      "name": "UpdateDocStatus",
      "type": "event"
    },
    {
      "anonymous": false,
      "inputs": [
        {
          "indexed": false,
          "internalType": "bytes32",
          "name": "orderID",
          "type": "bytes32"
        },
        {
          "indexed": false,
          "internalType": "string",
          "name": "orderStatus",
          "type": "string"
        },
        {
          "indexed": false,
          "internalType": "uint256",
          "name": "ts",
          "type": "uint256"
        }
      ],
      "name": "UpdateorderStatus",
      "type": "event"
    },
    {
      "anonymous": false,
      "inputs": [
        {
          "indexed": false,
          "internalType": "string",
          "name": "shipID",
          "type": "string"
        },
        {
          "indexed": false,
          "internalType": "string",
          "name": "shipStatus",
          "type": "string"
        },
        {
          "indexed": false,
          "internalType": "uint256",
          "name": "ts",
          "type": "uint256"
        }
      ],
      "name": "UpdateshipStatus",
      "type": "event"
    },
    {
      "anonymous": false,
      "inputs": [
        {
          "indexed": false,
          "internalType": "string",
          "name": "role",
          "type": "string"
        }
      ],
      "name": "accessDenied",
      "type": "event"
    },
    {
      "anonymous": false,
      "inputs": [
        {
          "indexed": false,
          "internalType": "address",
          "name": "add",
          "type": "address"
        },
        {
          "indexed": false,
          "internalType": "string",
          "name": "str",
          "type": "string"
        }
      ],
      "name": "bidByOthers",
      "type": "event"
    },
    {
      "anonymous": false,
      "inputs": [
        {
          "indexed": false,
          "internalType": "string",
          "name": "role",
          "type": "string"
        }
      ],
      "name": "roleSet",
      "type": "event"
    },
    {
      "constant": true,
      "inputs": [
        {
          "internalType": "uint256",
          "name": "",
          "type": "uint256"
        }
      ],
      "name": "clearanceRequests",
      "outputs": [
        {
          "internalType": "string",
          "name": "shipID",
          "type": "string"
        },
        {
          "internalType": "address",
          "name": "requestor",
          "type": "address"
        }
      ],
      "payable": false,
      "stateMutability": "view",
      "type": "function"
    },
    {
      "constant": true,
      "inputs": [
        {
          "internalType": "string",
          "name": "",
          "type": "string"
        }
      ],
      "name": "confirmations",
      "outputs": [
        {
          "internalType": "bool",
          "name": "startMeasured",
          "type": "bool"
        },
        {
          "internalType": "bool",
          "name": "signedByShipOwnerStart",
          "type": "bool"
        },
        {
          "internalType": "bool",
          "name": "signedByShipperStart",
          "type": "bool"
        },
        {
          "internalType": "bool",
          "name": "endMeasured",
          "type": "bool"
        },
        {
          "internalType": "bool",
          "name": "signedByShipOwnerEnd",
          "type": "bool"
        },
        {
          "internalType": "bool",
          "name": "signedByShipperEnd",
          "type": "bool"
        }
      ],
      "payable": false,
      "stateMutability": "view",
      "type": "function"
    },
    {
      "constant": true,
      "inputs": [
        {
          "internalType": "bytes32",
          "name": "",
          "type": "bytes32"
        }
      ],
      "name": "ordermapping",
      "outputs": [
        {
          "internalType": "bytes32",
          "name": "orderID",
          "type": "bytes32"
        },
        {
          "internalType": "string",
          "name": "from",
          "type": "string"
        },
        {
          "internalType": "string",
          "name": "to",
          "type": "string"
        },
        {
          "internalType": "uint256",
          "name": "freightClass",
          "type": "uint256"
        },
        {
          "internalType": "uint256",
          "name": "estimate_arrival_time",
          "type": "uint256"
        },
        {
          "internalType": "uint256",
          "name": "orderStatus",
          "type": "uint256"
        },
        {
          "internalType": "address",
          "name": "orderOwner",
          "type": "address"
        },
        {
          "internalType": "address",
          "name": "shipper",
          "type": "address"
        },
        {
          "internalType": "address",
          "name": "shipOwner",
          "type": "address"
        },
        {
          "internalType": "bool",
          "name": "bidByShipper",
          "type": "bool"
        },
        {
          "internalType": "bool",
          "name": "bidByShipOwner",
          "type": "bool"
        }
      ],
      "payable": false,
      "stateMutability": "view",
      "type": "function"
    },
    {
      "constant": true,
      "inputs": [
        {
          "internalType": "uint256",
          "name": "",
          "type": "uint256"
        }
      ],
      "name": "orders",
      "outputs": [
        {
          "internalType": "bytes32",
          "name": "orderID",
          "type": "bytes32"
        },
        {
          "internalType": "string",
          "name": "from",
          "type": "string"
        },
        {
          "internalType": "string",
          "name": "to",
          "type": "string"
        },
        {
          "internalType": "uint256",
          "name": "freightClass",
          "type": "uint256"
        },
        {
          "internalType": "uint256",
          "name": "estimate_arrival_time",
          "type": "uint256"
        },
        {
          "internalType": "uint256",
          "name": "orderStatus",
          "type": "uint256"
        },
        {
          "internalType": "address",
          "name": "orderOwner",
          "type": "address"
        },
        {
          "internalType": "address",
          "name": "shipper",
          "type": "address"
        },
        {
          "internalType": "address",
          "name": "shipOwner",
          "type": "address"
        },
        {
          "internalType": "bool",
          "name": "bidByShipper",
          "type": "bool"
        },
        {
          "internalType": "bool",
          "name": "bidByShipOwner",
          "type": "bool"
        }
      ],
      "payable": false,
      "stateMutability": "view",
      "type": "function"
    },
    {
      "constant": true,
      "inputs": [
        {
          "internalType": "address",
          "name": "",
          "type": "address"
        }
      ],
      "name": "roles",
      "outputs": [
        {
          "internalType": "string",
          "name": "",
          "type": "string"
        }
      ],
      "payable": false,
      "stateMutability": "view",
      "type": "function"
    },
    {
      "constant": true,
      "inputs": [
        {
          "internalType": "string",
          "name": "",
          "type": "string"
        }
      ],
      "name": "shipClearanceReport",
      "outputs": [
        {
          "internalType": "string",
          "name": "ipfsHash",
          "type": "string"
        },
        {
          "internalType": "bool",
          "name": "signedByShipOwner",
          "type": "bool"
        }
      ],
      "payable": false,
      "stateMutability": "view",
      "type": "function"
    },
    {
      "constant": true,
      "inputs": [
        {
          "internalType": "address",
          "name": "",
          "type": "address"
        }
      ],
      "name": "shipOwnership",
      "outputs": [
        {
          "internalType": "string",
          "name": "",
          "type": "string"
        }
      ],
      "payable": false,
      "stateMutability": "view",
      "type": "function"
    },
    {
      "constant": true,
      "inputs": [
        {
          "internalType": "string",
          "name": "",
          "type": "string"
        }
      ],
      "name": "shipmapping",
      "outputs": [
        {
          "internalType": "string",
          "name": "shipID",
          "type": "string"
        },
        {
          "internalType": "address",
          "name": "shipOwner",
          "type": "address"
        },
        {
          "internalType": "uint256",
          "name": "shipStatus",
          "type": "uint256"
        },
        {
          "internalType": "uint256",
          "name": "startWaterDisplacement",
          "type": "uint256"
        },
        {
          "internalType": "uint256",
          "name": "endWaterDisplacement",
          "type": "uint256"
        }
      ],
      "payable": false,
      "stateMutability": "view",
      "type": "function"
    },
    {
      "constant": true,
      "inputs": [
        {
          "internalType": "uint256",
          "name": "",
          "type": "uint256"
        }
      ],
      "name": "ships",
      "outputs": [
        {
          "internalType": "string",
          "name": "shipID",
          "type": "string"
        },
        {
          "internalType": "address",
          "name": "shipOwner",
          "type": "address"
        },
        {
          "internalType": "uint256",
          "name": "shipStatus",
          "type": "uint256"
        },
        {
          "internalType": "uint256",
          "name": "startWaterDisplacement",
          "type": "uint256"
        },
        {
          "internalType": "uint256",
          "name": "endWaterDisplacement",
          "type": "uint256"
        }
      ],
      "payable": false,
      "stateMutability": "view",
      "type": "function"
    },
    {
      "constant": false,
      "inputs": [
        {
          "internalType": "address",
          "name": "addr",
          "type": "address"
        },
        {
          "internalType": "string",
          "name": "role",
          "type": "string"
        }
      ],
      "name": "setRole",
      "outputs": [],
      "payable": false,
      "stateMutability": "nonpayable",
      "type": "function"
    },
    {
      "constant": true,
      "inputs": [
        {
          "internalType": "address",
          "name": "addr",
          "type": "address"
        }
      ],
      "name": "getRole",
      "outputs": [
        {
          "internalType": "string",
          "name": "",
          "type": "string"
        }
      ],
      "payable": false,
      "stateMutability": "view",
      "type": "function"
    },
    {
      "constant": false,
      "inputs": [
        {
          "internalType": "string",
          "name": "from",
          "type": "string"
        },
        {
          "internalType": "string",
          "name": "to",
          "type": "string"
        },
        {
          "internalType": "uint256",
          "name": "freightClass",
          "type": "uint256"
        },
        {
          "internalType": "uint256",
          "name": "estimate_arrival_time",
          "type": "uint256"
        }
      ],
      "name": "createOrder",
      "outputs": [
        {
          "internalType": "bytes32",
          "name": "",
          "type": "bytes32"
        }
      ],
      "payable": false,
      "stateMutability": "nonpayable",
      "type": "function"
    },
    {
      "constant": false,
      "inputs": [
        {
          "internalType": "bytes32",
          "name": "orderID",
          "type": "bytes32"
        },
        {
          "internalType": "uint256",
          "name": "price",
          "type": "uint256"
        }
      ],
      "name": "bidOrderByShipper",
      "outputs": [],
      "payable": false,
      "stateMutability": "nonpayable",
      "type": "function"
    },
    {
      "constant": false,
      "inputs": [
        {
          "internalType": "bytes32",
          "name": "orderID",
          "type": "bytes32"
        },
        {
          "internalType": "uint256",
          "name": "price",
          "type": "uint256"
        }
      ],
      "name": "bidOrderByShipOwner",
      "outputs": [],
      "payable": false,
      "stateMutability": "nonpayable",
      "type": "function"
    },
    {
      "constant": false,
      "inputs": [
        {
          "internalType": "bytes32",
          "name": "orderID",
          "type": "bytes32"
        }
      ],
      "name": "adminOrder",
      "outputs": [],
      "payable": false,
      "stateMutability": "nonpayable",
      "type": "function"
    },
    {
      "constant": true,
      "inputs": [],
      "name": "getOrderCount",
      "outputs": [
        {
          "internalType": "uint256",
          "name": "",
          "type": "uint256"
        }
      ],
      "payable": false,
      "stateMutability": "view",
      "type": "function"
    },
    {
      "constant": true,
      "inputs": [],
      "name": "getShipCount",
      "outputs": [
        {
          "internalType": "uint256",
          "name": "",
          "type": "uint256"
        }
      ],
      "payable": false,
      "stateMutability": "view",
      "type": "function"
    },
    {
      "constant": true,
      "inputs": [],
      "name": "getClearanceRequestsCount",
      "outputs": [
        {
          "internalType": "uint256",
          "name": "",
          "type": "uint256"
        }
      ],
      "payable": false,
      "stateMutability": "view",
      "type": "function"
    },
    {
      "constant": false,
      "inputs": [
        {
          "internalType": "string",
          "name": "shipID",
          "type": "string"
        }
      ],
      "name": "AddShip",
      "outputs": [],
      "payable": false,
      "stateMutability": "nonpayable",
      "type": "function"
    },
    {
      "constant": false,
      "inputs": [
        {
          "internalType": "string",
          "name": "shipID",
          "type": "string"
        }
      ],
      "name": "AskForClearance",
      "outputs": [],
      "payable": false,
      "stateMutability": "nonpayable",
      "type": "function"
    },
    {
      "constant": false,
      "inputs": [
        {
          "internalType": "string",
          "name": "shipID",
          "type": "string"
        },
        {
          "internalType": "string",
          "name": "ipfsHash",
          "type": "string"
        }
      ],
      "name": "UploadClearanceReport",
      "outputs": [],
      "payable": false,
      "stateMutability": "nonpayable",
      "type": "function"
    },
    {
      "constant": false,
      "inputs": [
        {
          "internalType": "string",
          "name": "shipID",
          "type": "string"
        },
        {
          "internalType": "string",
          "name": "ipfsHash",
          "type": "string"
        }
      ],
      "name": "SignClearanceReport",
      "outputs": [],
      "payable": false,
      "stateMutability": "nonpayable",
      "type": "function"
    },
    {
      "constant": false,
      "inputs": [
        {
          "internalType": "string",
          "name": "shipID",
          "type": "string"
        },
        {
          "internalType": "uint256",
          "name": "measure",
          "type": "uint256"
        }
      ],
      "name": "StartWaterDisplacement",
      "outputs": [],
      "payable": false,
      "stateMutability": "nonpayable",
      "type": "function"
    },
    {
      "constant": false,
      "inputs": [
        {
          "internalType": "string",
          "name": "shipID",
          "type": "string"
        }
      ],
      "name": "EnableLoad",
      "outputs": [],
      "payable": false,
      "stateMutability": "nonpayable",
      "type": "function"
    },
    {
      "constant": false,
      "inputs": [
        {
          "internalType": "string",
          "name": "shipID",
          "type": "string"
        },
        {
          "internalType": "uint256",
          "name": "measure",
          "type": "uint256"
        }
      ],
      "name": "EndWaterDisplacement",
      "outputs": [],
      "payable": false,
      "stateMutability": "nonpayable",
      "type": "function"
    },
    {
      "constant": false,
      "inputs": [
        {
          "internalType": "string",
          "name": "shipID",
          "type": "string"
        },
        {
          "internalType": "string",
          "name": "role",
          "type": "string"
        }
      ],
      "name": "SignConfirmation",
      "outputs": [],
      "payable": false,
      "stateMutability": "nonpayable",
      "type": "function"
    },
    {
      "constant": false,
      "inputs": [
        {
          "internalType": "string",
          "name": "shipID",
          "type": "string"
        }
      ],
      "name": "LoadGoods",
      "outputs": [],
      "payable": false,
      "stateMutability": "nonpayable",
      "type": "function"
    }
  ],
  "bytecode": "0x608060405234801561001057600080fd5b5033600360006101000a81548173ffffffffffffffffffffffffffffffffffffffff021916908373ffffffffffffffffffffffffffffffffffffffff1602179055506151b7806100616000396000f3fe608060405234801561001057600080fd5b50600436106101a85760003560e01c806399374642116100f9578063cf1c96b411610097578063ece5dd6311610071578063ece5dd631461147b578063f3638fb414611540578063f697e725146116ba578063f832309b1461180c576101a8565b8063cf1c96b4146110f2578063d0606b2714611244578063dad16f33146112ff576101a8565b8063a85c38ef116100d3578063a85c38ef14610bbe578063c02ee8e014610d9c578063c0c88f7b14610f7a578063cd135da114611037576101a8565b806399374642146108f45780639fa71b37146109b1578063a835843914610a6c576101a8565b80633fd8327b116101665780636227924d116101405780636227924d146107665780637654b9b0146108705780638d0a5fbb1461089e57806393148a65146108bc576101a8565b80633fd8327b1461058257806344276733146105ba5780634d4e8dfa14610677576101a8565b8062f8644f146101ad5780631704c271146102725780632a12c91f1461029057806338d121921461034b5780633cb56c831461048a5780633f6080a314610564575b600080fd5b610270600480360360408110156101c357600080fd5b81019080803590602001906401000000008111156101e057600080fd5b8201836020820111156101f257600080fd5b8035906020019184600183028401116401000000008311171561021457600080fd5b91908080601f016020809104026020016040519081016040528093929190818152602001838380828437600081840152601f19601f820116905080830192505050505050509192919290803590602001909291905050506118e7565b005b61027a611b68565b6040518082815260200191505060405180910390f35b610349600480360360208110156102a657600080fd5b81019080803590602001906401000000008111156102c357600080fd5b8201836020820111156102d557600080fd5b803590602001918460018302840111640100000000831117156102f757600080fd5b91908080601f016020809104026020016040519081016040528093929190818152602001838380828437600081840152601f19601f820116905080830192505050505050509192919290505050611b75565b005b6104046004803603602081101561036157600080fd5b810190808035906020019064010000000081111561037e57600080fd5b82018360208201111561039057600080fd5b803590602001918460018302840111640100000000831117156103b257600080fd5b91908080601f016020809104026020016040519081016040528093929190818152602001838380828437600081840152601f19601f820116905080830192505050505050509192919290505050611f48565b604051808060200183151515158152602001828103825284818151815260200191508051906020019080838360005b8381101561044e578082015181840152602081019050610433565b50505050905090810190601f16801561047b5780820380516001836020036101000a031916815260200191505b50935050505060405180910390f35b6104b6600480360360208110156104a057600080fd5b8101908080359060200190929190505050612027565b60405180806020018373ffffffffffffffffffffffffffffffffffffffff1673ffffffffffffffffffffffffffffffffffffffff168152602001828103825284818151815260200191508051906020019080838360005b8381101561052857808201518184015260208101905061050d565b50505050905090810190601f1680156105555780820380516001836020036101000a031916815260200191505b50935050505060405180910390f35b61056c612110565b6040518082815260200191505060405180910390f35b6105b86004803603604081101561059857600080fd5b81019080803590602001909291908035906020019092919050505061211d565b005b6105fc600480360360208110156105d057600080fd5b81019080803573ffffffffffffffffffffffffffffffffffffffff16906020019092919050505061230a565b6040518080602001828103825283818151815260200191508051906020019080838360005b8381101561063c578082015181840152602081019050610621565b50505050905090810190601f1680156106695780820380516001836020036101000a031916815260200191505b509250505060405180910390f35b6106a36004803603602081101561068d57600080fd5b81019080803590602001909291905050506123eb565b60405180806020018673ffffffffffffffffffffffffffffffffffffffff1673ffffffffffffffffffffffffffffffffffffffff168152602001858152602001848152602001838152602001828103825287818151815260200191508051906020019080838360005b8381101561072757808201518184015260208101905061070c565b50505050905090810190601f1680156107545780820380516001836020036101000a031916815260200191505b50965050505050505060405180910390f35b61081f6004803603602081101561077c57600080fd5b810190808035906020019064010000000081111561079957600080fd5b8201836020820111156107ab57600080fd5b803590602001918460018302840111640100000000831117156107cd57600080fd5b91908080601f016020809104026020016040519081016040528093929190818152602001838380828437600081840152601f19601f8201169050808301925050505050505091929192905050506124e6565b60405180871515151581526020018615151515815260200185151515158152602001841515151581526020018315151515815260200182151515158152602001965050505050505060405180910390f35b61089c6004803603602081101561088657600080fd5b8101908080359060200190929190505050612586565b005b6108a66128b4565b6040518082815260200191505060405180910390f35b6108f2600480360360408110156108d257600080fd5b8101908080359060200190929190803590602001909291905050506128c0565b005b6109366004803603602081101561090a57600080fd5b81019080803573ffffffffffffffffffffffffffffffffffffffff169060200190929190505050612aad565b6040518080602001828103825283818151815260200191508051906020019080838360005b8381101561097657808201518184015260208101905061095b565b50505050905090810190601f1680156109a35780820380516001836020036101000a031916815260200191505b509250505060405180910390f35b610a6a600480360360208110156109c757600080fd5b81019080803590602001906401000000008111156109e457600080fd5b8201836020820111156109f657600080fd5b80359060200191846001830284011164010000000083111715610a1857600080fd5b91908080601f016020809104026020016040519081016040528093929190818152602001838380828437600081840152601f19601f820116905080830192505050505050509192919290505050612b5d565b005b610bbc60048036036040811015610a8257600080fd5b8101908080359060200190640100000000811115610a9f57600080fd5b820183602082011115610ab157600080fd5b80359060200191846001830284011164010000000083111715610ad357600080fd5b91908080601f016020809104026020016040519081016040528093929190818152602001838380828437600081840152601f19601f82011690508083019250505050505050919291929080359060200190640100000000811115610b3657600080fd5b820183602082011115610b4857600080fd5b80359060200191846001830284011164010000000083111715610b6a57600080fd5b91908080601f016020809104026020016040519081016040528093929190818152602001838380828437600081840152601f19601f820116905080830192505050505050509192919290505050612ff7565b005b610bea60048036036020811015610bd457600080fd5b81019080803590602001909291905050506132f7565b604051808c815260200180602001806020018b81526020018a81526020018981526020018873ffffffffffffffffffffffffffffffffffffffff1673ffffffffffffffffffffffffffffffffffffffff1681526020018773ffffffffffffffffffffffffffffffffffffffff1673ffffffffffffffffffffffffffffffffffffffff1681526020018673ffffffffffffffffffffffffffffffffffffffff1673ffffffffffffffffffffffffffffffffffffffff168152602001851515151581526020018415151515815260200183810383528d818151815260200191508051906020019080838360005b83811015610cf0578082015181840152602081019050610cd5565b50505050905090810190601f168015610d1d5780820380516001836020036101000a031916815260200191505b5083810382528c818151815260200191508051906020019080838360005b83811015610d56578082015181840152602081019050610d3b565b50505050905090810190601f168015610d835780820380516001836020036101000a031916815260200191505b509d505050505050505050505050505060405180910390f35b610dc860048036036020811015610db257600080fd5b8101908080359060200190929190505050613508565b604051808c815260200180602001806020018b81526020018a81526020018981526020018873ffffffffffffffffffffffffffffffffffffffff1673ffffffffffffffffffffffffffffffffffffffff1681526020018773ffffffffffffffffffffffffffffffffffffffff1673ffffffffffffffffffffffffffffffffffffffff1681526020018673ffffffffffffffffffffffffffffffffffffffff1673ffffffffffffffffffffffffffffffffffffffff168152602001851515151581526020018415151515815260200183810383528d818151815260200191508051906020019080838360005b83811015610ece578082015181840152602081019050610eb3565b50505050905090810190601f168015610efb5780820380516001836020036101000a031916815260200191505b5083810382528c818151815260200191508051906020019080838360005b83811015610f34578082015181840152602081019050610f19565b50505050905090810190601f168015610f615780820380516001836020036101000a031916815260200191505b509d505050505050505050505050505060405180910390f35b610fbc60048036036020811015610f9057600080fd5b81019080803573ffffffffffffffffffffffffffffffffffffffff16906020019092919050505061370c565b6040518080602001828103825283818151815260200191508051906020019080838360005b83811015610ffc578082015181840152602081019050610fe1565b50505050905090810190601f1680156110295780820380516001836020036101000a031916815260200191505b509250505060405180910390f35b6110f06004803603602081101561104d57600080fd5b810190808035906020019064010000000081111561106a57600080fd5b82018360208201111561107c57600080fd5b8035906020019184600183028401116401000000008311171561109e57600080fd5b91908080601f016020809104026020016040519081016040528093929190818152602001838380828437600081840152601f19601f8201169050808301925050505050505091929192905050506137bc565b005b6112426004803603604081101561110857600080fd5b810190808035906020019064010000000081111561112557600080fd5b82018360208201111561113757600080fd5b8035906020019184600183028401116401000000008311171561115957600080fd5b91908080601f016020809104026020016040519081016040528093929190818152602001838380828437600081840152601f19601f820116905080830192505050505050509192919290803590602001906401000000008111156111bc57600080fd5b8201836020820111156111ce57600080fd5b803590602001918460018302840111640100000000831117156111f057600080fd5b91908080601f016020809104026020016040519081016040528093929190818152602001838380828437600081840152601f19601f820116905080830192505050505050509192919290505050613a10565b005b6112fd6004803603602081101561125a57600080fd5b810190808035906020019064010000000081111561127757600080fd5b82018360208201111561128957600080fd5b803590602001918460018302840111640100000000831117156112ab57600080fd5b91908080601f016020809104026020016040519081016040528093929190818152602001838380828437600081840152601f19601f820116905080830192505050505050509192919290505050613ba2565b005b6113b86004803603602081101561131557600080fd5b810190808035906020019064010000000081111561133257600080fd5b82018360208201111561134457600080fd5b8035906020019184600183028401116401000000008311171561136657600080fd5b91908080601f016020809104026020016040519081016040528093929190818152602001838380828437600081840152601f19601f820116905080830192505050505050509192919290505050613fba565b60405180806020018673ffffffffffffffffffffffffffffffffffffffff1673ffffffffffffffffffffffffffffffffffffffff168152602001858152602001848152602001838152602001828103825287818151815260200191508051906020019080838360005b8381101561143c578082015181840152602081019050611421565b50505050905090810190601f1680156114695780820380516001836020036101000a031916815260200191505b50965050505050505060405180910390f35b61153e6004803603604081101561149157600080fd5b81019080803590602001906401000000008111156114ae57600080fd5b8201836020820111156114c057600080fd5b803590602001918460018302840111640100000000831117156114e257600080fd5b91908080601f016020809104026020016040519081016040528093929190818152602001838380828437600081840152601f19601f820116905080830192505050505050509192919290803590602001909291905050506140be565b005b6116a46004803603608081101561155657600080fd5b810190808035906020019064010000000081111561157357600080fd5b82018360208201111561158557600080fd5b803590602001918460018302840111640100000000831117156115a757600080fd5b91908080601f016020809104026020016040519081016040528093929190818152602001838380828437600081840152601f19601f8201169050808301925050505050505091929192908035906020019064010000000081111561160a57600080fd5b82018360208201111561161c57600080fd5b8035906020019184600183028401116401000000008311171561163e57600080fd5b91908080601f016020809104026020016040519081016040528093929190818152602001838380828437600081840152601f19601f8201169050808301925050505050505091929192908035906020019092919080359060200190929190505050614321565b6040518082815260200191505060405180910390f35b61180a600480360360408110156116d057600080fd5b81019080803590602001906401000000008111156116ed57600080fd5b8201836020820111156116ff57600080fd5b8035906020019184600183028401116401000000008311171561172157600080fd5b91908080601f016020809104026020016040519081016040528093929190818152602001838380828437600081840152601f19601f8201169050808301925050505050505091929192908035906020019064010000000081111561178457600080fd5b82018360208201111561179657600080fd5b803590602001918460018302840111640100000000831117156117b857600080fd5b91908080601f016020809104026020016040519081016040528093929190818152602001838380828437600081840152601f19601f820116905080830192505050505050509192919290505050614800565b005b6118e56004803603604081101561182257600080fd5b81019080803573ffffffffffffffffffffffffffffffffffffffff1690602001909291908035906020019064010000000081111561185f57600080fd5b82018360208201111561187157600080fd5b8035906020019184600183028401116401000000008311171561189357600080fd5b91908080601f016020809104026020016040519081016040528093929190818152602001838380828437600081840152601f19601f820116905080830192505050505050509192919290505050614eb3565b005b600c826040518082805190602001908083835b6020831061191d57805182526020820191506020810190506020830392506118fa565b6001836020036101000a038019825116818451168082178552505050505050905001915050908152602001604051809103902060000160009054906101000a900460ff1680156119e35750600c826040518082805190602001908083835b6020831061199e578051825260208201915060208101905060208303925061197b565b6001836020036101000a038019825116818451168082178552505050505050905001915050908152602001604051809103902060000160029054906101000a900460ff165b8015611a655750600c826040518082805190602001908083835b60208310611a2057805182526020820191506020810190506020830392506119fd565b6001836020036101000a038019825116818451168082178552505050505050905001915050908152602001604051809103902060000160029054906101000a900460ff165b611a6e57600080fd5b806006836040518082805190602001908083835b60208310611aa55780518252602082019150602081019050602083039250611a82565b6001836020036101000a0380198251168184511680821785525050505050509050019150509081526020016040518091039020600401819055506001600c836040518082805190602001908083835b60208310611b175780518252602082019150602081019050602083039250611af4565b6001836020036101000a038019825116818451168082178552505050505050905001915050908152602001604051809103902060000160036101000a81548160ff0219169083151502179055505050565b6000600180549050905090565b6040518060400160405280600781526020017f5368697070657200000000000000000000000000000000000000000000000000815250806040516020018082805190602001908083835b60208310611be25780518252602082019150602081019050602083039250611bbf565b6001836020036101000a03801982511681845116808217855250505050505090500191505060405160208183030381529060405280519060200120600460003373ffffffffffffffffffffffffffffffffffffffff1673ffffffffffffffffffffffffffffffffffffffff1681526020019081526020016000206040516020018082805460018160011615610100020316600290048015611cba5780601f10611c98576101008083540402835291820191611cba565b820191906000526020600020905b815481529060010190602001808311611ca6575b50509150506040516020818303038152906040528051906020012014611d7b577f5312dd75a9e6f37671bad29eb304dc8e362eae39c59e984fed296a410eccc22d816040518080602001828103825283818151815260200191508051906020019080838360005b83811015611d3c578082015181840152602081019050611d21565b50505050905090810190601f168015611d695780820380516001836020036101000a031916815260200191505b509250505060405180910390a1611f44565b60046006836040518082805190602001908083835b60208310611db35780518252602082019150602081019050602083039250611d90565b6001836020036101000a03801982511681845116808217855250505050505090500191505090815260200160405180910390206002015414611df457600080fd5b60056006836040518082805190602001908083835b60208310611e2c5780518252602082019150602081019050602083039250611e09565b6001836020036101000a0380198251168184511680821785525050505050509050019150509081526020016040518091039020600201819055507ff00e826221cd8f6852113a33f7ead28331697e008f033017d83b0f48e74606118242604051808060200180602001848152602001838103835285818151815260200191508051906020019080838360005b83811015611ed3578082015181840152602081019050611eb8565b50505050905090810190601f168015611f005780820380516001836020036101000a031916815260200191505b50838103825260198152602001807f416c6c20676f6f647320686173206265656e206c6f616465640000000000000081525060200194505050505060405180910390a15b5050565b600b81805160208101820180518482526020830160208501208183528095505050505050600091509050806000018054600181600116156101000203166002900480601f01602080910402602001604051908101604052809291908181526020018280546001816001161561010002031660029004801561200a5780601f10611fdf5761010080835404028352916020019161200a565b820191906000526020600020905b815481529060010190602001808311611fed57829003601f168201915b5050505050908060010160009054906101000a900460ff16905082565b6002818154811061203457fe5b9060005260206000209060020201600091509050806000018054600181600116156101000203166002900480601f0160208091040260200160405190810160405280929190818152602001828054600181600116156101000203166002900480156120e05780601f106120b5576101008083540402835291602001916120e0565b820191906000526020600020905b8154815290600101906020018083116120c357829003601f168201915b5050505050908060010160009054906101000a900473ffffffffffffffffffffffffffffffffffffffff16905082565b6000600280549050905090565b600160056000848152602001908152602001600020600501541461214057600080fd5b600760008381526020019081526020016000206001015481116121cb576040517f08c379a000000000000000000000000000000000000000000000000000000000815260040180806020018281038252600d8152602001807f707269636520746f6f206c6f770000000000000000000000000000000000000081525060200191505060405180910390fd5b336007600084815260200190815260200160002060000160006101000a81548173ffffffffffffffffffffffffffffffffffffffff021916908373ffffffffffffffffffffffffffffffffffffffff16021790555080600760008481526020019081526020016000206001018190555060016005600084815260200190815260200160002060080160146101000a81548160ff0219169083151502179055507ff872dc57f1ee2e967380ced673fd18523f38f1fde7f9af78af5f92585eca950133604051808273ffffffffffffffffffffffffffffffffffffffff1673ffffffffffffffffffffffffffffffffffffffff168152602001806020018281038252600e8152602001807f62696420627920736869707065720000000000000000000000000000000000008152506020019250505060405180910390a15050565b6060600460008373ffffffffffffffffffffffffffffffffffffffff1673ffffffffffffffffffffffffffffffffffffffff1681526020019081526020016000208054600181600116156101000203166002900480601f0160208091040260200160405190810160405280929190818152602001828054600181600116156101000203166002900480156123df5780601f106123b4576101008083540402835291602001916123df565b820191906000526020600020905b8154815290600101906020018083116123c257829003601f168201915b50505050509050919050565b600181815481106123f857fe5b9060005260206000209060050201600091509050806000018054600181600116156101000203166002900480601f0160208091040260200160405190810160405280929190818152602001828054600181600116156101000203166002900480156124a45780601f10612479576101008083540402835291602001916124a4565b820191906000526020600020905b81548152906001019060200180831161248757829003601f168201915b5050505050908060010160009054906101000a900473ffffffffffffffffffffffffffffffffffffffff16908060020154908060030154908060040154905085565b600c818051602081018201805184825260208301602085012081835280955050505050506000915090508060000160009054906101000a900460ff16908060000160019054906101000a900460ff16908060000160029054906101000a900460ff16908060000160039054906101000a900460ff16908060000160049054906101000a900460ff16908060000160059054906101000a900460ff16905086565b3373ffffffffffffffffffffffffffffffffffffffff166005600083815260200190815260200160002060060160009054906101000a900473ffffffffffffffffffffffffffffffffffffffff1673ffffffffffffffffffffffffffffffffffffffff161461265d576040517f08c379a000000000000000000000000000000000000000000000000000000000815260040180806020018281038252600b8152602001807f6e6f742063726561746f7200000000000000000000000000000000000000000081525060200191505060405180910390fd5b6005600082815260200190815260200160002060080160149054906101000a900460ff1680156126ad57506005600082815260200190815260200160002060080160159054906101000a900460ff165b61271f576040517f08c379a000000000000000000000000000000000000000000000000000000000815260040180806020018281038252600e8152602001807f4e6f206f6e65206269642079657400000000000000000000000000000000000081525060200191505060405180910390fd5b60008090505b6000805490508110156128b057816000828154811061274057fe5b90600052602060002090600902016000015414156128a3576007600083815260200190815260200160002060000160009054906101000a900473ffffffffffffffffffffffffffffffffffffffff166000828154811061279c57fe5b906000526020600020906009020160070160006101000a81548173ffffffffffffffffffffffffffffffffffffffff021916908373ffffffffffffffffffffffffffffffffffffffff1602179055506008600083815260200190815260200160002060000160009054906101000a900473ffffffffffffffffffffffffffffffffffffffff166000828154811061282f57fe5b906000526020600020906009020160080160006101000a81548173ffffffffffffffffffffffffffffffffffffffff021916908373ffffffffffffffffffffffffffffffffffffffff16021790555060026000828154811061288d57fe5b9060005260206000209060090201600501819055505b8080600101915050612725565b5050565b60008080549050905090565b60016005600084815260200190815260200160002060050154146128e357600080fd5b6008600083815260200190815260200160002060010154811161296e576040517f08c379a000000000000000000000000000000000000000000000000000000000815260040180806020018281038252600d8152602001807f707269636520746f6f206c6f770000000000000000000000000000000000000081525060200191505060405180910390fd5b336008600084815260200190815260200160002060000160006101000a81548173ffffffffffffffffffffffffffffffffffffffff021916908373ffffffffffffffffffffffffffffffffffffffff16021790555080600860008481526020019081526020016000206001018190555060016005600084815260200190815260200160002060080160156101000a81548160ff0219169083151502179055507ff872dc57f1ee2e967380ced673fd18523f38f1fde7f9af78af5f92585eca950133604051808273ffffffffffffffffffffffffffffffffffffffff1673ffffffffffffffffffffffffffffffffffffffff168152602001806020018281038252600b8152602001807f62696420627920736869700000000000000000000000000000000000000000008152506020019250505060405180910390a15050565b60046020528060005260406000206000915090508054600181600116156101000203166002900480601f016020809104026020016040519081016040528092919081815260200182805460018160011615610100020316600290048015612b555780601f10612b2a57610100808354040283529160200191612b55565b820191906000526020600020905b815481529060010190602001808311612b3857829003601f168201915b505050505081565b3373ffffffffffffffffffffffffffffffffffffffff166006826040518082805190602001908083835b60208310612baa5780518252602082019150602081019050602083039250612b87565b6001836020036101000a038019825116818451168082178552505050505050905001915050908152602001604051809103902060010160009054906101000a900473ffffffffffffffffffffffffffffffffffffffff1673ffffffffffffffffffffffffffffffffffffffff16148015612c90575060016006826040518082805190602001908083835b60208310612c575780518252602082019150602081019050602083039250612c34565b6001836020036101000a038019825116818451168082178552505050505050905001915050908152602001604051809103902060020154145b15612ff45760008090505b600180549050811015612de957816040516020018082805190602001908083835b60208310612cdf5780518252602082019150602081019050602083039250612cbc565b6001836020036101000a0380198251168184511680821785525050505050509050019150506040516020818303038152906040528051906020012060018281548110612d2757fe5b90600052602060002090600502016000016040516020018082805460018160011615610100020316600290048015612d965780601f10612d74576101008083540402835291820191612d96565b820191906000526020600020905b815481529060010190602001808311612d82575b5050915050604051602081830303815290604052805190602001201415612ddc57600260018281548110612dc657fe5b9060005260206000209060050201600201819055505b8080600101915050612c9b565b5060026006826040518082805190602001908083835b60208310612e225780518252602082019150602081019050602083039250612dff565b6001836020036101000a03801982511681845116808217855250505050505090500191505090815260200160405180910390205050600260405180604001604052808381526020013373ffffffffffffffffffffffffffffffffffffffff16815250908060018154018082558091505090600182039060005260206000209060020201600090919290919091506000820151816000019080519060200190612ecb929190614fa7565b5060208201518160010160006101000a81548173ffffffffffffffffffffffffffffffffffffffff021916908373ffffffffffffffffffffffffffffffffffffffff1602179055505050507ff00e826221cd8f6852113a33f7ead28331697e008f033017d83b0f48e74606118142604051808060200180602001848152602001838103835285818151815260200191508051906020019080838360005b83811015612f83578082015181840152602081019050612f68565b50505050905090810190601f168015612fb05780820380516001836020036101000a031916815260200191505b50838103825260208152602001807f57616974696e6720666f7220636c656172616e636520696e7370656374696f6e81525060200194505050505060405180910390a15b50565b604051806040016040528082815260200160001515815250600b836040518082805190602001908083835b602083106130455780518252602082019150602081019050602083039250613022565b6001836020036101000a03801982511681845116808217855250505050505090500191505090815260200160405180910390206000820151816000019080519060200190613094929190614fa7565b5060208201518160010160006101000a81548160ff02191690831515021790555090505060036006836040518082805190602001908083835b602083106130f057805182526020820191506020810190506020830392506130cd565b6001836020036101000a0380198251168184511680821785525050505050509050019150509081526020016040518091039020600201819055507ff00e826221cd8f6852113a33f7ead28331697e008f033017d83b0f48e74606118242604051808060200180602001848152602001838103835285818151815260200191508051906020019080838360005b8381101561319757808201518184015260208101905061317c565b50505050905090810190601f1680156131c45780820380516001836020036101000a031916815260200191505b508381038252602f815260200180615154602f913960400194505050505060405180910390a17fbb8bdb4915f8d167e1842d9d98aa93bda6850c4aa676fdd74f05c73bcd2ecc3d3382604051808373ffffffffffffffffffffffffffffffffffffffff1673ffffffffffffffffffffffffffffffffffffffff1681526020018060200180602001838103835284818151815260200191508051906020019080838360005b83811015613283578082015181840152602081019050613268565b50505050905090810190601f1680156132b05780820380516001836020036101000a031916815260200191505b508381038252601e8152602001807f496e73706563746f7220686173206265656e2075706c6f616420646f632e000081525060200194505050505060405180910390a15050565b6000818154811061330457fe5b9060005260206000209060090201600091509050806000015490806001018054600181600116156101000203166002900480601f0160208091040260200160405190810160405280929190818152602001828054600181600116156101000203166002900480156133b65780601f1061338b576101008083540402835291602001916133b6565b820191906000526020600020905b81548152906001019060200180831161339957829003601f168201915b505050505090806002018054600181600116156101000203166002900480601f0160208091040260200160405190810160405280929190818152602001828054600181600116156101000203166002900480156134545780601f1061342957610100808354040283529160200191613454565b820191906000526020600020905b81548152906001019060200180831161343757829003601f168201915b5050505050908060030154908060040154908060050154908060060160009054906101000a900473ffffffffffffffffffffffffffffffffffffffff16908060070160009054906101000a900473ffffffffffffffffffffffffffffffffffffffff16908060080160009054906101000a900473ffffffffffffffffffffffffffffffffffffffff16908060080160149054906101000a900460ff16908060080160159054906101000a900460ff1690508b565b6005602052806000526040600020600091509050806000015490806001018054600181600116156101000203166002900480601f0160208091040260200160405190810160405280929190818152602001828054600181600116156101000203166002900480156135ba5780601f1061358f576101008083540402835291602001916135ba565b820191906000526020600020905b81548152906001019060200180831161359d57829003601f168201915b505050505090806002018054600181600116156101000203166002900480601f0160208091040260200160405190810160405280929190818152602001828054600181600116156101000203166002900480156136585780601f1061362d57610100808354040283529160200191613658565b820191906000526020600020905b81548152906001019060200180831161363b57829003601f168201915b5050505050908060030154908060040154908060050154908060060160009054906101000a900473ffffffffffffffffffffffffffffffffffffffff16908060070160009054906101000a900473ffffffffffffffffffffffffffffffffffffffff16908060080160009054906101000a900473ffffffffffffffffffffffffffffffffffffffff16908060080160149054906101000a900460ff16908060080160159054906101000a900460ff1690508b565b60096020528060005260406000206000915090508054600181600116156101000203166002900480601f0160208091040260200160405190810160405280929190818152602001828054600181600116156101000203166002900480156137b45780601f10613789576101008083540402835291602001916137b4565b820191906000526020600020905b81548152906001019060200180831161379757829003601f168201915b505050505081565b600c816040518082805190602001908083835b602083106137f257805182526020820191506020810190506020830392506137cf565b6001836020036101000a038019825116818451168082178552505050505050905001915050908152602001604051809103902060000160029054906101000a900460ff1680156138b85750600c816040518082805190602001908083835b602083106138735780518252602082019150602081019050602083039250613850565b6001836020036101000a038019825116818451168082178552505050505050905001915050908152602001604051809103902060000160019054906101000a900460ff165b15613a0d5760046006826040518082805190602001908083835b602083106138f557805182526020820191506020810190506020830392506138d2565b6001836020036101000a0380198251168184511680821785525050505050509050019150509081526020016040518091039020600201819055507ff00e826221cd8f6852113a33f7ead28331697e008f033017d83b0f48e74606118142604051808060200180602001848152602001838103835285818151815260200191508051906020019080838360005b8381101561399c578082015181840152602081019050613981565b50505050905090810190601f1680156139c95780820380516001836020036101000a031916815260200191505b50838103825260148152602001807f43616e207374617274206c6f6164696e672e2e2e00000000000000000000000081525060200194505050505060405180910390a15b50565b6001600b836040518082805190602001908083835b60208310613a485780518252602082019150602081019050602083039250613a25565b6001836020036101000a038019825116818451168082178552505050505050905001915050908152602001604051809103902060010160006101000a81548160ff0219169083151502179055507fbb8bdb4915f8d167e1842d9d98aa93bda6850c4aa676fdd74f05c73bcd2ecc3d3382604051808373ffffffffffffffffffffffffffffffffffffffff1673ffffffffffffffffffffffffffffffffffffffff1681526020018060200180602001838103835284818151815260200191508051906020019080838360005b83811015613b2e578082015181840152602081019050613b13565b50505050905090810190601f168015613b5b5780820380516001836020036101000a031916815260200191505b50838103825260168152602001807f53686970206f776e6572207369676e656420646f632e0000000000000000000081525060200194505050505060405180910390a15050565b806006826040518082805190602001908083835b60208310613bd95780518252602082019150602081019050602083039250613bb6565b6001836020036101000a03801982511681845116808217855250505050505090500191505090815260200160405180910390206000019080519060200190613c22929190615027565b50336006826040518082805190602001908083835b60208310613c5a5780518252602082019150602081019050602083039250613c37565b6001836020036101000a038019825116818451168082178552505050505050905001915050908152602001604051809103902060010160006101000a81548173ffffffffffffffffffffffffffffffffffffffff021916908373ffffffffffffffffffffffffffffffffffffffff16021790555060016006826040518082805190602001908083835b60208310613d065780518252602082019150602081019050602083039250613ce3565b6001836020036101000a03801982511681845116808217855250505050505090500191505090815260200160405180910390206002018190555080600960003373ffffffffffffffffffffffffffffffffffffffff1673ffffffffffffffffffffffffffffffffffffffff1681526020019081526020016000209080519060200190613d93929190615027565b5060016006826040518082805190602001908083835b60208310613dcc5780518252602082019150602081019050602083039250613da9565b6001836020036101000a03801982511681845116808217855250505050505090500191505090815260200160405180910390209080600181540180825580915050906001820390600052602060002090600502016000909192909190915060008201816000019080546001816001161561010002031660029004613e519291906150a7565b506001820160009054906101000a900473ffffffffffffffffffffffffffffffffffffffff168160010160006101000a81548173ffffffffffffffffffffffffffffffffffffffff021916908373ffffffffffffffffffffffffffffffffffffffff1602179055506002820154816002015560038201548160030155600482015481600401555050507ff00e826221cd8f6852113a33f7ead28331697e008f033017d83b0f48e74606118142604051808060200180602001848152602001838103835285818151815260200191508051906020019080838360005b83811015613f47578082015181840152602081019050613f2c565b50505050905090810190601f168015613f745780820380516001836020036101000a031916815260200191505b50838103825260078152602001807f417420706f72740000000000000000000000000000000000000000000000000081525060200194505050505060405180910390a150565b600681805160208101820180518482526020830160208501208183528095505050505050600091509050806000018054600181600116156101000203166002900480601f01602080910402602001604051908101604052809291908181526020018280546001816001161561010002031660029004801561407c5780601f106140515761010080835404028352916020019161407c565b820191906000526020600020905b81548152906001019060200180831161405f57829003601f168201915b5050505050908060010160009054906101000a900473ffffffffffffffffffffffffffffffffffffffff16908060020154908060030154908060040154905085565b600b826040518082805190602001908083835b602083106140f457805182526020820191506020810190506020830392506140d1565b6001836020036101000a038019825116818451168082178552505050505050905001915050908152602001604051809103902060010160009054906101000a900460ff1661414157600080fd5b806006836040518082805190602001908083835b602083106141785780518252602082019150602081019050602083039250614155565b6001836020036101000a0380198251168184511680821785525050505050509050019150509081526020016040518091039020600301819055506040518060c0016040528060011515815260200160001515815260200160001515815260200160001515815260200160001515815260200160001515815250600c836040518082805190602001908083835b602083106142275780518252602082019150602081019050602083039250614204565b6001836020036101000a038019825116818451168082178552505050505050905001915050908152602001604051809103902060008201518160000160006101000a81548160ff02191690831515021790555060208201518160000160016101000a81548160ff02191690831515021790555060408201518160000160026101000a81548160ff02191690831515021790555060608201518160000160036101000a81548160ff02191690831515021790555060808201518160000160046101000a81548160ff02191690831515021790555060a08201518160000160056101000a81548160ff0219169083151502179055509050505050565b6000803342604051602001808373ffffffffffffffffffffffffffffffffffffffff1673ffffffffffffffffffffffffffffffffffffffff1660601b815260140182815260200192505050604051602081830303815290604052805190602001209050806005600083815260200190815260200160002060000181905550856005600083815260200190815260200160002060010190805190602001906143c9929190615027565b50846005600083815260200190815260200160002060020190805190602001906143f4929190615027565b5083600560008381526020019081526020016000206003018190555082600560008381526020019081526020016000206004018190555060016005600083815260200190815260200160002060050181905550336005600083815260200190815260200160002060060160006101000a81548173ffffffffffffffffffffffffffffffffffffffff021916908373ffffffffffffffffffffffffffffffffffffffff16021790555060006005600083815260200190815260200160002060080160146101000a81548160ff02191690831515021790555060006005600083815260200190815260200160002060080160156101000a81548160ff02191690831515021790555060006005600083815260200190815260200160002090806001815401808255809150509060018203906000526020600020906009020160009091929091909150600082015481600001556001820181600101908054600181600116156101000203166002900461456b9291906150a7565b50600282018160020190805460018160011615610100020316600290046145939291906150a7565b506003820154816003015560048201548160040155600582015481600501556006820160009054906101000a900473ffffffffffffffffffffffffffffffffffffffff168160060160006101000a81548173ffffffffffffffffffffffffffffffffffffffff021916908373ffffffffffffffffffffffffffffffffffffffff1602179055506007820160009054906101000a900473ffffffffffffffffffffffffffffffffffffffff168160070160006101000a81548173ffffffffffffffffffffffffffffffffffffffff021916908373ffffffffffffffffffffffffffffffffffffffff1602179055506008820160009054906101000a900473ffffffffffffffffffffffffffffffffffffffff168160080160006101000a81548173ffffffffffffffffffffffffffffffffffffffff021916908373ffffffffffffffffffffffffffffffffffffffff1602179055506008820160149054906101000a900460ff168160080160146101000a81548160ff0219169083151502179055506008820160159054906101000a900460ff168160080160156101000a81548160ff02191690831515021790555050505060006007600083815260200190815260200160002060010181905550600060086000838152602001908152602001600020600101819055507f84da1dfa878cde3958dc262481e78ce41b053b31922de36a7b469d8905fb329981426040518083815260200180602001838152602001828103825260078152602001807f4372656174656400000000000000000000000000000000000000000000000000815250602001935050505060405180910390a180915050949350505050565b600c826040518082805190602001908083835b602083106148365780518252602082019150602081019050602083039250614813565b6001836020036101000a038019825116818451168082178552505050505050905001915050908152602001604051809103902060000160009054906101000a900460ff1680156148fd5750600c826040518082805190602001908083835b602083106148b75780518252602082019150602081019050602083039250614894565b6001836020036101000a038019825116818451168082178552505050505050905001915050908152602001604051809103902060000160039054906101000a900460ff16155b15614b965760405160200180807f5368697070657200000000000000000000000000000000000000000000000000815250600701905060405160208183030381529060405280519060200120816040516020018082805190602001908083835b60208310614980578051825260208201915060208101905060208303925061495d565b6001836020036101000a038019825116818451168082178552505050505050905001915050604051602081830303815290604052805190602001201415614a4b576001600c836040518082805190602001908083835b602083106149f957805182526020820191506020810190506020830392506149d6565b6001836020036101000a038019825116818451168082178552505050505050905001915050908152602001604051809103902060000160026101000a81548160ff021916908315150217905550614b91565b60405160200180807f536869704f776e65720000000000000000000000000000000000000000000000815250600901905060405160208183030381529060405280519060200120816040516020018082805190602001908083835b60208310614ac95780518252602082019150602081019050602083039250614aa6565b6001836020036101000a038019825116818451168082178552505050505050905001915050604051602081830303815290604052805190602001201415614b90576001600c836040518082805190602001908083835b60208310614b425780518252602082019150602081019050602083039250614b1f565b6001836020036101000a038019825116818451168082178552505050505050905001915050908152602001604051809103902060000160016101000a81548160ff0219169083151502179055505b5b614eaf565b600c826040518082805190602001908083835b60208310614bcc5780518252602082019150602081019050602083039250614ba9565b6001836020036101000a038019825116818451168082178552505050505050905001915050908152602001604051809103902060000160039054906101000a900460ff1615614eae5760405160200180807f5368697070657200000000000000000000000000000000000000000000000000815250600701905060405160208183030381529060405280519060200120816040516020018082805190602001908083835b60208310614c935780518252602082019150602081019050602083039250614c70565b6001836020036101000a038019825116818451168082178552505050505050905001915050604051602081830303815290604052805190602001201415614d5e576001600c836040518082805190602001908083835b60208310614d0c5780518252602082019150602081019050602083039250614ce9565b6001836020036101000a038019825116818451168082178552505050505050905001915050908152602001604051809103902060000160056101000a81548160ff021916908315150217905550614ead565b60405160200180807f536869704f776e65720000000000000000000000000000000000000000000000815250600901905060405160208183030381529060405280519060200120816040516020018082805190602001908083835b60208310614ddc5780518252602082019150602081019050602083039250614db9565b6001836020036101000a038019825116818451168082178552505050505050905001915050604051602081830303815290604052805190602001201415614ea7576001600c836040518082805190602001908083835b60208310614e555780518252602082019150602081019050602083039250614e32565b6001836020036101000a038019825116818451168082178552505050505050905001915050908152602001604051809103902060000160046101000a81548160ff021916908315150217905550614eac565b600080fd5b5b5b5b5050565b80600460008473ffffffffffffffffffffffffffffffffffffffff1673ffffffffffffffffffffffffffffffffffffffff1681526020019081526020016000209080519060200190614f06929190615027565b507f8f80a056e17841cc864870412509e01a65d8443e595e6e118e03f09b42ee6830816040518080602001828103825283818151815260200191508051906020019080838360005b83811015614f69578082015181840152602081019050614f4e565b50505050905090810190601f168015614f965780820380516001836020036101000a031916815260200191505b509250505060405180910390a15050565b828054600181600116156101000203166002900490600052602060002090601f016020900481019282601f10614fe857805160ff1916838001178555615016565b82800160010185558215615016579182015b82811115615015578251825591602001919060010190614ffa565b5b509050615023919061512e565b5090565b828054600181600116156101000203166002900490600052602060002090601f016020900481019282601f1061506857805160ff1916838001178555615096565b82800160010185558215615096579182015b8281111561509557825182559160200191906001019061507a565b5b5090506150a3919061512e565b5090565b828054600181600116156101000203166002900490600052602060002090601f016020900481019282601f106150e0578054855561511d565b8280016001018555821561511d57600052602060002091601f016020900482015b8281111561511c578254825591600101919060010190615101565b5b50905061512a919061512e565b5090565b61515091905b8082111561514c576000816000905550600101615134565b5090565b9056fe436c65616e65642c2077616974696e6720666f722073686970206f776e6572277320636f6e6669726d6174696f6e73a265627a7a723158206fb8f7f7031c542ffc54b43a17417ae76bde66ec8c648d730da5e708cf64aa1464736f6c63430005100032",
  "source": "pragma solidity ^0.5.16;\n\ncontract Logistics {\n\tstruct Order {\n        bytes32 orderID;\n        string from;\n        string to;\n        uint freightClass;  //1normal, 2fluid, 3dangerous \n        uint estimate_arrival_time;\n        uint orderStatus; //1Created, 2Comfirmed, 3Processing, 4ended, 5canceled. ShippingStatus similar.\n        address orderOwner;\n        address shipper;\n        address shipOwner;\n        bool bidByShipper;\n        bool bidByShipOwner;\n    }\n\n    struct Ship {\n        string shipID;\n        address shipOwner; \n        uint shipStatus; //AtPort, WaitingCleaning, Cleaned, Loading, Loaded, Unloading, Unloaded\n        uint startWaterDisplacement;\n        uint endWaterDisplacement;\n        //stateHistory[] shipStateHistory;\n    }\n    \n    struct ClearanceRequest {\n        string shipID;\n        address requestor;\n    }\n\n    struct Document {\n        string ipfsHash;\n        bool signedByShipOwner;\n    }\n\n    struct Confirmation {\n        bool startMeasured;\n        bool signedByShipOwnerStart;\n        bool signedByShipperStart;\n        bool endMeasured;\n        bool signedByShipOwnerEnd;\n        bool signedByShipperEnd;\n    }\n    \n    struct Bid {\n        address bidder;\n        uint currentPrice;\n    }\n    \n    struct OrderOwnership {\n        address shipper;\n        address shipOwner;\n    }\n\n\tOrder[] public orders;\n    Ship[] public ships;\n    ClearanceRequest[] public clearanceRequests;\n    address private owner;\n\n    mapping(address => string) public roles; //Client, Shipper, Inspector, Gauger, hipOwner\n    mapping(bytes32 => Order) public ordermapping; //orderID to a order struct\n    mapping(string => Ship) public shipmapping;  //shipID to a ship struct\n    mapping(bytes32 => Bid) private shipperBidder; \n    mapping(bytes32 => Bid) private shipOwnerBidder; \n    //mapping(bytes32 => address) public orderToShipOwner;  //place a order to ship company\n    //mapping(bytes32 => address) orderOwnership; //who would take order to ship line\n    mapping(address => string) public shipOwnership; //owner to ship\n    mapping(bytes32 => OrderOwnership) private orderAssignment;\n    mapping(string => Document) public shipClearanceReport;\n    mapping(string => Confirmation) public confirmations;\n\n    event roleSet(string role);\n    event accessDenied(string role);\n    event UpdateorderStatus(bytes32 orderID, string orderStatus, uint ts);\n    event UpdateshipStatus(string shipID, string shipStatus, uint ts);\n    event UpdateDocStatus(address CreatorOrSigner, string ipfsHash, string role);\n    event bidByOthers(address add, string str);\n    //event DocSigned(address from, uint256 docId, uint8 singId, bytes16 signType, bytes sign);\n\n    \n    modifier hasRole(string memory role) {\n    if (keccak256(abi.encodePacked(roles[msg.sender])) != keccak256(abi.encodePacked(role))) {\n      emit accessDenied(role);\n      return;\n    }\n    _;\n  }\n/*\n    modifier onlyOwner() {\n        require(owner == msg.sender, \"Ownable: caller is not the owner\");\n        _;\n    }*/\n\n    constructor () public {\n        owner = msg.sender;\n    }\n\n    function setRole(address addr, string memory role) public {\n        roles[addr] = role;\n        //shipOwners.push(msg.sender);\n        emit roleSet(role);\n    }\n\n    function getRole(address addr) public view returns (string memory) {\n        return roles[addr];\n    }\n    \n    function createOrder (string memory from, string memory to, uint freightClass, uint estimate_arrival_time) public returns(bytes32) {\n        bytes32 uniqueId = keccak256(abi.encodePacked(msg.sender, now));\n        ordermapping[uniqueId].orderID = uniqueId;\n        ordermapping[uniqueId].from = from;\n        ordermapping[uniqueId].to = to;\n        ordermapping[uniqueId].freightClass = freightClass;\n        ordermapping[uniqueId].estimate_arrival_time = estimate_arrival_time;\n        ordermapping[uniqueId].orderStatus = 1;\n        ordermapping[uniqueId].orderOwner = msg.sender;\n        ordermapping[uniqueId].bidByShipper = false;\n        ordermapping[uniqueId].bidByShipOwner = false;\n        orders.push(ordermapping[uniqueId]);\n        shipperBidder[uniqueId].currentPrice = 0;\n        shipOwnerBidder[uniqueId].currentPrice = 0;\n        emit UpdateorderStatus(uniqueId, 'Created', now);\n        return uniqueId;\n    }\n\n    function bidOrderByShipper(bytes32 orderID, uint price) public {\n        require(ordermapping[orderID].orderStatus == 1);\n        require(price > shipperBidder[orderID].currentPrice, 'price too low');\n        shipperBidder[orderID].bidder = msg.sender;\n        shipperBidder[orderID].currentPrice = price;\n        ordermapping[orderID].bidByShipper = true;\n        emit bidByOthers(msg.sender, 'bid by shipper');\n    }\n\n    function bidOrderByShipOwner(bytes32 orderID, uint price) public {\n        require(ordermapping[orderID].orderStatus == 1);\n        require(price > shipOwnerBidder[orderID].currentPrice, 'price too low');\n        shipOwnerBidder[orderID].bidder = msg.sender;\n        shipOwnerBidder[orderID].currentPrice = price;\n        ordermapping[orderID].bidByShipOwner = true;\n        emit bidByOthers(msg.sender, 'bid by ship');\n    }\n\n    function adminOrder(bytes32 orderID) public {\n        require(ordermapping[orderID].orderOwner == msg.sender, 'not creator');\n        require(ordermapping[orderID].bidByShipper && ordermapping[orderID].bidByShipOwner, 'No one bid yet');\n        for(uint i=0; i<orders.length; i++){\n            if (orders[i].orderID == orderID){\n                orders[i].shipper = shipperBidder[orderID].bidder;\n                orders[i].shipOwner = shipOwnerBidder[orderID].bidder;\n                orders[i].orderStatus = 2;    //to processing part\n            }\n        }\n        /*\n        ordermapping[orderID].shipper = shipperBidder[orderID].bidder;\n        ordermapping[orderID].shipOwner = shipOwnerBidder[orderID].bidder;\n        ordermapping[orderID].orderStatus = 2;*/\n    }\n/*\n    function getOrderAssignment(bytes32 orderID) public view returns(address shipper, address shipOwner) {\n        require(ordermapping[orderID].orderOwner == msg.sender);\n        return (orderAssignment[orderID].shipper, orderAssignment[orderID].shipOwner);\n    }*/\n    \n\tfunction getOrderCount() public view returns(uint) {\n\t\treturn orders.length;\n\t}\n\n    function getShipCount() public view returns(uint) {\n\t\treturn ships.length;\n\t}\n\n    function getClearanceRequestsCount() public view returns(uint) {\n        return clearanceRequests.length;\n    }\n\n    function AddShip(string memory shipID) public {\n        shipmapping[shipID].shipID = shipID;\n        shipmapping[shipID].shipOwner = msg.sender;\n        shipmapping[shipID].shipStatus = 1;\n        //ships[ships.length].shipStateHistory[0].currentState ='At Port';\n        //ships[ships.length].shipStateHistory[0].currentTs = now;\n        shipOwnership[msg.sender] = shipID;\n        ships.push(shipmapping[shipID]);\n        emit UpdateshipStatus(shipID, 'At port', now);\n    }\n/*\n    function ChooseShipOwner(string memory shipID, bytes32 orderID) hasRole('Shipper') public {\n        //orderToShip[orderID] = shipID;\n        // work with a packlist\n        ordermapping[orderID].orderStatus = 3;  //processing\n        \n        for(uint i=0; i<orders.length; i++){\n            if (orders[i].orderID == orderID){\n                orders[i].orderStatus = 3;\n            }\n        }\n        //ordermapping[orderID].orderStateHistory[2].currentState ='Processing in dispatch port';\n        //ordermapping[orderID].orderStateHistory[2].currentTs = now;\n    }*/\n/*\n    function ChooseShipOwner(address shipOwner, bytes32 orderID) hasRole('Shipper') public {\n        orderToShipOwner[orderID] = shipOwner;\n        //generally work with a packlist but now seen as single order\n        ordermapping[orderID].orderStatus = 3;  //processing\n        for(uint i=0; i<orders.length; i++){\n            if (orders[i].orderID == orderID){\n                orders[i].orderStatus = 3;\n            }\n        }\n    }*/\n\n\n\n    function AskForClearance(string memory shipID) public {\n        if (shipmapping[shipID].shipOwner == msg.sender && shipmapping[shipID].shipStatus == 1) {\n            for(uint i=0; i<ships.length; i++){\n                if (keccak256(abi.encodePacked(ships[i].shipID)) == keccak256(abi.encodePacked(shipID))) {\n                    ships[i].shipStatus = 2;    //to processing part\n                }\n            }\n            shipmapping[shipID].shipStatus == 2;\n            clearanceRequests.push(ClearanceRequest(shipID, msg.sender));\n            emit UpdateshipStatus(shipID, 'Waiting for clearance inspection', now);\n        } \n    }\n\n    function UploadClearanceReport(string memory shipID, string memory ipfsHash) public {\n        //bytes32 uniqueId = keccak256(abi.encodePacked(msg.sender, now));\n        //signedDocs[msg.sender].push(ipfsHash); //Add document to users's \"signed\" list\n        //docmapping[uniqueId] = Document(ipfsHash, msg.sender, shipID, now);\n        shipClearanceReport[shipID] = Document(ipfsHash, false);\n        shipmapping[shipID].shipStatus = 3; //cleaned\n        emit UpdateshipStatus(shipID, 'Cleaned, waiting for ship owner\\'s confirmations', now);\n        emit UpdateDocStatus(msg.sender, ipfsHash, 'Inspector has been upload doc.');\n    }\n\n    function SignClearanceReport(string memory shipID, string memory ipfsHash) public { //shipper and shipOwner would sign Report\n        shipClearanceReport[shipID].signedByShipOwner = true;\n        emit UpdateDocStatus(msg.sender, ipfsHash, 'Ship owner signed doc.');\n    }\n    \n    function StartWaterDisplacement(string memory shipID, uint measure) public {\n        require(shipClearanceReport[shipID].signedByShipOwner);\n        shipmapping[shipID].startWaterDisplacement = measure;\n        confirmations[shipID] = Confirmation(true, false, false, false, false, false);\n    }\n    \n    function EnableLoad(string memory shipID) public {\n        if (confirmations[shipID].signedByShipperStart && confirmations[shipID].signedByShipOwnerStart) {\n            shipmapping[shipID].shipStatus = 4; //enable Loading\n            emit UpdateshipStatus(shipID, 'Can start loading...', now);\n        }\n    }\n    \n    function EndWaterDisplacement(string memory shipID, uint measure) public {\n        require(confirmations[shipID].startMeasured && confirmations[shipID].signedByShipperStart && confirmations[shipID].signedByShipperStart);\n        shipmapping[shipID].endWaterDisplacement = measure;\n        confirmations[shipID].endMeasured = true;\n    }\n    \n    function SignConfirmation(string memory shipID, string memory role) public {\n        if (confirmations[shipID].startMeasured && !confirmations[shipID].endMeasured) {\n            if (keccak256(abi.encodePacked(role)) == keccak256(abi.encodePacked('Shipper'))) {\n                confirmations[shipID].signedByShipperStart = true;\n            }\n            else if (keccak256(abi.encodePacked(role)) == keccak256(abi.encodePacked('ShipOwner'))) {\n                confirmations[shipID].signedByShipOwnerStart = true;\n            }\n        } \n        else if (confirmations[shipID].endMeasured) {\n            if (keccak256(abi.encodePacked(role)) == keccak256(abi.encodePacked('Shipper'))) {\n                confirmations[shipID].signedByShipperEnd = true;\n            }\n            else if (keccak256(abi.encodePacked(role)) == keccak256(abi.encodePacked('ShipOwner'))) {\n                confirmations[shipID].signedByShipOwnerEnd = true;\n            }\n        else revert();\n        }\n    }\n\n    function LoadGoods(string memory shipID) hasRole('Shipper') public {\n        require(shipmapping[shipID].shipStatus == 4);\n        shipmapping[shipID].shipStatus = 5; //Finish loading\n        emit UpdateshipStatus(shipID, 'All goods has been loaded', now);\n    }\n    \n}\n\n\n/*\n    function ApproveClearanceReport(bytes32 orderID, bytes memory docID, bytes memory signature) hasRole('ShipOwner') public\n    {\n        bytes32 message = keccak256(abi.encodePacked(msg.sender, docID, this));\n        require(recoverSigner(message, signature) == msg.sender);\n        emit UpdateshipStatus(orderID, 'Approve Clearance Report');\n    }\n    \n    function recoverSigner(bytes32 message, bytes memory sig)\n    internal\n    pure\n    returns (address)\n    {\n        (uint8 v, bytes32 r, bytes32 s) = splitSignature(sig);\n\n        return ecrecover(message, v, r, s);\n    }\n\n    /// signature methods.\n    function splitSignature(bytes memory sig)\n    internal\n    pure\n        returns (uint8 v, bytes32 r, bytes32 s)\n    {\n        require(sig.length == 65);\n\n        assembly {\n            // first 32 bytes, after the length prefix.\n            r := mload(add(sig, 32))\n            // second 32 bytes.\n            s := mload(add(sig, 64))\n            // final byte (first byte of the next 32 bytes).\n            v := byte(0, mload(add(sig, 96)))\n        }\n        return (v, r, s);\n    }\n*/\n\n",
  "sourcePath": "/Users/yangqingqing/Documents/ReactDemo/IdM/contracts/Logistics.sol",
  "compiler": {
    "name": "solc",
    "version": "0.5.16+commit.9c3226ce.Emscripten.clang"
  },
  "schemaVersion": "3.3.4",
  "updatedAt": "2021-03-20T15:32:25.661Z",
  "networkType": "ethereum",
  "devdoc": {
    "methods": {}
  },
  "userdoc": {
    "methods": {}
  }
}