{
  "contractName": "OrderTransportation",
  "abi": [
    {
      "inputs": [
        {
          "internalType": "string",
          "name": "from",
          "type": "string"
        },
        {
          "internalType": "string",
          "name": "to",
          "type": "string"
        },
        {
          "internalType": "uint256",
          "name": "freightClass",
          "type": "uint256"
        },
        {
          "internalType": "uint256",
          "name": "estimate_arrival_time",
          "type": "uint256"
        },
        {
          "internalType": "address",
          "name": "consignee",
          "type": "address"
        }
      ],
      "payable": false,
      "stateMutability": "nonpayable",
      "type": "constructor"
    },
    {
      "anonymous": false,
      "inputs": [
        {
          "indexed": false,
          "internalType": "string",
          "name": "message",
          "type": "string"
        },
        {
          "indexed": false,
          "internalType": "address",
          "name": "creator",
          "type": "address"
        }
      ],
      "name": "OrderCreated",
      "type": "event"
    },
    {
      "anonymous": false,
      "inputs": [
        {
          "indexed": false,
          "internalType": "string",
          "name": "message",
          "type": "string"
        },
        {
          "indexed": false,
          "internalType": "address",
          "name": "sender",
          "type": "address"
        }
      ],
      "name": "OrderStatusUpdated",
      "type": "event"
    },
    {
      "anonymous": false,
      "inputs": [
        {
          "indexed": false,
          "internalType": "string",
          "name": "role",
          "type": "string"
        }
      ],
      "name": "accessDenied",
      "type": "event"
    },
    {
      "anonymous": false,
      "inputs": [
        {
          "indexed": false,
          "internalType": "string",
          "name": "role",
          "type": "string"
        }
      ],
      "name": "roleSet",
      "type": "event"
    },
    {
      "constant": true,
      "inputs": [],
      "name": "InstanceConsignee",
      "outputs": [
        {
          "internalType": "address",
          "name": "",
          "type": "address"
        }
      ],
      "payable": false,
      "stateMutability": "view",
      "type": "function"
    },
    {
      "constant": true,
      "inputs": [],
      "name": "InstanceDestinationCustoms",
      "outputs": [
        {
          "internalType": "address",
          "name": "",
          "type": "address"
        }
      ],
      "payable": false,
      "stateMutability": "view",
      "type": "function"
    },
    {
      "constant": true,
      "inputs": [],
      "name": "InstanceDestinationCustomsBroker",
      "outputs": [
        {
          "internalType": "address",
          "name": "",
          "type": "address"
        }
      ],
      "payable": false,
      "stateMutability": "view",
      "type": "function"
    },
    {
      "constant": true,
      "inputs": [],
      "name": "InstanceDrayageAgent",
      "outputs": [
        {
          "internalType": "address",
          "name": "",
          "type": "address"
        }
      ],
      "payable": false,
      "stateMutability": "view",
      "type": "function"
    },
    {
      "constant": true,
      "inputs": [],
      "name": "InstanceOrder",
      "outputs": [
        {
          "internalType": "string",
          "name": "from",
          "type": "string"
        },
        {
          "internalType": "string",
          "name": "to",
          "type": "string"
        },
        {
          "internalType": "uint256",
          "name": "freightClass",
          "type": "uint256"
        },
        {
          "internalType": "uint256",
          "name": "estimate_arrival_time",
          "type": "uint256"
        },
        {
          "internalType": "address",
          "name": "consiginee",
          "type": "address"
        }
      ],
      "payable": false,
      "stateMutability": "view",
      "type": "function"
    },
    {
      "constant": true,
      "inputs": [],
      "name": "InstanceOriginCustoms",
      "outputs": [
        {
          "internalType": "address",
          "name": "",
          "type": "address"
        }
      ],
      "payable": false,
      "stateMutability": "view",
      "type": "function"
    },
    {
      "constant": true,
      "inputs": [],
      "name": "InstanceShipper",
      "outputs": [
        {
          "internalType": "address",
          "name": "",
          "type": "address"
        }
      ],
      "payable": false,
      "stateMutability": "view",
      "type": "function"
    },
    {
      "constant": true,
      "inputs": [],
      "name": "State",
      "outputs": [
        {
          "internalType": "enum OrderTransportation.StateType",
          "name": "",
          "type": "uint8"
        }
      ],
      "payable": false,
      "stateMutability": "view",
      "type": "function"
    },
    {
      "constant": true,
      "inputs": [
        {
          "internalType": "address",
          "name": "",
          "type": "address"
        }
      ],
      "name": "roles",
      "outputs": [
        {
          "internalType": "string",
          "name": "",
          "type": "string"
        }
      ],
      "payable": false,
      "stateMutability": "view",
      "type": "function"
    }
  ],
  "bytecode": "0x608060405234801561001057600080fd5b50604051610c61380380610c61833981810160405260a081101561003357600080fd5b810190808051604051939291908464010000000082111561005357600080fd5b8382019150602082018581111561006957600080fd5b825186600182028301116401000000008211171561008657600080fd5b8083526020830192505050908051906020019080838360005b838110156100ba57808201518184015260208101905061009f565b50505050905090810190601f1680156100e75780820380516001836020036101000a031916815260200191505b506040526020018051604051939291908464010000000082111561010a57600080fd5b8382019150602082018581111561012057600080fd5b825186600182028301116401000000008211171561013d57600080fd5b8083526020830192505050908051906020019080838360005b83811015610171578082015181840152602081019050610156565b50505050905090810190601f16801561019e5780820380516001836020036101000a031916815260200191505b506040526020018051906020019092919080519060200190929190805190602001909291905050506040518060a001604052808681526020018581526020018481526020018381526020018273ffffffffffffffffffffffffffffffffffffffff168152506000808201518160000190805190602001906102209291906103f0565b50602082015181600101908051906020019061023d9291906103f0565b50604082015181600201556060820151816003015560808201518160040160006101000a81548173ffffffffffffffffffffffffffffffffffffffff021916908373ffffffffffffffffffffffffffffffffffffffff1602179055509050506000600560006101000a81548160ff0219169083600b8111156102bb57fe5b021790555060074290806001815401808255809150509060018203906000526020600020016000909192909190915055506006600560009054906101000a900460ff16908060018154018082558091505090600182039060005260206000209060209182820401919006909192909190916101000a81548160ff0219169083600b81111561034557fe5b0217905550507ebfe3e38a44c240d62c74b7087a28fbee1d69d6f215535d49241fd7af1a11993360405180806020018373ffffffffffffffffffffffffffffffffffffffff1673ffffffffffffffffffffffffffffffffffffffff168152602001828103825260178152602001807f4f72646572206372656174656420627920636c69656e740000000000000000008152506020019250505060405180910390a15050505050610495565b828054600181600116156101000203166002900490600052602060002090601f016020900481019282601f1061043157805160ff191683800117855561045f565b8280016001018555821561045f579182015b8281111561045e578251825591602001919060010190610443565b5b50905061046c9190610470565b5090565b61049291905b8082111561048e576000816000905550600101610476565b5090565b90565b6107bd806104a46000396000f3fe608060405234801561001057600080fd5b50600436106100935760003560e01c8063993746421161006657806399374642146102a6578063f1b6dccd14610363578063f5ec14cb1461038f578063f6c96e2d146103d9578063feeeeac01461042357610093565b806385090ac71461009857806389ffce52146100e2578063911ee4a31461012c578063940637ae14610176575b600080fd5b6100a061046d565b604051808273ffffffffffffffffffffffffffffffffffffffff1673ffffffffffffffffffffffffffffffffffffffff16815260200191505060405180910390f35b6100ea610493565b604051808273ffffffffffffffffffffffffffffffffffffffff1673ffffffffffffffffffffffffffffffffffffffff16815260200191505060405180910390f35b6101346104b9565b604051808273ffffffffffffffffffffffffffffffffffffffff1673ffffffffffffffffffffffffffffffffffffffff16815260200191505060405180910390f35b61017e6104df565b6040518080602001806020018681526020018581526020018473ffffffffffffffffffffffffffffffffffffffff1673ffffffffffffffffffffffffffffffffffffffff168152602001838103835288818151815260200191508051906020019080838360005b838110156102005780820151818401526020810190506101e5565b50505050905090810190601f16801561022d5780820380516001836020036101000a031916815260200191505b50838103825287818151815260200191508051906020019080838360005b8381101561026657808201518184015260208101905061024b565b50505050905090810190601f1680156102935780820380516001836020036101000a031916815260200191505b5097505050505050505060405180910390f35b6102e8600480360360208110156102bc57600080fd5b81019080803573ffffffffffffffffffffffffffffffffffffffff169060200190929190505050610653565b6040518080602001828103825283818151815260200191508051906020019080838360005b8381101561032857808201518184015260208101905061030d565b50505050905090810190601f1680156103555780820380516001836020036101000a031916815260200191505b509250505060405180910390f35b61036b610703565b6040518082600b81111561037b57fe5b60ff16815260200191505060405180910390f35b610397610716565b604051808273ffffffffffffffffffffffffffffffffffffffff1673ffffffffffffffffffffffffffffffffffffffff16815260200191505060405180910390f35b6103e161073c565b604051808273ffffffffffffffffffffffffffffffffffffffff1673ffffffffffffffffffffffffffffffffffffffff16815260200191505060405180910390f35b61042b610762565b604051808273ffffffffffffffffffffffffffffffffffffffff1673ffffffffffffffffffffffffffffffffffffffff16815260200191505060405180910390f35b600b60009054906101000a900473ffffffffffffffffffffffffffffffffffffffff1681565b600d60009054906101000a900473ffffffffffffffffffffffffffffffffffffffff1681565b600a60009054906101000a900473ffffffffffffffffffffffffffffffffffffffff1681565b6000806000018054600181600116156101000203166002900480601f0160208091040260200160405190810160405280929190818152602001828054600181600116156101000203166002900480156105795780601f1061054e57610100808354040283529160200191610579565b820191906000526020600020905b81548152906001019060200180831161055c57829003601f168201915b505050505090806001018054600181600116156101000203166002900480601f0160208091040260200160405190810160405280929190818152602001828054600181600116156101000203166002900480156106175780601f106105ec57610100808354040283529160200191610617565b820191906000526020600020905b8154815290600101906020018083116105fa57829003601f168201915b5050505050908060020154908060030154908060040160009054906101000a900473ffffffffffffffffffffffffffffffffffffffff16905085565b600e6020528060005260406000206000915090508054600181600116156101000203166002900480601f0160208091040260200160405190810160405280929190818152602001828054600181600116156101000203166002900480156106fb5780601f106106d0576101008083540402835291602001916106fb565b820191906000526020600020905b8154815290600101906020018083116106de57829003601f168201915b505050505081565b600560009054906101000a900460ff1681565b600960009054906101000a900473ffffffffffffffffffffffffffffffffffffffff1681565b600c60009054906101000a900473ffffffffffffffffffffffffffffffffffffffff1681565b600860009054906101000a900473ffffffffffffffffffffffffffffffffffffffff168156fea265627a7a72315820850838fa72cfb6cde683f05598c8f3110f7b55e60f1efc08b6879ce1c57ec6c464736f6c63430005100032",
  "source": "pragma solidity ^0.5.16;\n\ncontract OrderTransportation {\n\tstruct Order {\n        //bytes32 orderID;\n        string from;\n        string to;\n        uint freightClass;  //1normal, 2fluid, 3dangerous \n        uint estimate_arrival_time;\n        address consiginee;\n    }\n\n    enum StateType { BeginTrade, ExportClearance, ShipmentInitiation, ShipmentBoarding, TransferBillOfLading, ShipmentInTransit, ImportClearance, RecoverShipment, ShipmentDelivery, ShipmentFinalize, ShipmentComplete, Terminated }\n    Order public InstanceOrder;\n    StateType public State;\n    StateType[] stateHistory;\n    uint[] lastAction;\n\n    \n    address public InstanceShipper;\n    address public InstanceOriginCustoms;\n    address public InstanceDrayageAgent;\n    address public InstanceDestinationCustomsBroker;\n    address public InstanceDestinationCustoms;\n    address public InstanceConsignee;\n    //uint orderStatus; //1Created, 2Comfirmed, 3Processing, 4ended, 5canceled. ShippingStatus similar.\n\n    mapping(address => string) public roles; //Client, Shipper, Inspector, Gauger, hipOwner\n\n    event roleSet(string role);\n    event accessDenied(string role);\n    event OrderCreated(string message, address creator);\n    event OrderStatusUpdated(string message, address sender);\n    \n    modifier hasRole(string memory role) {\n    if (keccak256(abi.encodePacked(roles[msg.sender])) != keccak256(abi.encodePacked(role))) {\n      emit accessDenied(role);\n      return;\n    }\n    _;\n  }\n\n    constructor(string memory from, string memory to, uint freightClass, uint estimate_arrival_time, address consignee) public{\n        InstanceOrder = Order(from, to, freightClass, estimate_arrival_time, consignee);\n        State = StateType.BeginTrade;\n        lastAction.push(now);\n        stateHistory.push(State);\n        emit OrderCreated('Order created by client', msg.sender);\n    }\n/*\n    function setRole(address addr, string memory role) public {\n        roles[addr] = role;\n        shipOwners.push(msg.sender);\n        emit roleSet(role);\n    }\n\n    function getRole(address addr) public view returns (string memory) {\n        return roles[addr];\n    }\n    \n    function createOrder (string memory from, string memory to, uint freightClass, uint estimate_arrival_time) hasRole('Client') public returns(bytes32) {\n        bytes32 uniqueId = keccak256(abi.encodePacked(msg.sender, now));\n        ordermapping[uniqueId].orderID = uniqueId;\n        ordermapping[uniqueId].from = from;\n        ordermapping[uniqueId].to = to;\n        ordermapping[uniqueId].freightClass = freightClass;\n        ordermapping[uniqueId].estimate_arrival_time = estimate_arrival_time;\n        ordermapping[uniqueId].orderOwner = msg.sender;\n        ordermapping[uniqueId].orderStatus = 1;\n        //ordermapping[uniqueId].timestamp = now;\n        //ordermapping[uniqueId].orderStateHistory[0].currentState ='Created';\n        //ordermapping[uniqueId].orderStateHistory[0].currentTs = now;\n        orders.push(ordermapping[uniqueId]);\n        emit UpdateorderStatus(uniqueId, 'Created', now);\n        return uniqueId;\n    }\n\n    function bidOrder(bytes32 orderID) hasRole('Shipper') public {\n        require(ordermapping[orderID].orderStatus == 1);\n        ordermapping[orderID].shipper = msg.sender;\n        ordermapping[orderID].orderStatus = 2;\n            //ordermapping[orderID].orderStateHistory[1].currentState ='Confirmed';\n            //ordermapping[orderID].orderStateHistory[1].currentTs = now;\n            //orders[orders.length].orderStateHistory.push('Confirmed', now);\n        for(uint i=0; i<orders.length; i++){\n            if (orders[i].orderID == orderID){\n                orders[i].shipper = msg.sender;\n                orders[i].orderStatus = 2;\n            }\n        }\n        emit UpdateorderStatus(orderID, 'Confirmed', now);\n        \n    }\n\n\tfunction getOrderCount() public view returns(uint) {\n\t\treturn orders.length;\n\t}\n\n    function AddShip() hasRole('ShipOwner') public {\n        bytes32 uniqueId = keccak256(abi.encodePacked(msg.sender, now));\n        uint shipStatus = 1;\n        shipmapping[uniqueId].shipID = uniqueId;\n        shipmapping[uniqueId].shipOwner = msg.sender;\n        shipmapping[uniqueId].shipStatus = shipStatus;\n        //ships[ships.length].shipStateHistory[0].currentState ='At Port';\n        //ships[ships.length].shipStateHistory[0].currentTs = now;\n        shipOwnership[msg.sender].push(uniqueId);\n        emit UpdateshipStatus(uniqueId, 'At port', now);\n    }\n\n    function ChooseShipOwner(bytes32 shipID, bytes32 orderID) hasRole('Shipper') public {\n        //orderToShip[orderID] = shipID;\n        // work with a packlist\n        ordermapping[orderID].orderStatus = 3;  //processing\n        \n        for(uint i=0; i<orders.length; i++){\n            if (orders[i].orderID == orderID){\n                orders[i].orderStatus = 3;\n            }\n        }\n        //ordermapping[orderID].orderStateHistory[2].currentState ='Processing in dispatch port';\n        //ordermapping[orderID].orderStateHistory[2].currentTs = now;\n    }\n\n    function ChooseShipOwner(address shipOwner, bytes32 orderID) hasRole('Shipper') public {\n        orderToShipOwner[orderID] = shipOwner;\n        //generally work with a packlist but now seen as single order\n        ordermapping[orderID].orderStatus = 3;  //processing\n        for(uint i=0; i<orders.length; i++){\n            if (orders[i].orderID == orderID){\n                orders[i].orderStatus = 3;\n            }\n        }\n    }\n\n    function AskForClearance(bytes32 shipID) hasRole('ShipOwner') public {\n        if (shipmapping[shipID].shipOwner == msg.sender && shipmapping[shipID].shipStatus == 1) {\n            shipmapping[shipID].shipStatus = 2; \n            //shipmapping[shipID].shipStateHistory[1].currentState ='Waiting for cleaning';\n            //shipmapping[shipID].shipStateHistory[1].currentTs = now;\n            clearanceRequests.push(ClearanceRequest(shipID, msg.sender));\n            emit UpdateshipStatus(shipID, 'Waiting for clearance inspection', now);\n        } \n    }\n\n\n    function ShipClearance(bytes32 shipID, strings memory ipfsHash) hasRole('Inspector') public {\n        if ( UploadClearanceReport(shipID, ipfsHash) && shipmapping[shipID].shipStatus == 2) {\n            UploadClearanceReport(shipID, ipfsHash);\n            shipmapping[shipID].shipStatus = 3;\n            //shipmapping[shipID].shipStateHistory[2].currentState ='Inspected, waiting for confirmation from ship owner';\n            //shipmapping[shipID].shipStateHistory[2].currentTs = now;\n            emit UpdateshipStatus(shipID, 'Inspected', now);\n        }\n    }\n\n    function UploadClearanceReport(bytes32 shipID, string memory ipfsHash) hasRole('Inspector') public {\n        //bytes32 uniqueId = keccak256(abi.encodePacked(msg.sender, now));\n        //signedDocs[msg.sender].push(ipfsHash); //Add document to users's \"signed\" list\n        //docmapping[uniqueId] = Document(ipfsHash, msg.sender, shipID, now);\n        shipClearanceReport[shipID] = Document(ipfsHash, false);\n        shipmapping[shipID].shipStatus = 3; //cleaned\n        emit UpdateshipStatus(shipID, 'Cleaned, waiting for ship owner\\'s confirmations', now);\n        emit UpdateDocStatus(msg.sender, ipfsHash, 'Inspector has been upload doc.');\n    }\n\n    function SignClearanceReport(bytes32 shipID, string memory ipfsHash) hasRole('ShipOwner') public { //shipper and shipOwner would sign Report\n        shipClearanceReport[shipID].signedByShipOwner = true;\n        emit UpdateDocStatus(msg.sender, ipfsHash, 'Ship owner signed doc.');\n    }\n    \n    function StartWaterDisplacement(bytes32 shipID, uint measure) hasRole('Gauger') public {\n        require(shipClearanceReport[shipID].signedByShipOwner);\n        shipmapping[shipID].startWaterDisplacement = measure;\n        confirmations[shipID] = Confirmation(true, false, false, false, false, false);\n    }\n    \n    function EnableLoad(bytes32 shipID) public {\n        if (confirmations[shipID].signedByShipperStart && confirmations[shipID].signedByShipOwnerStart) {\n            shipmapping[shipID].shipStatus = 4; //enable Loading\n            emit UpdateshipStatus(shipID, 'Can start loading...', now);\n        }\n    }\n    \n    function EndWaterDisplacement(bytes32 shipID, uint measure) hasRole('Gauger') public {\n        require(confirmations[shipID].startMeasured && confirmations[shipID].signedByShipperStart && confirmations[shipID].signedByShipperStart);\n        shipmapping[shipID].endWaterDisplacement = measure;\n        confirmations[shipID].endMeasured = true;\n    }\n    \n    function SignConfirmation(bytes32 shipID, string memory role) public {\n        if (confirmations[shipID].startMeasured && !confirmations[shipID].endMeasured) {\n            if (keccak256(abi.encodePacked(role)) == keccak256(abi.encodePacked('Shipper'))) {\n                confirmations[shipID].signedByShipperStart = true;\n            }\n            else if (keccak256(abi.encodePacked(role)) == keccak256(abi.encodePacked('ShipOwner'))) {\n                confirmations[shipID].signedByShipOwnerStart = true;\n            }\n        } \n        else if (confirmations[shipID].endMeasured) {\n            if (keccak256(abi.encodePacked(role)) == keccak256(abi.encodePacked('Shipper'))) {\n                confirmations[shipID].signedByShipperEnd = true;\n            }\n            else if (keccak256(abi.encodePacked(role)) == keccak256(abi.encodePacked('ShipOwner'))) {\n                confirmations[shipID].signedByShipOwnerEnd = true;\n            }\n        else revert();\n        }\n    }\n\n    function LoadGoods(bytes32 shipID) hasRole('Shipper') public {\n        require(shipmapping[shipID].shipStatus == 4);\n        shipmapping[shipID].shipStatus = 5; //Finish loading\n        emit UpdateshipStatus(shipID, 'All goods has been loaded', now);\n    }*/\n    \n}\n\n\n/*\n    function ApproveClearanceReport(bytes32 orderID, bytes memory docID, bytes memory signature) hasRole('ShipOwner') public\n    {\n        bytes32 message = keccak256(abi.encodePacked(msg.sender, docID, this));\n        require(recoverSigner(message, signature) == msg.sender);\n        emit UpdateshipStatus(orderID, 'Approve Clearance Report');\n    }\n    \n    function recoverSigner(bytes32 message, bytes memory sig)\n    internal\n    pure\n    returns (address)\n    {\n        (uint8 v, bytes32 r, bytes32 s) = splitSignature(sig);\n\n        return ecrecover(message, v, r, s);\n    }\n\n    /// signature methods.\n    function splitSignature(bytes memory sig)\n    internal\n    pure\n        returns (uint8 v, bytes32 r, bytes32 s)\n    {\n        require(sig.length == 65);\n\n        assembly {\n            // first 32 bytes, after the length prefix.\n            r := mload(add(sig, 32))\n            // second 32 bytes.\n            s := mload(add(sig, 64))\n            // final byte (first byte of the next 32 bytes).\n            v := byte(0, mload(add(sig, 96)))\n        }\n        return (v, r, s);\n    }\n*/\n\n",
  "sourcePath": "/Users/yangqingqing/Documents/ReactDemo/IdM/contracts/OrderTransportation.sol",
  "compiler": {
    "name": "solc",
    "version": "0.5.16+commit.9c3226ce.Emscripten.clang"
  },
  "schemaVersion": "3.3.4",
  "updatedAt": "2021-03-20T15:32:25.934Z",
  "networkType": "ethereum",
  "devdoc": {
    "methods": {}
  },
  "userdoc": {
    "methods": {}
  }
}