{
  "contractName": "OrderFactory",
  "abi": [
    {
      "constant": true,
      "inputs": [
        {
          "internalType": "uint256",
          "name": "",
          "type": "uint256"
        }
      ],
      "name": "deployedOrders",
      "outputs": [
        {
          "internalType": "contract OrderTransportation",
          "name": "",
          "type": "address"
        }
      ],
      "payable": false,
      "stateMutability": "view",
      "type": "function"
    },
    {
      "constant": false,
      "inputs": [
        {
          "internalType": "string",
          "name": "from",
          "type": "string"
        },
        {
          "internalType": "string",
          "name": "to",
          "type": "string"
        },
        {
          "internalType": "uint256",
          "name": "freightClass",
          "type": "uint256"
        },
        {
          "internalType": "uint256",
          "name": "estimate_arrival_time",
          "type": "uint256"
        },
        {
          "internalType": "address",
          "name": "consignee",
          "type": "address"
        }
      ],
      "name": "createOrder",
      "outputs": [],
      "payable": false,
      "stateMutability": "nonpayable",
      "type": "function"
    },
    {
      "constant": true,
      "inputs": [],
      "name": "getDeployedOrder",
      "outputs": [
        {
          "internalType": "contract OrderTransportation[]",
          "name": "",
          "type": "address[]"
        }
      ],
      "payable": false,
      "stateMutability": "view",
      "type": "function"
    }
  ],
  "bytecode": "0x608060405234801561001057600080fd5b506111c2806100206000396000f3fe608060405234801561001057600080fd5b50600436106100415760003560e01c806326ebde5d146100465780637881e396146101cc578063d6333e0c1461022b575b600080fd5b6101ca600480360360a081101561005c57600080fd5b810190808035906020019064010000000081111561007957600080fd5b82018360208201111561008b57600080fd5b803590602001918460018302840111640100000000831117156100ad57600080fd5b91908080601f016020809104026020016040519081016040528093929190818152602001838380828437600081840152601f19601f8201169050808301925050505050505091929192908035906020019064010000000081111561011057600080fd5b82018360208201111561012257600080fd5b8035906020019184600183028401116401000000008311171561014457600080fd5b91908080601f016020809104026020016040519081016040528093929190818152602001838380828437600081840152601f19601f8201169050808301925050505050505091929192908035906020019092919080359060200190929190803573ffffffffffffffffffffffffffffffffffffffff169060200190929190505050610299565b005b6101d4610455565b6040518080602001828103825283818151815260200191508051906020019060200280838360005b838110156102175780820151818401526020810190506101fc565b505050509050019250505060405180910390f35b6102576004803603602081101561024157600080fd5b81019080803590602001909291905050506104e3565b604051808273ffffffffffffffffffffffffffffffffffffffff1673ffffffffffffffffffffffffffffffffffffffff16815260200191505060405180910390f35b600085858585856040516102ac9061051f565b8080602001806020018681526020018581526020018473ffffffffffffffffffffffffffffffffffffffff1673ffffffffffffffffffffffffffffffffffffffff168152602001838103835288818151815260200191508051906020019080838360005b8381101561032b578082015181840152602081019050610310565b50505050905090810190601f1680156103585780820380516001836020036101000a031916815260200191505b50838103825287818151815260200191508051906020019080838360005b83811015610391578082015181840152602081019050610376565b50505050905090810190601f1680156103be5780820380516001836020036101000a031916815260200191505b50975050505050505050604051809103906000f0801580156103e4573d6000803e3d6000fd5b50905060008190806001815401808255809150509060018203906000526020600020016000909192909190916101000a81548173ffffffffffffffffffffffffffffffffffffffff021916908373ffffffffffffffffffffffffffffffffffffffff16021790555050505050505050565b606060008054806020026020016040519081016040528092919081815260200182805480156104d957602002820191906000526020600020905b8160009054906101000a900473ffffffffffffffffffffffffffffffffffffffff1673ffffffffffffffffffffffffffffffffffffffff168152602001906001019080831161048f575b5050505050905090565b600081815481106104f057fe5b906000526020600020016000915054906101000a900473ffffffffffffffffffffffffffffffffffffffff1681565b610c618061052d8339019056fe608060405234801561001057600080fd5b50604051610c61380380610c61833981810160405260a081101561003357600080fd5b810190808051604051939291908464010000000082111561005357600080fd5b8382019150602082018581111561006957600080fd5b825186600182028301116401000000008211171561008657600080fd5b8083526020830192505050908051906020019080838360005b838110156100ba57808201518184015260208101905061009f565b50505050905090810190601f1680156100e75780820380516001836020036101000a031916815260200191505b506040526020018051604051939291908464010000000082111561010a57600080fd5b8382019150602082018581111561012057600080fd5b825186600182028301116401000000008211171561013d57600080fd5b8083526020830192505050908051906020019080838360005b83811015610171578082015181840152602081019050610156565b50505050905090810190601f16801561019e5780820380516001836020036101000a031916815260200191505b506040526020018051906020019092919080519060200190929190805190602001909291905050506040518060a001604052808681526020018581526020018481526020018381526020018273ffffffffffffffffffffffffffffffffffffffff168152506000808201518160000190805190602001906102209291906103f0565b50602082015181600101908051906020019061023d9291906103f0565b50604082015181600201556060820151816003015560808201518160040160006101000a81548173ffffffffffffffffffffffffffffffffffffffff021916908373ffffffffffffffffffffffffffffffffffffffff1602179055509050506000600560006101000a81548160ff0219169083600b8111156102bb57fe5b021790555060074290806001815401808255809150509060018203906000526020600020016000909192909190915055506006600560009054906101000a900460ff16908060018154018082558091505090600182039060005260206000209060209182820401919006909192909190916101000a81548160ff0219169083600b81111561034557fe5b0217905550507ebfe3e38a44c240d62c74b7087a28fbee1d69d6f215535d49241fd7af1a11993360405180806020018373ffffffffffffffffffffffffffffffffffffffff1673ffffffffffffffffffffffffffffffffffffffff168152602001828103825260178152602001807f4f72646572206372656174656420627920636c69656e740000000000000000008152506020019250505060405180910390a15050505050610495565b828054600181600116156101000203166002900490600052602060002090601f016020900481019282601f1061043157805160ff191683800117855561045f565b8280016001018555821561045f579182015b8281111561045e578251825591602001919060010190610443565b5b50905061046c9190610470565b5090565b61049291905b8082111561048e576000816000905550600101610476565b5090565b90565b6107bd806104a46000396000f3fe608060405234801561001057600080fd5b50600436106100935760003560e01c8063993746421161006657806399374642146102a6578063f1b6dccd14610363578063f5ec14cb1461038f578063f6c96e2d146103d9578063feeeeac01461042357610093565b806385090ac71461009857806389ffce52146100e2578063911ee4a31461012c578063940637ae14610176575b600080fd5b6100a061046d565b604051808273ffffffffffffffffffffffffffffffffffffffff1673ffffffffffffffffffffffffffffffffffffffff16815260200191505060405180910390f35b6100ea610493565b604051808273ffffffffffffffffffffffffffffffffffffffff1673ffffffffffffffffffffffffffffffffffffffff16815260200191505060405180910390f35b6101346104b9565b604051808273ffffffffffffffffffffffffffffffffffffffff1673ffffffffffffffffffffffffffffffffffffffff16815260200191505060405180910390f35b61017e6104df565b6040518080602001806020018681526020018581526020018473ffffffffffffffffffffffffffffffffffffffff1673ffffffffffffffffffffffffffffffffffffffff168152602001838103835288818151815260200191508051906020019080838360005b838110156102005780820151818401526020810190506101e5565b50505050905090810190601f16801561022d5780820380516001836020036101000a031916815260200191505b50838103825287818151815260200191508051906020019080838360005b8381101561026657808201518184015260208101905061024b565b50505050905090810190601f1680156102935780820380516001836020036101000a031916815260200191505b5097505050505050505060405180910390f35b6102e8600480360360208110156102bc57600080fd5b81019080803573ffffffffffffffffffffffffffffffffffffffff169060200190929190505050610653565b6040518080602001828103825283818151815260200191508051906020019080838360005b8381101561032857808201518184015260208101905061030d565b50505050905090810190601f1680156103555780820380516001836020036101000a031916815260200191505b509250505060405180910390f35b61036b610703565b6040518082600b81111561037b57fe5b60ff16815260200191505060405180910390f35b610397610716565b604051808273ffffffffffffffffffffffffffffffffffffffff1673ffffffffffffffffffffffffffffffffffffffff16815260200191505060405180910390f35b6103e161073c565b604051808273ffffffffffffffffffffffffffffffffffffffff1673ffffffffffffffffffffffffffffffffffffffff16815260200191505060405180910390f35b61042b610762565b604051808273ffffffffffffffffffffffffffffffffffffffff1673ffffffffffffffffffffffffffffffffffffffff16815260200191505060405180910390f35b600b60009054906101000a900473ffffffffffffffffffffffffffffffffffffffff1681565b600d60009054906101000a900473ffffffffffffffffffffffffffffffffffffffff1681565b600a60009054906101000a900473ffffffffffffffffffffffffffffffffffffffff1681565b6000806000018054600181600116156101000203166002900480601f0160208091040260200160405190810160405280929190818152602001828054600181600116156101000203166002900480156105795780601f1061054e57610100808354040283529160200191610579565b820191906000526020600020905b81548152906001019060200180831161055c57829003601f168201915b505050505090806001018054600181600116156101000203166002900480601f0160208091040260200160405190810160405280929190818152602001828054600181600116156101000203166002900480156106175780601f106105ec57610100808354040283529160200191610617565b820191906000526020600020905b8154815290600101906020018083116105fa57829003601f168201915b5050505050908060020154908060030154908060040160009054906101000a900473ffffffffffffffffffffffffffffffffffffffff16905085565b600e6020528060005260406000206000915090508054600181600116156101000203166002900480601f0160208091040260200160405190810160405280929190818152602001828054600181600116156101000203166002900480156106fb5780601f106106d0576101008083540402835291602001916106fb565b820191906000526020600020905b8154815290600101906020018083116106de57829003601f168201915b505050505081565b600560009054906101000a900460ff1681565b600960009054906101000a900473ffffffffffffffffffffffffffffffffffffffff1681565b600c60009054906101000a900473ffffffffffffffffffffffffffffffffffffffff1681565b600860009054906101000a900473ffffffffffffffffffffffffffffffffffffffff168156fea265627a7a72315820850838fa72cfb6cde683f05598c8f3110f7b55e60f1efc08b6879ce1c57ec6c464736f6c63430005100032a265627a7a7231582027c488198db9d7151dbb12a4717180f5a6a471f7763172e27da75da337d1676364736f6c63430005100032",
  "source": "pragma solidity ^0.5.16;\n\nimport \"./OrderTransportation.sol\";\n\ncontract OrderFactory{\n    OrderTransportation[] public deployedOrders;\n\n    function createOrder (string memory from, string memory to, uint freightClass, uint estimate_arrival_time, address consignee) public {\n        OrderTransportation newOrder = new OrderTransportation(from, to, freightClass, estimate_arrival_time, consignee);\n        deployedOrders.push(newOrder);\n    }\n    \n    function getDeployedOrder() public view returns(OrderTransportation[] memory){\n        return deployedOrders;\n    }\n}",
  "sourcePath": "/Users/yangqingqing/Documents/ReactDemo/IdM/contracts/OrderFactory.sol",
  "compiler": {
    "name": "solc",
    "version": "0.5.16+commit.9c3226ce.Emscripten.clang"
  },
  "schemaVersion": "3.3.4",
  "updatedAt": "2021-05-04T13:02:06.046Z",
  "networkType": "ethereum",
  "devdoc": {
    "methods": {}
  },
  "userdoc": {
    "methods": {}
  }
}